S010000072656365697665722E73726563BF
S11300000C94B0000C94CF000C94CF000C94CF004F
S11300100C94CF000C94CF000C94CF000C94A63118
S11300200C94CF000C94CF000C94CF000C94CF0010
S11300300C94CF000C94CF000C94CF000C94CD12F0
S11300400C94CF000C94CF000C94FD2A0C94CF0098
S11300500C94CF000C94CF000C94CF000C94CF00E0
S11300600C94CF000C94CF000C94CE310C94CF00A0
S11300700C94CF000C94CF000C942B2B0C94CF0039
S11300800C94CF000C94CF000C94CF0025730A007D
S1130090526573706F6E64696E6720776974682047
S11300A06D6573736167653A20000A005265636584
S11300B0697665643A20272573272066726F6D2060
S11300C00025303278003A0025752E25752E2575C9
S11300D02E25750025732025732C206368616E6EB0
S11300E0656C20636865636B2072617465202564A8
S11300F020487A2C20726164696F206368616E6E97
S1130100656C20256420284D6963617A290A004DB5
S1130110414320253032783A253032783A2530323E
S1130120783A253032783A253032783A25303278A8
S11301303A253032783A253032780A0025640A00AC
S113014025642E0052696D65207374617274656450
S11301502077697468206164647265737320000099
S113016011241FBECFEFD0E1DEBFCDBF12E0A0E06F
S1130170B1E0EEE1F2E700E00BBF02C007900D92A0
S1130180A033B107D9F71EE0A0E3B2E001C01D928D
S1130190AA35B107E1F70E9442110C940D390C9471
S11301A00000CF92DF92EF92FF920F931F93DF93A1
S11301B0CF93CDB7DEB7A8970FB6F894DEBF0FBEC6
S11301C0CDBF6C01DC018D919C911197009729F0B2
S11301D08833910509F0A2C00BC080E091E00E9431
S11301E0733588E390E0F6019183808381E09BC0BE
S11301F08091B30D6817A9F78091710C81FFF1CF3D
S1130200E091740CF091750C8091E90B9091EA0BDC
S1130210E80FF91F108200D000D08CEA90E0ADB74F
S1130220BEB712969C938E9311978091740C909103
S1130230750C14969C938E9313970E9453350F90CC
S11302400F900F900F908DEF9BE00E94A20100D0C1
S11302508AEA90E0EDB7FEB7928381830E9453351A
S113026000913002109131028091FD0B9091FE0BB0
S1130270A091FF0BB091000CF80180839183A283BD
S1130280B38380E990E0ADB7BEB712969C938E938A
S113029011970E9453358091320290913302019656
S11302A0909333028093320200D000D0EDB7FEB7B2
S11302B031967E010894E11CF11CADB7BEB71296CD
S11302C0FC92EE92119721E231E0338322839583ED
S11302D084830E94AA350F900F908CE890E0EDB7CC
S11302E0FEB792838183F482E3820E945335D7015F
S11302F00D900020E9F7AD01415050404E195F09BF
S11303000F900F900F900F90C801B7010E94DD105D
S1130310F801108211821282138263CFD6011196E2
S11303201C921E9283E0A8960FB6F894DEBF0FBE0F
S1130330CDBFCF91DF911F910F91FF90EF90DF9090
S1130340CF900895CF93DF93DC018DB79EB70A97C2
S11303500FB6F8949EBF0FBE8DBFEDB7FEB73196B2
S113036088EC90E0CDB7DEB79A8389838C91828341
S1130370138211968C9111978483158212968C9115
S113038012978683178213968C91808711860E9418
S113039053358DB79EB70A960FB6F8949EBF0FBE1D
S11303A08DBFDF91CF910895CF92DF92EF92FF92AC
S11303B00F931F93CF93DF93082F192FC0E0D0E042
S11303C091ECE92E90E0F92E86ECC82E80E0D82E30
S11303D00DC0209759F000D0ADB7BEB71296DC928D
S11303E0CE9211970E9453350F900F90F80181918E
S11303F08F0100D000D0EDB7FEB73196ADB7BEB7D0
S11304001296FC92EE921197828313820E945335C6
S113041021960F900F900F900F90C630D105C9F61A
S1130420DF91CF911F910F91FF90EF90DF90CF90CC
S113043008959C0141505040460F571FDB0110C0E6
S1130440FC91E0E011968C911197BF01680F711D2A
S1130450260F371F2617370710F42F5F3F4F1296CA
S1130460A417B50768F3A417B50749F49C9180E075
S1130470280F391F2817390710F42F5F3F4FC90180
S11304800895CF93DF939091F40BC92FD0E0649734
S11304903091F30B20E0C20FD31F9E01280F311DB2
S11304A0C9016DEF7BE048E050E00E94190265E06D
S11304B07CE0AE010E941902009719F0382F292F11
S11304C002C02FEF3FEFC901DF91CF9108959093C0
S11304D04302809342020895FC014381460F4093F6
S11304E0F00B872F99272281280F2093EF0BA181EE
S11304F0A093EE0B50815093ED0B30E02817390791
S113050048F48A2F8F5F8093EE0B882319F45F5F82
S11305105093ED0B842F90E070708617970798F432
S11305208091EF0B8F5F8093EF0B882361F48091B0
S1130530EE0B8F5F8093EE0B882329F48091ED0BF3
S11305408F5F8093ED0B0895BC018091760C9091A0
S1130550770C08960E946C02E091760CF091770C6F
S11305608091ED0B80878091EE0B81878091EF0B5A
S113057082878091F00B838708959C01AB0180E012
S113058090E0B9010E941902382F292FC90108955A
S113059080E090E061EF7BE044E150E00E941902CA
S11305A0009719F0382F292F02C02FEF3FEFC90110
S11305B0089586E00E944102089581E10E9441026B
S11305C0089580E009C0E82FF0E0EE0FFF1FE85027
S11305D0F34F118210828F5F8830A8F380E00BC044
S11305E0E82FF0E095E0EE0FFF1F9A95E1F7E85849
S11305F0F34F118E8F5F843098F380E094E09093F2
S113060045028093440240E08DE090E00EC0242F28
S113061030E0289FF001299FF00D389FF00D112440
S1130620EA5EF24F158214824F5F4C3080F34093A0
S11306304002089520914402309145022F5F3F4FBC
S11306404DE72030340710F020E030E1522F432FE3
S1130650A0E013C0EA2FF0E0B5E0EE0FFF1FBA955B
S1130660E1F7E858F34FB18DBB2331F00480F581F5
S1130670E02DE417F50711F3AF5FA43059F7309379
S11306804502209344021092400220E0E0E0F0E0B2
S11306901EC0A22FB0E035E0AA0FBB1F3A95E1F7C8
S11306A0A858B34F59963C915997332321F420937A
S11306B04002FD0110C0373049F4309731F05A96AA
S11306C04C915A97328D341708F4FD012F5F243072
S11306D000F3209340023097A9F122E0218F20916A
S11306E03A02248720913B02258720913C022687E9
S11306F020913D02278720E330E0338B228B358B1A
S1130700248B21E030E0318B208B138E21E0228F6B
S113071023E0208F168A20E1278B20914402309118
S11307204502322723273227358324837783668340
S1130730DC012D913D914D915C9113972083318380
S113074042835383CF0108950F931F93CF93DF9375
S113075020914402309145024DE050E02F5F3F4F1D
S1130760ADE720303A0710F020E030E1B22FA32F9C
S113077010E012C0C12FD0E0C49FF001C59FF00D5E
S1130780D49FF00D1124EA5EF24F0480F581E02D30
S1130790EA17FB0719F31F5F1C3061F7309345021A
S11307A02093440210E02DE030E01AC0012F0F5FC7
S11307B0C12FD0E0C29FF001C39FF00DD29FF00D76
S11307C01124EA5EF24FDF011496448155814115EC
S11307D0510529F410934002309749F433C0102F87
S11307E01C3020F310934002E0E0F0E02BC0209195
S11307F044023091450232272327322711963C9335
S11308002E9377836683009729F4108211821282D3
S1130810138209C0DC012D913D914D915C9120839F
S11308203183428353838DE090E0C89FD001C99FF8
S1130830B00DD89FB00D1124AA5EB24F80E4189673
S11308408C931897CF01DF91CF911F910F91089549
S113085040E013C0E42FF0E0542F5F5FEE0FFF1F62
S1130860E850F34F208131812817390729F4409348
S11308704002118210820895452F483058F3409366
S11308804002089540E013C0E42FF0E0542F5F5F6E
S1130890EE0FFF1FE850F34F208131812115310500
S11308A029F440934002918380830895452F483072
S11308B058F3409340020895EF92FF920F931F93D1
S11308C0CF93DF93C091760CD091770C843009F4E8
S11308D06AC209E11CE01093750C0093740C109328
S11308E0EC0B0093EB0B833071F4898D90E08F70E7
S11308F090708330910509F074C0888999890097B4
S113090009F09FC78DC0823009F08EC080913D02EE
S11309108F5F80933D02882399F480913C028F5F1E
S113092080933C02882361F480913B028F5F809323
S11309303B02882329F480913A028F5F80933A0224
S11309401092EA0B1092E90B1092150D1092140DEF
S1130950898D873011F0853041F48A8D8F5F8A8FBD
S1130960883709F06EC7198E6CC7882309F469C7E4
S1130970288939892115310509F44EC09A8D292F0A
S113098021502A8F992309F05CC79B8D983031F050
S1130990282F2150223048F4953039F4198E80E8FC
S11309A08093710C0E946B0E06C6953048F423E0C8
S11309B030E0092E02C0220F331F0A94E2F701C06F
S11309C020E32A8F9F5F9B8F90E08F70907083301D
S11309D09105E1F0843091054CF48130910509F4DE
S11309E0D3C38230910509F02CC70DC08630910520
S11309F009F47DC58830910509F479C584309105E1
S1130A0009F01FC774C51092120CC1C384E080930F
S1130A10710C0E946B0E01C68F70833009F011C7F0
S1130A2088E08093710CBCC5853019F5E091720C97
S1130A30F091730C84819581009709F402C7109298
S1130A40770C1092760C0C5010401093750C009398
S1130A50740C1093EC0B0093EB0B1092150D109289
S1130A60140D1092EA0B1092E90B88E08093710C3C
S1130A7098C1085210408091F10B853409F0E1C609
S1130A809091F30B80E02091F40B7C01E20EF11CB9
S1130A908091E90B9091EA0B8E159F0508F4D1C65D
S1130AA0F092EA0BE092E90B8091F70B90E08F73E0
S1130AB09070009709F0C5C68091F80B882309F05F
S1130AC0C0C68091100D9091110DC0914D01D0912F
S1130AD04E018C179D0759F44091120D5091130D3E
S1130AE020914F013091500142175307A9F12091F1
S1130AF0FA0B2131E9F44091010C5091020C209140
S1130B00490130914A014217530761F44091030CA3
S1130B105091040C20914B0130914C014217530722
S1130B2009F465C02091010C207E203E09F45FC0C9
S1130B302091010C3091020C2817390709F081C665
S1130B402091030C3091040C8091120D9091130D9F
S1130B502817390709F075C60E94C8022FEF8F3F86
S1130B60920709F06EC68091FA0B863009F483C1AE
S1130B708131E9F1813009F064C68091050C883037
S1130B8009F05FC61092050C8091070C9091080C37
S1130B904FEF873F940710F0099601C00896909391
S1130BA0080C8093070C8091FD0B9091FE0BA09193
S1130BB0FF0BB091000C8093010C9093020CA09356
S1130BC0030CB093040C8091100D9091110DA09121
S1130BD0120DB091130D8093FD0B9093FE0BA09317
S1130BE0FF0BB093000C80E4F801808707C6C701AF
S1130BF04C979093EA0B8093E90B8DE09CE09093E3
S1130C00750C8093740C80910B0C90910C0C0097D4
S1130C1039F00E94DD02FFEF8F3F9F0709F011C6F4
S1130C202091070C3091080C2115310509F409C6EF
S1130C3086E19DE09093730C8093720C60914F0158
S1130C40709150014091490150914A0100914B012A
S1130C5010914C013CC084819581009799F128172B
S1130C60390781F586819781009739F0A091050CA9
S1130C70B091060CA817B90729F5808191818C17CA
S1130C809D0731F4A281B381A617B70709F478C090
S1130C908417950731F4A281B381A017B10709F431
S1130CA06FC0A091FD0BB091FE0BA817B90751F4CA
S1130CB0A091FF0BB091000C82819381A817B90712
S1130CC009F45EC03D96F093730CE093720CE091CE
S1130CD0720CF091730C8DE0E23BF80708F4BBCF83
S1130CE0EDE0FCE0DF015C978CE10D900192815016
S1130CF0E1F783E08093050C8093060C1092080CB6
S1130D001092070C85E09CE064E270E00E94BD0252
S1130D10809590959093080C8093070C8091FD0B1F
S1130D209091FE0BA091FF0BB091000C8093010CED
S1130D309093020CA093030CB093040C8091100DBB
S1130D409091110DA091120DB091130D8093FD0B94
S1130D509093FE0BA093FF0BB093000C88E390E0FC
S1130D609093EA0B8093E90B1092F30B88E3809342
S1130D70F40B80E48093F90B81E08093FA0B3EC579
S1130D801092770C1092760C82E08093710C8DE0B7
S1130D909CE09093EC0B8093EB0B1092150D10924A
S1130DA0140D0E946B0E8091140D9091150D0097F7
S1130DB009F447C59C01245E3F4F3093EA0B20930E
S1130DC0E90B3093F30B2093F40BE091720CF09148
S1130DD0730C20852093F90B21E12093FA0B0896DC
S1130DE098278927982790930A0C8093090C1092CE
S1130DF00C0C10920B0C848195819093060C8093BB
S1130E00050C868197819093080C8093070C809140
S1130E10100D9091110DA091120DB091130D8093AE
S1130E20FD0B9093FE0BA093FF0BB093000C8081FD
S1130E309181A281B3818093010C9093020CA093C1
S1130E40030CB093040C89E19CE09093750C80939F
S1130E50740C0E94DD028095909590930C0C809305
S1130E600B0C009709F0CAC48FEF9FEF90930C0C02
S1130E7080930B0CC3C40E94D902EFEF8F3F9E07EF
S1130E8009F0DFC48091070C9091080C009709F4D5
S1130E90D8C42091050C3091060C2115310509F4B4
S1130EA0D0C4C8E7DCE0498D4423E9F06C817D813E
S1130EB086179707C1F46E817F812617370799F447
S1130EC0E091FD0BF091FE0B68817981E617F7073D
S1130ED051F4E091FF0BF091000C6A817B81E617DD
S1130EE0F70709F46CC1A096FCE0C83FDF07D9F608
S1130EF02091120C2F732230B9F490933F02809307
S1130F003E0240E00DC0E42FF0E0EE0FFF1FE8507A
S1130F10F34F208131814F5F8217930709F46EC02C
S1130F20483088F3409340028091120C82FD89C4BA
S1130F3084E1F80181A388E290E09093EA0B809326
S1130F40E90B80E580A380910C0C9091100C938F99
S1130F5030910B0C90910F0C928F368F20910A0CCC
S1130F6090910E0C918F258F9091090C90934002D3
S1130F7040910D0C408F948F8F5F878F882361F48D
S1130F80832F8F5F868F882339F4822F8F5F858F1D
S1130F90882311F49F5F948F8091050C9091060C27
S1130FA090933F0280933E022091070C3091080CED
S1130FB0F801358B248B978B868B8091FD0B909158
S1130FC0FE0BA091FF0BB091000C8093010C909349
S1130FD0020CA093030CB093040C8091100D90911B
S1130FE0110DA091120DB091130D8093FD0B9093F0
S1130FF0FE0BA093FF0BB093000CE5C310924002CC
S113100080E0C0E0D0E022C0E82FF0E075E0EE0F11
S1131010FF1F7A95E1F7E858F34F918D992321F456
S113102080934002EF0116C0973079F4209721F0A5
S1131030228D9A8D921748F4C82FD0E065E0CC0F2A
S1131040DD1F6A95E1F7C858D34F8F5F8430E0F213
S113105080934002209709F4F4C3D093770CC09393
S1131060760C83E08A8F888F1E8A84E08F8B1B8E98
S11310708091070C9091080C9D838C838091050CC2
S11310809091060C9F838E838091FD0B9091FE0BB3
S1131090A091FF0BB091000C88839983AA83BB8332
S11310A081E0898F80913A028C8780913B028D8701
S11310B080913C028E8780913D028F8781E090E091
S11310C0998B888B80910C0C8B8780910B0C8A8771
S11310D080910A0C89878091090C888781E090E0CF
S11310E00E94A4028091110C282F30E0207F3070E0
S11310F0213531050CF448C082958F7090E0059736
S1131100880F991F880F991F5091410240E033C006
S1131110F901EF50F44F50A5552329F440934002B0
S11311201092410231C0513011F44F5F24C052304B
S1131130D9F461A56430C1F4409340025093410254
S113114032A520E083A590E0822B932B90933F025D
S113115080933E028133910510F080E390E09B8BF5
S11311608A8B9D8B8C8B10C02F50344FF90121A595
S1131170222331F0420F242F30E02817390744F29C
S1131180409340025093410280E18093120C80917D
S1131190120C82608093120C82E08093190C84E01C
S11311A080931A0C10921B0C80E380931C0C8CE22D
S11311B090E09093EA0B8093E90B80E6B2C2D0935F
S11311C0770CC093760C1092710C8091120C90E005
S11311D082FF03C0198E80E24DC22091110C22952A
S11311E02F70220F220F20934002B701621B710956
S11311F09B01245130403093EA0B2093E90B50E0DB
S11312004F7050704230510539F4AC014F73507037
S11312104231510551F42AC04130510531F4AC0139
S11312204F7350704230510509F12115310531F4E5
S11312309C012370307021153105C1F03091090CE7
S11312402885321709F063C230910A0C29853217B8
S113125009F05DC230910B0C2A85321709F057C290
S113126030910C0C2B85321709F051C284FF4AC00F
S1131270688979896115710509F444C0CE010C9619
S11312800E946C0230910D0C8091ED0B3817D1F552
S113129020910E0C8091EE0B2817A1F590910F0C64
S11312A08091EF0B981771F58091100C4091F00B21
S11312B0841741F53C872D879E878F878B8D8823E4
S11312C0D1F42E89888D9A8D891B922F96959695A7
S11312D09695891B280F2E8B87FD81959F89392F21
S11312E036953695931B980F9F8B822F86958695FE
S11312F08695890F888F81E08093710C888D8A8F01
S1131300198A188A298D30E0C9018F709070843051
S1131310910509F4B4C18530910564F482309105D6
S1131320C9F1833091050CF0B8C08130910509F002
S113133088C211C08630910509F4E1C18630910557
S11313400CF4BDC18730910509F4E1C188309105E1
S113135009F077C289C18091710C80FF14C083E0C9
S1131360898F80E48093710C198A188A8091E90B23
S11313709091EA0B009709F40FC122E42093710CB9
S11313800E94A40209C18091120C8F73823009F06B
S113139058C2FACE8091710C80FF74C08091120CF7
S11313A08F73823109F06EC08091110C282F30E0C8
S11313B0207F3070213531050CF448C082958F7040
S11313C090E00597880F991F880F991F509141024B
S11313D040E033C0F901EF50F44F50A5552329F4F0
S11313E0409340021092410231C0513011F44F5FDA
S11313F024C05230D9F461A56430C1F44093400252
S11314005093410232A520E083A590E0822B932BD8
S113141090933F0280933E028133910510F080E364
S113142090E09B8B8A8B9D8B8C8B10C02F50344FFC
S1131430F90121A5222331F0420F242F30E028178F
S1131440390744F2409340025093410283E0898F6C
S11314508091090C888780910A0C898780910B0CF4
S11314608A8780910C0C8B8781E090E00E94A40213
S113147082E48093710C198A188A1092EA0B1092F4
S1131480E90B8AC080E28093710C0E946B0EE0919C
S1131490760CF091770C118E47CD8091120C80FF61
S11314A02AC024FD28C088899989009709F0C9C1F8
S11314B08091E90B9091EA0B01960E94A40220917D
S11314C0710C822F80618093710C8091E90B909153
S11314D0EA0B009719F022612093710C0E946B0EA5
S11314E081E090E0998B888B88E0898F1B8E81E165
S11314F08093120C0FC185FF1CC05091170C40E063
S11315008091180C90E0842B952B4091740C509191
S1131510750C480F591F5093750C4093740C4091EF
S1131520E90B5091EA0B481B590B5093EA0B40937B
S1131530E90B8091E90B9091EA0B009749F024FDA7
S113154007C02091710C22602093710C0E94A402A8
S11315509091130C80E02091140C820F911D9093B4
S11315603F0280933E022C893D892817390710F0E9
S1131570009721F430933F0220933E0280913E0273
S113158090913F029B8B8A8B8091710C90E08370C9
S11315909070009709F455C11092150D1092140D16
S11315A00E946B0E8091710C85FF07C01092150D7F
S11315B01092140D198E84E19BCF84FF0AC01092FF
S11315C0150D1092140D81E090E0998B888B84E0C6
S11315D08CCF2091140D3091150D21153105E1F0BA
S11315E080FF02C0198A188A88899989009781F432
S11315F08A899B898217930720F49093150D809311
S1131600140D8091140D9091150D998B888B04C045
S11316109093150D8093140D1B8E8091EB0B90917C
S1131620EC0B9093750C8093740C8091140D909135
S1131630150D009759F088899989009739F0889693
S11316409093EA0B8093E90B88E10BC08091710CB5
S113165081FFF7C088E290E09093EA0B8093E90B56
S113166080E18093120C5CC08091710C80FFE9C012
S1131670198E80E18093710C0E946B0EE2C0809100
S1131680E90B9091EA0B009711F00E94A40290914B
S1131690120C8091710C90FF0BC080FF06C087E094
S11316A0898F1A8E198A188A19C086E0898F16C004
S11316B080FF1EC085E0898F198A188AC2C0809174
S11316C0E90B9091EA0B009711F00E94A40280911B
S11316D0120C80FF0DC087E0898F1A8E81E090E0A4
S11316E00E94A40280E18093710C0E946B0E0FC0D3
S11316F08091E90B9091EA0B009749F4A2C0809184
S1131700710C80FF9EC087E0898F1A8E9AC080E199
S1131710F80181A388E290E09093EA0B8093E90BAF
S113172080E58093110C888580930D0C89858093C6
S11317300E0C8A8580930F0C8B858093100C8C85FE
S11317408093090C8D8580930A0C8E8580930B0CF5
S11317508F8580930C0C86E08093FA0B8C819D819D
S11317609093060C8093050C8E819F819093080CB6
S11317708093070C8091100D9091110DA091120D82
S1131780B091130D8093FD0B9093FE0BA093FF0B70
S1131790B093000C88819981AA81BB818093010C4C
S11317A09093020CA093030CB093040C898D84FFD6
S11317B005C01092140C1092130C05C01092130C57
S11317C080E38093140C80E48093F90B8091E90BFF
S11317D09091EA0B9093F30B8093F40B1092180CF6
S11317E01092170C1092160C1092150C0E94D9022C
S11317F0809590959093160C8093150C85E48093B6
S1131800F10B1092F20B1092F80B1092F70B8091DF
S113181042029091430201969093430280934202C4
S11318209093F50B8093F60B1092FC0B1092FB0B2C
S11318300E94C802809590959093FC0B8093FB0BBB
S113184004C01092EA0B1092E90B1092710CDF9114
S1131850CF911F910F91FF90EF900895382F292F6A
S1131860C9010895382F292F40E050E076276727D3
S1131870762780E090E0CB0177276627262B372B4D
S1131880482B592BB901CA010895AC01E091EB0B27
S1131890F091EC0B222733272E1B3F0B2F58334F8D
S11318A0621773070CF49B011216130664F4209359
S11318B0140D3093150D4E175F0729F0CF01BA01AF
S11318C0A9010E944335089588E692E00E946026AB
S11318D0009721F088E692E00E944B260895E0915B
S11318E07502F0917602309711F00995089580E021
S11318F00895EF92FF920F931F93CF93DF93EC0120
S11319008A0188819981009731F023E08030920721
S113191009F012C12BC080E00BC0E82FF0E0EE0FFD
S1131920FF1FEE0FFF1FEA5BFD4F118210828F5FD6
S1131930883098F38093700280918A0490918B048C
S113194090936702809366020E94B9228093B30D3C
S113195088E692E060E470E00E9435260E94E1028D
S113196080E093E09983888381E0E9C0623009F4E0
S1131970BBC0633030F4662309F48BC0613081F757
S11319809EC0673819F0683859F741C01092710247
S113199046E4E42E42E0F42E18C0F70182819381DC
S11319A08017910749F4808191810E942804F701EE
S11319B0118210821382128284E090E0E80EF91EF4
S11319C0809171028F5F80937102809171028830DF
S11319D020F3E8E7FCE0848D958D8017910719F4D6
S11319E0158E148E118EB0969CE0E83FF90799F796
S11319F0E6E1FDE0818592858017910711F4158257
S1131A0014823D962DE0E23BF207A1F7A9CF82E0D4
S1131A104836580709F0A4CFCA010E9460260097EF
S1131A2009F49ECF109271022DC0F0E035E0EE0F64
S1131A30FF1F3A95E1F7E858F34F818D8823E9F0C9
S1131A4088E692E00E944B268091710290E025E0A6
S1131A50880F991F2A95E1F78858934F9093770C34
S1131A608093760C82E00E945C048091E90B909153
S1131A70EA0B009711F00E946F0C809171028F5F46
S1131A8080937102E0917102E43078F20E94CE10EA
S1131A9067CF4115510509F463CF5093770C4093F8
S1131AA0760C83E00E945C048091E90B9091EA0B30
S1131AB0009711F00E946F0C0E94640C51CF4115E5
S1131AC0510509F44DCF5093730C4093720C85E08B
S1131AD00E945C048091E90B9091EA0B009709F451
S1131AE03FCF0E946F0C3CCF8091E90B9091EA0BA1
S1131AF0009709F435CF81E08093B20D0E94940FD2
S1131B008823B9F41092B20D8091FA0B863031F427
S1131B108091120C81FF02C00E94640C81E00E943B
S1131B205C048091E90B9091EA0B009711F00E94FC
S1131B306F0C1092B20D14CF1982188283E0DF91DA
S1131B40CF911F910F91FF90EF900895909376029B
S1131B5080937502089520918A0430918B0460E08B
S1131B60E6E4F2E013C0408151814817590761F45B
S1131B70428153814217530739F4609374021182EE
S1131B8010820E942804089534966F5F683058F3D9
S1131B9060937402089540E0E6E4F2E016C0542F26
S1131BA05F5F208131812115310569F4409373020F
S1131BB09183808320918A0430918B043383228320
S1131BC00E94420408953496452F483040F34093D0
S1131BD073020895FC0180918A0490918B04958F7F
S1131BE0848F778F668F0895FC0180918A04909189
S1131BF08B0492878187748763870895CF93DF93DB
S1131C00EA010E94A403FC01009741F080918A0438
S1131C1090918B0492878187D487C387CF01DF910A
S1131C20CF9108950F931F93DF93CF9300D000D0EB
S1131C30CDB7DEB78C01AB018FEF89838A838B83A9
S1131C408C83CE010196B8010E94FE0DFC01009721
S1131C5011F015830483CF010F900F900F900F9014
S1131C60CF91DF911F910F91089581E591E062E09A
S1131C7040E050E00E9476231092EA0B1092E90BA8
S1131C800895AC0181E591E061E00E944B23089541
S1131C90AC0181E591E060E00E944B2308950F932D
S1131CA01F93CF93DF93EA010E941A038C010097DC
S1131CB061F080918A0490918B04F801958F848F50
S1131CC0D78FC68FC8010E94480EC801DF91CF91FB
S1131CD01F910F910895CF93DF93A091760CB0914B
S1131CE0770C109719F0ED016C9605C0C091720C39
S1131CF0D091730C29968091710C86FF22C01092AA
S1131D00720240E0E6E4F2E016C0208131811496CC
S1131D108D919C9115972817390759F482819381E5
S1131D20009739F040937202998388831B821A8248
S1131D3006C034964F5F483040F3409372020E94CD
S1131D40640C88819981009731F04A815B816091AC
S1131D50B30D0E947623DF91CF91089510924A0328
S1131D6010924903E0914B03F0914C0307C030817A
S1131D70218111821082C901E92FF82F3097B9F718
S1131D8010924C0310924B030895CF93DF938091EC
S1131D90E90B9091EA0B009709F4C0C0A7E7B2E001
S1131DA0E0E0F0E044E150E080E090E02D913C91EF
S1131DB011972115310569F4880F991FFC01A3E0DF
S1131DC0EE0FFF1FAA95E1F7E81BF90BE958FD4F49
S1131DD016C04217530770F0AC01440F551FFA01A7
S1131DE063E0EE0FFF1F6A95E1F7E41BF50BE9587A
S1131DF0FD4FA90101961E968F309105B9F684E135
S1131E0090E0918380838091F50B9091F60B9387FA
S1131E1082878091FD0B9091FE0BA091FF0BB091F6
S1131E20000C82839383A483B5838091010C9091E9
S1131E30020CA091030CB091040C86839783A087B5
S1131E40B1878091FA0B84872091010C3091020CA8
S1131E508091490190914A012817390721F5209171
S1131E60030C3091040C80914B0190914C01281784
S1131E703907C9F4E0914903F0914A03309721F0FE
S1131E800284F385E02D0995C0914B03D0914C0356
S1131E9006C0EA85FB8509950990D881C02D209755
S1131EA0C1F780E03EC0E0914B03F0914C0329C0A0
S1131EB0828193812091010C3091020C8227932717
S1131EC026813781822393230097A1F4848195810D
S1131ED02091030C3091040C8227932720853185AF
S1131EE08223932321E030E0009711F020E030E0DA
S1131EF0C90102C080E090E0882359F40190F08188
S1131F00E02D3097A9F6E0914903F0914A03309708
S1131F1039F00284F385E02D099503C082E001C005
S1131F2084E0DF91CF9108958091010C9091020C8F
S1131F302091100D3091110D8217930761F4409197
S1131F40030C5091040C2091120D3091130D421783
S1131F50530709F40EC12091FA0B213119F0E7E778
S1131F60F2E009C02091070C3091080C4EE82230B1
S1131F703407A9F7FEC0208131812115310579F19B
S1131F80428553852091F50B3091F60B4217530788
S1131F9031F5428153812091FD0B3091FE0B4217A4
S1131FA05307E9F4448155812091FF0B3091000CD3
S1131FB042175307A1F4268137812817390779F48A
S1131FC0408551852091030C3091040C421753072E
S1131FD031F434852091FA0B321709F4C8C03E96C7
S1131FE023E0E934F20739F62091F90B223008F0A6
S1131FF084C02091490130914A018217930761F40A
S11320002091030C3091040C80914B0190914C0170
S11320102817390709F4ADC08091FA0B813049F4CF
S11320208091050C883029F01092EA0B1092E90B8C
S113203064C0EDE0FCE0DF015C978CE10D9001925F
S11320408150E1F78BE08093050C1092060C1092FE
S1132050080C1092070C85E09CE064E270E00E949A
S1132060BD02809590959093080C8093070C809105
S1132070FD0B9091FE0BA091FF0BB091000C80938F
S1132080010C9093020CA093030CB093040C809168
S1132090100D9091110DA091120DB091130D80931C
S11320A0FD0B9093FE0BA093FF0BB093000C88E301
S11320B090E09093EA0B8093E90B1092F30B88E382
S11320C08093F40B85E48093F10B1092F20B109241
S11320D0F80B1092F70B80E48093F90B81E0809366
S11320E0FA0B1092FC0B1092FB0B0E94C802809515
S11320F090959093FC0B8093FB0B8091F90B81508E
S11321008093F90B8091FB0B9091FC0B4FEF8E3F6A
S1132110940710F0029601C001969093FC0B8093F3
S1132120FB0B8091E90B9091EA0B009741F089E158
S11321309CE09093750C8093740C0E94C50E2091C2
S1132140010C3091020C8091490190914A012817A9
S1132150390789F481E04091030C5091040C2091DB
S11321604B0130914C014217530731F402C081E016
S1132170089580E0089581E0089520914B03309103
S11321804C03FC013183208390934C0380934B03D5
S1132190089590934A03809349030895E7E7F2E092
S11321A080819181009719F00197918380833E96F5
S11321B083E0E934F807A1F70895FB01309709F1AA
S11321C09093730C8093720C4093140D5093150DDF
S11321D06DE07CE0242F352F2138310514F020E800
S11321E030E0CB01BF01A9010E94433584E00E9485
S11321F05C048091E90B9091EA0B009711F00E9426
S11322006F0C1092150D1092140D0895AF92BF9299
S1132210CF92DF92EF92FF920F931F93CF93DF93AE
S1132220EC0121153105D1F0C880D980EA80FB800A
S1132230AE80BF80F90180819181A281B3818883BE
S11322409983AA83BB831F830E83CE010E94DD1072
S1132250C882D982EA82FB82BF82AE82DF91CF91AB
S11322601F910F91FF90EF90DF90CF90BF90AF90B0
S1132270089580E063E046E00E945A2B80E00E94CB
S1132280D02B08950E946A1484E00E9474140E9462
S113229039110E94291381E00E9474140E94BF1313
S11322A00E947E122091B40D80914D0390914E03B3
S11322B0820F911D0E943D280E94FF270E94C72281
S11322C088ED91E060E070E00E9485230E942E2753
S11322D082E00E9474140E94771187E00E947C14AB
S11322E085E491E00E94BE230E94D922FDCFCF92C3
S11322F0DF92EF92FF920F931F93DF93CF93CDB7AB
S1132300DEB728970FB6F894DEBF0FBECDBF80911D
S11323104D0390914E03009739F48091BB0D89834E
S11323208091BA0D8A8302C089839A838E010F5FDC
S11323301F4FC8010E94BE1400D084E491E0ADB7E1
S1132340BEB712969C938E9311970E94533500D07A
S1132350EDB7FEB7319680E491E0ADB7BEB7129603
S11323609C938E9311978981828313820E945335A3
S1132370EDB7FEB731968CE391E0ADB7BEB71296D8
S11323809C938E9311978A81828313820E94533582
S11323900F900F900F900F900E94B42F9091BC0D4E
S11323A080E02091BD0D7C01E20EF11C88E0F80173
S11323B011928A95E9F7C8016CEB7DE00E94A314A1
S11323C08DB79EB742970FB6F8949EBF0FBE8DBFD0
S11323D0EDB7FEB731968FE091E0ADB7BEB7129678
S11323E09C938E9311978981828313828A8184833B
S11323F015828B81868317828C81808711868D81DB
S1132400828713868E81848715868F8186871786B7
S11324108885808B118A0E945335EDB7FEB772967A
S11324200FB6F894FEBF0FBEEDBF8DEC9BEAB7016B
S1132430A8010E942A2F8AE190E00E94DA2EE091FE
S11324409301F09194010995E091B401F091B501E3
S11324500995E0916201F091630109950091B2013F
S11324601091B301C0909101D0909201E0909F012E
S1132470F090A001F7010995009741F0F701099543
S1132480BC0180E890E00E94D13402C060E870E0B2
S11324908DB79EB70A970FB6F8949EBF0FBE8DBF37
S11324A0EDB7FEB7319684ED90E0ADB7BEB71296A6
S11324B09C938E93119713830283D582C48277836E
S11324C066838AE190E0918780870E945335EDB757
S11324D0FEB73A960FB6F894FEBF0FBEEDBF28962E
S11324E00FB6F894DEBF0FBECDBFCF91DF911F9121
S11324F00F91FF90EF90DF90CF900895DF93CF93EB
S113250000D000D00F92CDB7DEB78FB78983F8948F
S113251080E090E0BE016E5F7F4F44E050E00E9497
S11325205A148A819B812EED8D3A920719F48C817D
S11325309D8102C080E090E090934E0380934D0310
S113254089818FBF0F900F900F900F900F90CF91B4
S1132550DF910895DF93CF9300D000D00F92CDB7D1
S1132560DEB72DEA3EED3B832A839D838C838FB7B0
S11325708983F89480E090E0BE016E5F7F4F44E071
S113258050E00E94521489818FBF0F900F900F90DA
S11325900F900F90CF91DF9108951F920F920FB675
S11325A00F920BB60F9211242F933F934F935F9387
S11325B06F937F938F939F93AF93BF93EF93FF9307
S11325C08091530390915403019690935403809304
S11325D053038091550390915603019690935603AB
S11325E0809355038091550390915603803891054B
S11325F0B9F4109256031092550380914F039091B1
S11326005003A0915103B09152030196A11DB11D35
S113261080934F0390935003A0935103B0935203BC
S11326200E947826009711F00E947825FF91EF917F
S1132630BF91AF919F918F917F916F915F914F91D6
S11326403F912F910F900BBE0F900FBE0F901F90D4
S11326501895F89487B78C7F87BF80B7886080BF50
S11326608BE083BF12BE88E081BF16BE80B790E0C6
S1132670877090700097D1F787B7826087BF1092F8
S11326805403109253037894089520915303309186
S11326905403809153039091540328173907A9F7E1
S11326A0C901089507C022E330E000002150304002
S11326B0E1F701970097B9F708950F931F93CF930C
S11326C0DF938C010E944513EC010E9445138C1B7F
S11326D09D0B80179107C8F3DF91CF911F910F9144
S11326E00895089520914F03309150034091510370
S11326F05091520380914F0390915003A091510344
S1132700B0915203281739074A075B0759F7B901F3
S1132710CA01089587E090E020E030E0AAE0B0E04C
S113272060E170E045E650E0D49ADC98FD01319711
S1132730F1F7D498DC9AFB013197F1F7CC99206832
S1132740FA013197F1F7009711F4C901089501973F
S113275036952795E9CF6827792788E090E04CE8FB
S113276050E09B013695279560FF04C0B9016427AA
S1132770752701C0B9010197A1F7CB010895CF9244
S1132780DF92EF92FF920F931F93DF93CF930F92F9
S1132790CDB7DEB7D498DC988FB78983F894D49AF0
S11327A0DC9889E993E00197F1F7D498DC9A80E802
S11327B090E00197F1F729B383EF92E00197F1F7E5
S11327C024FD5AC0B8E0A3E3EEE6F0E062E170E075
S11327D04AE050E025E730E0A0FF09C0D49ADC9835
S11327E0CA010197F1F7D498DC9AC90108C0D49AB8
S11327F0DC98CF010197F1F7D498DC9ACB010197CB
S1132800F1F7B15011F0A695E7CF0E948A136C013D
S11328100CEB1DE078010E948A13D7018E937D0191
S1132820B6EBEB16BDE0FB06B1F70E948A137C0100
S113283089818FBFE1E0CE16D10401F580E090E0FC
S113284061E070E00E94AB13D8016E918D0170E0DD
S11328500E94AB13BDE0063B1B07B1F78E159F0525
S113286069F41092B40D8AE18093B50D8CE48093E1
S1132870B60D21E030E00BC089818FBF88E0E4EB26
S1132880FDE0DF011D928A95E9F720E030E0C901FF
S11328900F90CF91DF911F910F91FF90EF90DF90F8
S11328A0CF9008959C01CB01E199FECFB9010E941C
S11328B0FA3708959C01CB01E199FECFB9010E943A
S11328C0EA370895909157038091580389270E940D
S11328D0F02B08950E94D92B10925703109258039D
S11328E008950E94E02B089590915803982B90939B
S11328F058030E9462140895809590915803982378
S1132900909358030E946214089590915703982756
S1132910909357030E94621408950E9485140895A9
S11329201F93109157038091580318271095812FF6
S11329300E94851480E991E00E945213812F0E9425
S113294085141F910895FC01DB018C9180831196FD
S11329508C91119781830895FC01DB0190818C9106
S1132960981741F421E030E0918111968C911197F0
S1132970981711F020E030E0C9010895FC0180812E
S11329808093BC0D81818093BD0D08950F931F9397
S1132990CF93DF938091C20D9091C30DA091C40D8C
S11329A0B091C50D0196A11DB11D8093C20D9093E8
S11329B0C30DA093C40DB093C50D0E94ED17EC0197
S11329C089E593E00E9476240BC0D8011296ED911C
S11329D0FC911397309709F00995C8010E943C2592
S11329E0082F192F0115110581F7209719F0CE0131
S11329F00E94D617DF91CF911F910F9108950E94E5
S1132A00F5290E946F290E947B150E94EA1782E033
S1132A1090E060E072E040E05EE12FEF31E00E9480
S1132A2018170895CF92DF92EF92FF920F931F939E
S1132A30CF93DF936C01EB018A0189E593E00E9457
S1132A4076240CC0D7011496ED91FC91159730971C
S1132A5011F0CE010995C7010E943C25E82EF92EFC
S1132A60E114F10479F7C601BE01A8010E94DE1742
S1132A70DF91CF911F910F91FF90EF90DF90CF9056
S1132A800895BC0189E593E00E94FD240895BC01EA
S1132A9089E593E00E94C4240895CF93DF93EC0169
S1132AA08091BE0D9091BF0DA091C00DB091C10D4C
S1132AB00196A11DB11D8093BE0D9093BF0DA093EF
S1132AC0C00DB093C10DCE010E94FD17009769F0AF
S1132AD00E94E928E091B601F091B70182E195E105
S1132AE0BE01099521E030E002C020E030E0C901D8
S1132AF0DF91CF9108958BE593E00E9472240895AD
S1132B000F93CF93DF93EC017B836A8318865F83F3
S1132B104E838BE593E0BE010E94FD24E0915D03AA
S1132B20F0915E03309749F04C815D818A819B81ED
S1132B30688520E030E001E00995DF91CF910F91A5
S1132B400895BC018BE593E00E94C42408950F937B
S1132B50DC0118961C921897E0915D03F0915E03D6
S1132B60309759F012968D919C91139760E040E054
S1132B7050E020E030E000E009950F9108950F93B4
S1132B80DC01AB0114962D913C91159781E01896C8
S1132B908C93189715967C936E931497E0915D032C
S1132BA0F0915E03309739F012968D919C911397B2
S1132BB061E000E009950F9108950F93DC01E09125
S1132BC05D03F0915E03309769F014962D913C916A
S1132BD0159712968D919C91139718966C91A90153
S1132BE001E009950F910895E0915F03F09160036E
S1132BF0309709F0099508959093600380935F03DB
S1132C00089590935E0380935D0308958BE593E0AC
S1132C100E9476240895EF92FF920F931F93CF930F
S1132C20DF938C01EB017A018BE593E00E9476241B
S1132C3015C0DC0112962D913C9113972C173D077A
S1132C4059F41696ED91FC911797309761F0B801FD
S1132C50AE019701099507C00E943C25282F392F02
S1132C60C901009731F7DF91CF911F910F91FF9028
S1132C70EF9008950895AF92BF92CF92DF92EF92B2
S1132C80FF920F931F93DF93CF9300D0CDB7DEB79E
S1132C905B010E94CC288C01FC01E080F180FA8267
S1132CA0E9820E941E299701220F331F220F331F2E
S1132CB02E5F3F4F8217930798F0CC24DD240DC07C
S1132CC0F8016281738144815581C5010E940B160C
S1132CD00894C11CD11C0C5F1F4FCE14DF0480F379
S1132CE00F900F90CF91DF911F910F91FF90EF9074
S1132CF0DF90CF90BF90AF900895CF93DF93CCE750
S1132D00D3E06091920370919303CE014FEA56E1B0
S1132D1020E030E00E943B270E944028609192030B
S1132D20709193030E94D134BC01CE01409744ECCE
S1132D3056E120E030E00E943B27DF91CF910895D7
S1132D400F93013051F480918C0390918D039093F3
S1132D509303809392030E947D160F9108958091AE
S1132D609203909193032091900330919103880FE3
S1132D70991F2817390708F4C90190939303809386
S1132D8092030E947D160895EF92FF92CF93DF93F2
S1132D900E946F290E94CC28E82EE7017E01F92EBB
S1132DA0E701198218820E94061626C028813981FB
S1132DB0F901EE0FFF1FEE0FFF1FEC0FFD1FDC01EB
S1132DC012964D915C911397538342832F5F3F4F2B
S1132DD0F901EE0FFF1FEE0FFF1FEC0FFD1F1496FE
S1132DE04D915C91159751834083398328830E94C8
S1132DF03C25282F392FC901009721F0FC0120859B
S1132E002223A1F688819981880F991F880F991F21
S1132E1002960E94C72888819981009721F081E653
S1132E2093E00E94A817DF91CF91FF90EF9008954F
S1132E30EF92FF920F931F93CF93DF93FC018B01CB
S1132E407A01E90181E693E0BF0146E651E00E9480
S1132E508A1710938D0300938C03F0928F03E092F2
S1132E608E03D0939103C093900380EA96E10E946D
S1132E700116DF91CF911F910F91FF90EF9008956C
S1132E80CF93DF93CCE7D3E0CE010E94C227CE01DB
S1132E9040970E94C227CE014B970E94A517DF914D
S1132EA0CF91089580919203909193030895DC014A
S1132EB01996ED91FC911A970280F381E02D3097D9
S1132EC009F009950895EF92FF920F931F93DF93F2
S1132ED0CF9300D0CDB7DEB78C017E010894E11CFE
S1132EE0F11CC70167E07EE00E94A314D801199683
S1132EF0ED91FC911A970190F081E02DC801B70182
S1132F0009950F900F90CF91DF911F910F91FF9032
S1132F10EF900895EF92FF920F931F93CF93DF9357
S1132F20EC018B017A014AE651E00E94B717FA8658
S1132F30E986C8016EE671E00E944718DF91CF91DF
S1132F401F910F91FF90EF9008950E94D01708955C
S1132F50CF93DF93EC0187E09EE06CEB7DE00E9471
S1132F60A314CE010E94D317DF91CF910895EF925D
S1132F70FF920F931F93CF93DF93EC018B017A01A0
S1132F800E942018F886EF82C80162E771E00E946F
S1132F904718DF91CF911F910F91FF90EF90089503
S1132FA00E94291808950E944D150895FC01A781D7
S1132FB0B0852D913C91F90109950895DC0117968E
S1132FC0ED91FC9118970280F381E02D309709F080
S1132FD0099508950E941B180895E0917401F091D9
S1132FE075010995FC01009731F0828193819093DA
S1132FF0120E8093110ECF010895CF93DF93EC014D
S1133000E0917601F091770109952A813B81309313
S1133010120E2093110E21E030E0009711F420E00D
S113302030E0C901DF91CF910895E0917801F091EA
S113303079010995089586E993E00E947224089520
S1133040FC017383628386E993E0BF010E94FD243F
S11330500895BC0186E993E00E94C4240895CF93A7
S1133060DF93EC0186E993E00E94762408C0828114
S113307093818C179D0739F0CF010E943C25E82FDE
S1133080F92F3097A1F7CF01DF91CF9108950F93D6
S11330901F93CF93DF938B010E942F18EC010097AD
S11330A031F01D830C83C8010E9415188E83DF91B3
S11330B0CF911F910F910895FC0120E030E004C0EE
S11330C08181280F311D329680818823C9F7C90177
S11330D00895FC01818190E0308120E0822B932BC4
S11330E002C0880F991F6A95E2F7892F9927FA0180
S11330F0E658FE4F208130E08223932328E030E01D
S1133100241B350B02C0969587952A95E2F70895FE
S11331106F927F928F929F92AF92BF92CF92DF92E3
S1133120EF92FF920F931F93CF93DF936C017B0178
S11331305A0189012830310544F4CB01BA01A901AF
S11331400E946918F601808341C0390133E0759407
S113315067943A95E1F74115510521F04C01C0E01F
S1133160D0E016C0DB01FC01C0E0D0E08D9181937A
S11331702196C615D705D4F3A801477050704115A0
S1133180510521F1C7018C0F9D1F60E070E019C04B
S1133190C7018C0F9D1FB50148E050E00E946918DB
S11331A0F40181934F012196C615D7058CF3A8012C
S11331B0477050704115510549F0C7018C0F9D1F90
S11331C0B5010E946918CC0DDD1D8883DF91CF9174
S11331D01F910F91FF90EF90DF90CF90BF90AF9031
S11331E09F908F907F906F9008954F925F926F920F
S11331F07F928F929F92AF92BF92CF92DF92EF9283
S1133200FF920F931F93DF93CF9300D000D0CDB7DD
S1133210DEB70E94CC28E82E092F82E090E00E94BD
S1133220A828009709F473C0EE2DF02F918180E057
S11332302081820F911D0E942F187C01009709F4B0
S113324068C00E94CC283C01D70116964C91169771
S1133250242F30E02770307081E090E02115310593
S113326011F480E090E0469546954695840F911DB3
S11332700E94A828009709F44AC0F7010481158127
S1133280CC24DD24F3E04F2E512C4C0E5D1E4E0158
S11332900894811C911C36C0D8011196AC901197EA
S11332A0BB24B601E3E075956795EA95E1F7660DF1
S11332B0771DA60147705070883178F0C4019501DC
S11332C00E948818F801808190E0880F991F895224
S11332D0924FB4010E94A31411C01C821B82C2012C
S11332E095010E948818D801EC91F0E0EE0FFF1FC1
S11332F0E15FF14F8B819C8191838083CA0CDB1C3D
S11333000E5F1F4FF8018081882331F602C0EE243E
S1133310FF24C7010F900F900F900F90CF91DF9172
S11333201F910F91FF90EF90DF90CF90BF90AF90DF
S11333309F908F907F906F905F904F900895FC01C5
S113334050E080E190E0861B970B821B930B02C038
S1133350440F551F8A95E2F78081852B80838181F4
S1133360842B818308956F927F928F929F92AF9264
S1133370BF92CF92DF92EF92FF920F931F93CF935E
S1133380DF938C015B016A0179012830310524F453
S1133390C801FA01408156C03901A3E075946794CD
S11333A0AA95E1F76115710521F04A01C0E0D0E06A
S11333B021C0DA01F80180E090E02D91219301967B
S11333C086159705D4F397012770307021153105C0
S11333D0D9F1F601E80FF91F408150E068E070E090
S11333E0621B730B02C0559547956A95E2F7800FEF
S11333F0911F26C0F40141914F01C8018C0F9D1FFC
S1133400B50128E030E00E949F192196C615D70522
S11334108CF397012770307021153105A9F0F6015E
S1133420EC0FFD1F408150E0C5010896821B930BF1
S113343002C0559547958A95E2F7C8018C0F9D1FE8
S113344060E070E00E949F19DF91CF911F910F916E
S1133450FF90EF90DF90CF90BF90AF909F908F90B0
S11334607F906F9008958F929F92AF92BF92CF9268
S1133470DF92EF92FF920F931F93DF93CF9300D0CD
S1133480CDB7DEB78C01DC0116964C911697842FCC
S113349090E08770907021E030E0009711F420E014
S11334A030E04695469546957901E40EF11CC70136
S11334B002960E943429009709F455C00E94D4282A
S11334C0FC01D80112968C911297808313968C91EB
S11334D081830E94D42842E0A42EB12CA80EB91EE8
S11334E0C50160E070E0A7010E944C35F801E4805A
S11334F0F58000E010E04E010894811C911C2CC062
S1133500D7011196CC901197DD24C80133E095952D
S113351087953A95E1F78A0D9B1DB8016770707025
S1133520422F50E0283128F0440F551F4952524F82
S11335300AC0FA01EE0FFF1FE15FF14F20813181D4
S11335403A832983A40196010E94B3190C0D1D1D11
S1133550E2E0F0E0EE0EFF1ED7012C91222381F66B
S113356021E030E002C020E030E0C9010F900F906C
S1133570CF91DF911F910F91FF90EF90DF90CF904B
S1133580BF90AF909F908F90089580919803882367
S113359061F08091AB03882341F481E08093AB0315
S11335A0E0912602F09127020995089580919803ED
S11335B0882379F08091AB03882359F080919F038D
S11335C0882339F41092AB03E0912802F091290288
S11335D0099508958091AA03882331F48091A90361
S11335E0882311F40E94D61A089510929803009724
S11335F031F0E0912602F091270209950895E091B7
S11336002802F09129020995089580E190E0089537
S11336100F931F9381E080939803609188007091C9
S113362089008091850190918601680F791F89E94D
S113363093E041E050E02DE33BE100E010E00E9424
S1133640022881E090E01F910F9108950F931F933A
S11336509B0140919803442369F0FC0160817181CE
S1133660620F731F41E050E02DE33BE100E010E006
S11336700E9402281F910F910895CF93DF93EC01CC
S113368080919F038823D1F08091880090918900D4
S11336902091A0033091A103821B930B97FD0EC0D0
S11336A010929F0382EA93E069E571E00E94A314FB
S11336B084EA93E069E571E00E94A3148091A60373
S11336C09091A70321E08533920721F121E084340E
S11336D0920719F0009709F04CC08091A803882341
S11336E029F08091A80381508093A8038091AA03B4
S11336F0882331F48091A903882311F40E94C51A08
S11337006091830170918401CE010E94261B85E3A0
S113371091E029C080918501909186010097E9F29A
S1133720E0912202F091230209950097B1F60E94DC
S1133730EA1A8091A903882369F08091A9038F5F15
S11337408093A9038091A903833020F01092A903E8
S11337500E94EA1A6091850170918601CE010E944F
S1133760261B84E491E09093A7038093A60381E051
S113377005C01092A7031092A60383E0DF91CF91B6
S113378008950F931F93CF93DF93E091AB01F091D2
S1133790AC01099597FD7CC00E94CC28FC01808176
S11337A0882309F456C01092A80389E09EE06CEBCC
S11337B07DE00E94AC14009749F489E09EE069E53D
S11337C071E00E94AC14009709F462C00E94D61AFA
S11337D00EEA13E0C0E0D0E0F801808190E020918F
S11337E0290E30912A0E2817390771F4BE01660F8D
S11337F0771F6C0F7D1F64557C4F87E09EE00E940D
S1133800AC14009709F044C021960D5F1F4FC830D7
S1133810D10511F781EC93E0DC01FC01339723E03F
S113382001900D922150E1F70397F3E08C3A9F0742
S113383099F72091290E2093AE0367E07EE00E9461
S1133840A3141092A903E091B801F091B90109956C
S11338501FC081818031E1F482E08093A80389E074
S11338609EE06CEB7DE00E94AC14009721F081E0B7
S11338708093A9030DC089E09EE069E571E00E9490
S1133880AC14009729F081E08093A9030E94C51A23
S1133890DF91CF911F910F9108950F931F93DF93A1
S11338A0CF9300D000D00F92CDB7DEB7009188003F
S11338B01091890081E00E94741400951095809104
S11338C0880090918900800F911F97FDF8CF81E0C7
S11338D00E947C14E0912202F09123020995009742
S11338E071F4E0912402F09125020995009739F4CE
S11338F0E0912002F091210209950097C9F42091EA
S11339008800309189008091880090918900079700
S1133910821B930B97FDF7CFE0911E02F0911F02DB
S1133920CE01019663E070E009958330910561F062
S113393080E090E00F900F900F900F900F90CF9138
S1133940DF911F910F91089584E00E948D1481E00E
S1133950F0CF2F923F924F925F926F927F928F920D
S11339609F92AF92BF92CF92DF92EF92FF920F930A
S11339701F93DF93CF93CDB7DEB7E6970FB6F894D6
S1133980DEBF0FBECDBF9CAB8BAB7EAB6DAB80916E
S1133990A8038823B1F08091FA0D9091FB0DA091BA
S11339A0FC0DB091FD0D0196A11DB11D8093FA0D82
S11339B09093FB0DA093FC0DB093FD0D41E050E0FE
S11339C092C187E09EE06CEB7DE00E94A31489E045
S11339D09EE069E571E00E94AC144C0181E090E046
S11339E09093260E8093250EE091A901F091AA01EF
S11339F009957C0197FD6CC142E0442E512C480E80
S1133A00591E83E3481651040CF062C10E94D42865
S1133A10BC018E010F5F1F4FC801A7010E944335EF
S1133A20F801EE0DFF1D1082FE01EE0DFF1D80E179
S1133A3082830E94E9280E94022A5C01009709F40B
S1133A404AC180919F03813081F489E09EE062EA5B
S1133A5073E00E94AC14009759F489E09EE064EA94
S1133A6073E00E94AC14009719F4CC24DD2403C045
S1133A7031E0C32ED12C80912B0E90912C0E8230EC
S1133A80910531F581E080939F0382EA93E069E533
S1133A9071E00E94AC14009719F082EA93E00AC026
S1133AA082EA93E069E07EE00E94AC14009731F46E
S1133AB084EA93E069E07EE00E94A3148091880088
S1133AC090918900805E934E9093A1038093A0030C
S1133AD00E94D61A84EC93E00E947624082F192FB2
S1133AE024E8E22E23E0F22E2BC0B8016E5F7F4F54
S1133AF089E09EE00E94AC140097E9F020918800D0
S1133B0030918900F80184819581821B930BB70160
S1133B100E94D1348A35910510F484E893E02A5543
S1133B203040280F391F8091880090918900821BB2
S1133B30930B97FDF8CFC8010E943C25082F192F3D
S1133B400115110591F691E0E92EF12C81149104EF
S1133B5011F4EE24FF2481E08093AA0320908800CE
S1133B6030908900C114D10409F04FC00E943F3243
S1133B70009188001091890060901C0270901D02D1
S1133B806E010894C11CD11C2AC0809188009091B8
S1133B908900821B930B801B910B97FDF6CF00913C
S1133BA0880010918900E114F10469F0C5010E94B4
S1133BB07E2A0E94D4284C010E942829BC01C401F9
S1133BC0F30109950AC00E94C51AC601B201F301A6
S1133BD009950E944D1C0097A9F40E94D61A809161
S1133BE08800909189002091870130918801821981
S1133BF09309821B930B97FF08C020918901309190
S1133C008A01C3CF8824839401C08824C5010E94FB
S1133C107E2AC5010E945C2AE114F10431F4882053
S1133C2021F480919F038823A1F0C0901C02D090BE
S1133C301D020E94D4288C010E942829BC01C801BD
S1133C40F6010995E114F10421F40E944D1C00973A
S1133C5011F4CC2402C0CC24C3940E94D61A882028
S1133C6069F180919F03882349F584EC93E00E94D5
S1133C70762410C0B8016E5F7F4F89E09EE00E94F9
S1133C80AC14009721F0F8011582148217C0C80102
S1133C900E943C25082F192F0115110559F744C01E
S1133CA0C801029669E07EE00E94A314F80115821F
S1133CB0148284EC93E0B8010E94FD240E94333204
S1133CC01092AA03E114F10449F4CC2039F409C098
S1133CD045E050E008C044E050E005C040E050E05A
S1133CE002C042E050E08BA99CA96DA97EA921E005
S1133CF030E00E94E11EE6960FB6F894DEBF0FBED8
S1133D00CDBFCF91DF911F910F91FF90EF90DF9086
S1133D10CF90BF90AF909F908F907F906F905F9067
S1133D204F903F902F90089581EA91E00E940A24D9
S1133D308C01009709F0B4CFC1CF0F931F93CF9399
S1133D40DF938C01EB014115510549F0FA018281A1
S1133D5093810E947E2AC801BE010E94A91CDF91A2
S1133D60CF911F910F9108950F931F931092AB035E
S1133D701092A9031092A7031092A60360918800E1
S1133D80709189008091850190918601680F791F57
S1133D9089E993E041E050E02DE33BE100E010E0ED
S1133DA00E94022881E08093980384EC93E00E94AF
S1133DB0722481EA91E00E94EA231F910F910895F1
S1133DC00895FC01CB01309719F0BA01A9010995B6
S1133DD008950F931F93DF93CF93CDB7DEB7E0978A
S1133DE00FB6F894DEBF0FBECDBF0E941E298C0112
S1133DF00E94CC28602FAE014F5F5F4F0E94B33307
S1133E00882309F447C088A99801281B3109C901EE
S1133E100E94A8280097F1F12E81222331F18A858E
S1133E209B853BEA8D3C930721F03FEF8F3F93073F
S1133E3089F5223041F088E090E007C00197229193
S1133E402F3F41F00BC082E090E0FE01E80FF91F24
S1133E503C96F4CF181619068CF307C089E09EE04F
S1133E60BE01645F7F4F0E94A31487E09EE0BE0101
S1133E706A5E7F4F0E94A3148B818093330E10924D
S1133E80340E89858093290E10922A0E88A9081B66
S1133E90110902C00FEF1FEFC801E0960FB6F894A6
S1133EA0DEBF0FBECDBFCF91DF911F910F9108955B
S1133EB0DF92EF92FF920F931F93DF93CF93CDB7CF
S1133EC0DEB7E0970FB6F894DEBF0FBECDBFFE019C
S1133ED0319680E3DF011D928A95E9F78091E20330
S1133EE0882339F481E08093E2030E944028809380
S1133EF0E30381E089831A828091330E8B8389E006
S1133F009EE069E571E00E94AC14009711F01C82F8
S1133F1003C08091250E8C831D821F828091230E05
S1133F209091240E009711F089870BC08091E303D0
S1133F308987982F9F5F9093E3038093230E1092B9
S1133F40240E02E008878DEC9BEA9B878A8789E030
S1133F509EE069E571E00E94AC14009729F00E839D
S1133F608FEF8C878D8707C0CE010C9669E07EE0C9
S1133F700E94A3140E838DEC9BEA9D8B8C8BCE0147
S1133F8046966CEB7DE00E94A3140E94CC289FA768
S1133F908EA70E941E2988AB7E010894E11CF11CA7
S1133FA0C7010E94AA32D82E082F10E0C8010E942F
S1133FB03429009741F00E94D428BC01C7014D2D3B
S1133FC00E94C83202C00FEF1FEFC801E0960FB67F
S1133FD0F894DEBF0FBECDBFCF91DF911F910F913B
S1133FE0FF90EF90DF900895E0919F01F091A00180
S1133FF009959C01009711F420E130E0C90108956E
S1134000E0916401F091650109950895E0919B01A7
S1134010F0919C0109950895E0919D01F0919E0114
S113402009950895E0919F01F091A001309719F04E
S113403009959C0102C020E030E0C9010895EF9287
S1134040FF92CF93DF93E82EE7017E01F92EE7017B
S1134050209779F0898D9A8D0E947624AC0100977F
S113406041F0E0919701F09198018BE691E2B7015C
S11340700995DF91CF91FF90EF900895AF92BF9291
S1134080CF92DF92EF92FF920F931F93CF93DF9320
S11340906C017B018091E4039091E5039C012F5F07
S11340A03F4F3093E5032093E4039093240E8093D1
S11340B0230E89E09EE069E571E00E94AC1400974C
S11340C009F0A0C086EE93E00E947624292FA82E42
S11340D0E5010EC0CE01029669E07EE00E94AC14B8
S11340E0009711F5CE010E943C25292FA82FED0140
S11340F05E01B22EE501209769F78CC0CE010296CD
S113410069E07EE00E94A3141C8A1D8A1E8ACE01E7
S113411047969A8F898F188E1F8A0E94722486EE82
S113412093E0BE010E94FD2488EC91E00E940A24E1
S11341308C01009709F44DC080ED91E00E940A249F
S1134140D80115969C938E9314970097E9F10E94D9
S1134150022AF801938382830480F581E02D00977D
S113416071F18091210E9091220E009709F483E061
S11341708483D182C082F382E28220912B0E30911B
S11341802C0E898D9A8D2130310521F4B8010E94BD
S1134190E92403C0B8010E94FD24898D9A8D0E94F0
S11341A076248017910709F042C0CE01049660E09E
S11341B070E04FE150E29E010E943B2738C080ED41
S11341C091E0BF010E94302488EC91E0B8010E9484
S11341D03024898D9A8D0E941C25009751F486EE17
S11341E093E0BE010E94C42480EC91E0BE010E94D1
S11341F03024C601B70144E050E021E030E00E94E1
S1134200E11E15C0E0919501F0919601C601B70138
S113421009950DC080EC91E00E940A24A82EE501C6
S11342205E01B92EE501209709F068CFE2CFDF9156
S1134230CF911F910F91FF90EF90DF90CF90BF909F
S1134240AF9008950F931F93CF93DF93EC01898D63
S11342509A8D0E9476248C010097C1F1FC01828121
S113426093810E945C2A898D9A8D0E94B724F8015B
S11342706481758180ED91E00E94302488EC91E0A6
S1134280B8010E943024898D9A8D0E9476248E0173
S11342900C5F1F4F009769F01C8A1D8A1E8A0E94BA
S11342A0F41FBC01C8014FE150E29E010E943B276C
S11342B00DC0C8010E94C22786EE93E0BE010E9491
S11342C0C42480EC91E0BE010E943024DF91CF91A0
S11342D01F910F9108954F925F926F927F928F92E8
S11342E09F92AF92BF92CF92DF92EF92FF920F9381
S11342F01F93CF93DF938B01E82EE7017E01F92E04
S1134300E701898D9A8D0E9476242C01FC01E480BA
S1134310F5800130110591F00230110524F40115E6
S1134320110541F012C00230110521F003301105CE
S113433061F408C08C898F5F8C8B07C08D898F5F77
S11343408D8B03C08E898F5F8E8BF701C080D180E7
S1134350A280B3807C88C80101978230910568F5FA
S11343600E94F41F4C016C880E9440283C89F7018C
S11343702481321710F5262D30E02F5F3F4F243073
S1134380310514F023E030E0829EB001839E700D6D
S1134390929E700D11240E94D134BC01680D791DC8
S11343A0CE0104964FE150E29E010E943B27F201A8
S11343B0828193810E94512A0AC0CE010E94222147
S11343C0C601B501A801272D30E00E94E11EDF914E
S11343D0CF911F910F91FF90EF90DF90CF90BF90FE
S11343E0AF909F908F907F906F905F904F900895C3
S11343F088EC91E00E94EA2380ED91E00E94EA2398
S113440080EC91E00E94EA2308951F93CF93DF93F9
S1134410EC01162F8E8180FF1DC0EA81FB8130974D
S1134420C9F0D0938B04C0938A0482E08E83CE01BA
S113443004960995992787FD9095029782309105F6
S113444010F0133829F4CE01BE010E942E2202C0BE
S113445081E08E83DF91CF911F910895CF92DF92F7
S1134460EF92FF920F931F93CF93DF93EC017B01A5
S1134470C0908A04D0908B04009188041091890420
S1134480F80103C00190F081E02DEC17FD0719F04D
S11344903097C1F746C0209709F443C08E81882322
S11344A009F11E820BC0C017D10729F0C80167E8C3
S11344B0AE010E940522F801008111810115110548
S11344C091F7EA81FB81309769F0CE15DF0551F051
S11344D0D0938B04C0938A04CE01049663E840E031
S11344E050E00995E0918804F0918904CE17DF0724
S11344F091F48881998190938904809388040DC0F4
S1134500808191818C179D0729F4888199819183F9
S1134510808303C0FC01309799F7D0928B04C0923A
S11345208A04DF91CF911F910F91FF90EF90DF905C
S1134530CF9008951F93CF93DF9310928C04C09172
S11345408804D091890411E00EC08F81882341F042
S11345501E831F82CE0162E840E050E00E940522E3
S11345600990D881C02D209781F7DF91CF911F91B9
S113457008958091BF04982F9F5F9093BF0408957E
S113458060918A0470918B040E942E2208958AE817
S11345908093BF0410928E0410928D041092060E24
S11345A0109289041092880410928B0410928A0449
S11345B0089580918C04882311F00E949A227091AE
S11345C08D04772309F455C020918E0430E0F9015D
S11345D0EE0FFF1FEE0FFF1FE20FF31FE157FB4F1C
S11345E060816093BE04418152815093BD04409325
S11345F0BC04838194819093BB048093BA042F5F9D
S11346003F4F2770307020938E04715070938D0447
S1134610009741F5809188049091890418C0809195
S11346208C04882311F00E949A224091BC0450917A
S1134630BD048091B8049091B9046091BE040E94B5
S11346400522E091B804F091B9048081918190939E
S1134650B9048093B8048091B8049091B904009788
S1134660F1F607C0613819F421E0FC0126830E94A9
S1134670052280918C0420918D0430E0280F311D97
S1134680C901089580918C0420918D0430E0280F95
S1134690311DC901089570918D04783001F1209184
S11346A08E04270F27702093B70430E0F901EE0F32
S11346B0FF1FEE0FFF1FE20FF31FE157FB4F608355
S11346C05283418394838383872F8F5F80938D04E8
S11346D09091060E981730F48093060E03C021E0E3
S11346E030E002C020E030E0C9010895CF93DF93A9
S11346F0C0918A04D0918B040E940522D0938B042C
S1134700C0938A04DF91CF910895FC01AB0190918D
S11347108804809189049C01A32FB22F03C00D90BB
S1134720BC91A02DAE17BF0791F01097C1F7309739
S113473071F090838183F0938904E093880481E08D
S1134740868315821482CF0161E80E94762308953E
S1134750FC01009741F086818150823020F481E091
S1134760878380938C04089521E030E0FC018681E6
S1134770882311F420E030E0C9010895EF92FF92FC
S1134780CF93DF93E82EE7017E01F92EE70104C001
S113479060E070E00E948523899199910097C1F7A8
S11347A0DF91CF91FF90EF900895EF92FF92CF9316
S11347B0DF93E82EE7017E01F92EE70102C00E9493
S11347C0C022899199910097D1F7DF91CF91FF9001
S11347D0EF900895CF93DF93EC014A815B818C8144
S11347E09D8160E070E00E944C354A815B81888144
S11347F09981489F9001499F300D589F300D112495
S11348008E819F8160E070E0A9010E944C35DF91A8
S1134810CF910895FC018281938120E030E019C09A
S1134820A481B581A20FB31F4C91442381F481E08C
S11348308C9340815181249FC001259F900D349F0A
S1134840900D112426813781280F391F07C02F5F4F
S11348503F4F2817390720F320E030E0C9010895BD
S1134860FC01268137814281538180E090E018C0A9
S11348702617370781F4A481B581A80FB91F2C919D
S1134880121614F421502C930480F581E02DE80FC6
S1134890F91F80810895A081B1812A0F3B1F0196E1
S11348A08417950728F38FEF0895FC01CB01268127
S11348B037816217730790F0A081B181628173819F
S11348C0A69FA001A79F500DB69F500D1124420F23
S11348D0531F21E030E08417950710F020E030E00A
S11348E0C9010895FC01118210820895FC018081A0
S11348F091810895FB0120813181FC013183208362
S11349000895FC01208131812115310511F407C07E
S11349109C01F901808191810097D1F702C020E0C8
S113492030E0C9010895CF93DF93DC012D913C91D0
S1134930119721153105A9F0F90180819181009722
S113494029F411961C921E920EC0F9012081318126
S1134950D9018D919C9111970097B9F7118210821A
S113496002C020E030E0C901DF91CF910895DC015D
S1134970ED91FC911197309729F0808191811196E6
S11349809C938E93CF010895CF93DF93FC01A08174
S1134990B1811097D9F0C0E0D0E016C0A617B707D0
S11349A071F48D919C911197209719F491838083D0
S11349B002C09983888311961C921E9207C0ED0150
S11349C098818981A92FB82F109741F7DF91CF9152
S11349D008950F931F93CF93DF938C01EB010E94F3
S11349E0C424F8018081918199838883D183C08311
S11349F0DF91CF911F910F910895EF92FF920F9342
S1134A001F93CF93DF93EC017B010E94C424F70131
S1134A1011821082CE010E948124FC01009719F4B6
S1134A20E882F98202C0F182E082DF91CF911F9186
S1134A300F91FF90EF900895DC01ED91FC91119797
S1134A4020E030E005C02F5F3F4F0190F081E02D62
S1134A503097C9F7C9010895FB01309721F4BA01D1
S1134A600E94E9240895DA018081918111969C9332
S1134A708E93518340830895009721F0FC01208197
S1134A80318102C020E030E0C90108958091C00462
S1134A909091C104009729F41092C3041092C204A7
S1134AA008950E944513E091C004F091C10422814D
S1134AB0338140815181240F351F281B390B0CC0D1
S1134AC04281538160817181460F571F481B590BE6
S1134AD04217530708F49A010480F581E02D3097BA
S1134AE079F7280F391F3093C3042093C204089523
S1134AF088ED91E00E94A8230895CF92DF92EF926F
S1134B00FF920F931F93CF93DF937C01FC0180816D
S1134B109181009729F08A35910509F06EC00BC088
S1134B201092C1041092C0048AE590E0F7019183C9
S1134B30808381E066C0673849F5CA01E091C0040A
S1134B40F091C10403C00480F581E02D309741F356
S1134B502681378128173907B1F3E093C004F09315
S1134B60C1040FC016962D913C9117972817390749
S1134B7039F414962D913C91159735832483DF01E4
S1134B80FD01A481B581109769F7CECF623861F633
S1134B90C091C004D091C10400E010E02BC0CE014C
S1134BA00E949A340097F1F08E819F8168E8AE01EB
S1134BB00E944B230097A1F41F821E828C819D8149
S1134BC00115110521F0F8019583848304C09093A5
S1134BD0C1048093C0041D821C820E944625D8CF44
S1134BE00E9478258E019C818D81C92EE6016E017B
S1134BF0D82EE601209799F697CFF70111821082FB
S1134C0083E0DF91CF911F910F91FF90EF90DF90A0
S1134C10CF900895CF93DF93EC010E9478258E8185
S1134C209F81009769F0E091C004F091C10406C02F
S1134C30EC17FD07A9F00480F581E02D3097C1F74A
S1134C4080918A0490918B049F838E838091C00409
S1134C509091C1049D838C83D093C104C093C004FC
S1134C600E944625DF91CF910895CF93DF93EC0105
S1134C700E947A34CE010E940A26DF91CF910895D2
S1134C80CF93DF93EC010E948634CE010E940A2662
S1134C90DF91CF910895CF93DF93EC010E9490347C
S1134CA0CE010E940A26DF91CF910895FC018081F4
S1134CB09181860F971F918380830E9446250895D2
S1134CC021E030E0FC0186819781009711F020E01B
S1134CD030E0C9010895FC012281338180819181F2
S1134CE0280F391FC9010895FC018081918108951D
S1134CF021E030E08091C0049091C104009711F448
S1134D0020E030E0C90108958091C0049091C1046D
S1134D10009729F02091C2043091C30402C020E01E
S1134D2030E0C9010895CF93DF93EC01E091C00412
S1134D30F091C1048E179F0741F48C819D8190935B
S1134D40C1048093C00414C0FC01309731F0848105
S1134D5095818C179D07C1F707C01D821C821F8295
S1134D601E82DF91CF9108958C819D8195838483E8
S1134D700E944625F2CFCF92DF92EF92FF920F93DB
S1134D801F93CF93DF938C017A01FC018081918181
S1134D90009729F08B34910509F051C01EC085ECB1
S1134DA094E00E947624C82EE6017E01F92EE701E4
S1134DB009C06C817D81CE0102960E94352609903E
S1134DC0D881C02D2097A9F781E08093C4048BE497
S1134DD090E0F8019183808337C06838A9F585ECA9
S1134DE094E00E947624C82EE6016E01D92EE601D5
S1134DF023C0CE010296E816F906D9F485EC94E0B6
S1134E00BE010E94C424E0908A04F0908B048A8539
S1134E109B8590938B0480938A04EC85FD85309761
S1134E2019F08E859F850995F0928B04E0928A048F
S1134E30CECF0990D881C02D2097D9F6C8CFF801DC
S1134E401182108283E001C081E0DF91CF911F9134
S1134E500F91FF90EF90DF90CF9008951092C404CB
S1134E6085EC94E00E94722480EE91E060E070E0B2
S1134E700E94852308950F931F93CF93DF93EC0132
S1134E8000918A0410918B041B870A875D874C87E5
S1134E903F872E878091C404882379F080EE91E0C7
S1134EA090938B0480938A04CE0102960E94352647
S1134EB010938B0400938A0402C07D836C8385EC79
S1134EC094E0BE010E94C42485EC94E0BE010E94DB
S1134ED0FD24DF91CF911F910F9108950F931F939C
S1134EE0CF93DF93EC018091C404882391F0009167
S1134EF08A0410918B0480EE91E090938B0480934C
S1134F008A04CE0102960E94402610938B040093DB
S1134F108A0485EC94E0BE010E94C42485EC94E0EC
S1134F20BE010E94FD24DF91CF911F910F9108953E
S1134F300F931F93CF93DF93EC018091C4048823D4
S1134F4091F000918A0410918B0480EE91E090938B
S1134F508B0480938A04CE0102960E944B26109300
S1134F608B0400938A0485EC94E0BE010E94C4245F
S1134F7085EC94E0BE010E94FD24DF91CF911F9146
S1134F800F910895CF93DF93EC018091C40488239B
S1134F9029F0CE0102960E94932604C01F821E822D
S1134FA01986188685EC94E0BE010E94C424DF9122
S1134FB0CF910895CF93DF93EC018091C4048823AB
S1134FC031F0CE0102960E9460269C0114C085EC4B
S1134FD094E00E947624E82FF92F06C0EC17FD0711
S1134FE041F00190F081E02D3097C1F721E030E0ED
S1134FF002C020E030E0C901DF91CF9108950E9402
S1135000FB3108950F931F93FC01CB014091C7041A
S11350105091C8043383228315830483718360838E
S1135020F093C804E093C7044115510511F40E949C
S1135030173280E090E01F910F9108958091C7048A
S11350409091C8040097C1F01092C8041092C7044C
S1135050DC0114966D917C9115971296ED91FC915B
S113506013970995E091C704F091C804309721F093
S1135070808191810E94173208950E9438350895E5
S11350800E943335089580E38093C9040895EF9214
S1135090FF92CF93DF932091C90430E0C0E3D0E0C6
S11350A0C21BD30B22533B4FB901AE010E944335BF
S11350B0CE01DF91CF91FF90EF900895AF92BF9210
S11350C0CF92DF92EF92FF920F931F93CF93DF93D0
S11350D07C01C090CA04D090CB042091C90430E074
S11350E08601005D1F4F021B130B01381105E0F40C
S11350F0C0E3D0E0C21BD30B22533B4FB901AE0136
S11351000E944335CE0DDF1D2091CC043091CD0497
S11351108091800590918105280F391FCE01B90136
S1135120A6010E94433502C000E010E0C801DF91EF
S1135130CF911F910F91FF90EF90DF90CF90BF9090
S1135140AF9008959091C904980F9093C90408955D
S11351504091CA045091CB049C014817590798F018
S11351608091800590918105820F931F9093810512
S113517080938005421B530B5093CB044093CA0485
S113518021E030E002C020E030E0C90108959093AE
S1135190CB048093CA040895209180053091810541
S11351A022503B4FC90108952091C90430E0225395
S11351B03B4FC901089521E030E08091CC049091E7
S11351C0CD0444E08E3F940711F420E030E0C9019F
S11351D008950E94DB28009771F02EEF34E060916F
S11351E0CC047091CD044091CA045091CB04C90100
S11351F00E9443350895A0918005B09181051097D0
S1135200B9F02091CA043091CB04205D3F4FA250E5
S1135210BB4FEEEFF4E080E390E003C04D91419387
S1135220019682179307D4F310928105109280059A
S113523008958091CC049091CD0408958091CA047E
S11352409091CB0408959091C90480E3891B08953B
S113525080E39091C904891B2091CA043091CB0446
S1135260280F311DC90108951F93CF93DF93EC01DB
S11352701091C904812F90E08C179D076CF00E9457
S113528028298C0F9D1F8138910530F41C1B109325
S1135290C90421E030E002C020E030E0C901DF9120
S11352A0CF911F910895CF93DF93EFE0FEE0119229
S11352B011928EE0EF33F807D1F7C0E0D0E0CE01D1
S11352C0880F991F895F914F69E571E00E94A314CB
S11352D02196C430D10599F7DF91CF9108951092AA
S11352E08105109280051092CB041092CA0480E3C9
S11352F08093C9048EEF94E09093CD048093CC0402
S11353000E94532908950F931F93CF93DF93EC01C9
S11353108B010E946F29D093CD04C093CC041093C9
S1135320CB040093CA04DF91CF911F910F9108958C
S1135330CF92DF92EF92FF920F931F93DF93CF935D
S113534000D0CDB7DEB78C0169837A830E946F29C0
S113535069817A81C62ED72E21E8C216D10418F0AD
S113536030E8C32ED12C8091CC049091CD04B801A7
S1135370A6010E944335D092CB04C092CA04C60150
S11353800F900F90CF91DF911F910F91FF90EF90AD
S1135390DF90CF900895282F392FD901EFE0FEE058
S11353A080E301900D928150E1F7862F972FDC0165
S11353B0E7E0FEE088E001900D928150E1F7089566
S11353C0EFE0FEE0282F392FD90180E30D90019200
S11353D08150E1F7A7E0BEE0862F972FFC0188E01B
S11353E001900D928150E1F7089588EF91E00E94B9
S11353F0EA2388EE91E00E94EA2380EF91E00E9484
S1135400EA230895EF92FF920F931F93CF93DF93B4
S11354100E94DB280097C9F080EF91E00E940A24E3
S1135420E82EE7017E01F92EE701209791F10E9411
S11354301E29998388830E9419299B838A83C70123
S113544004960E9447288CAB24C088EE91E00E9409
S11354500A24EC017E01F92EE7012097D1F088EFB0
S113546091E00E940A248C0199838883009779F043
S113547002960E945E28F80191838083B8016E54DD
S11354807F4FC8018E579F4F0E94CB2902C0C0E0B6
S1135490D0E0CE01DF91CF911F910F91FF90EF905B
S11354A00895FC0180819181BC016E547F4F8E5719
S11354B09F4F0E94CB290895CF93DF93EC0188EE90
S11354C091E0BE010E945524009749F068817981DA
S11354D088EF91E00E94302488EE91E009C080EFCB
S11354E091E0BE010E945524009729F080EF91E0DD
S11354F0BE010E943024DF91CF910895EF92FF9274
S1135500CF93DF93EC0188EE91E0BE010E94552415
S1135510009791F00990D881C02D68817981CE01DE
S113552002960E949829BE016E547F4FCE018E5779
S11355309F4F0E94E0291BC080EF91E0BE010E94B2
S113554055240097A1F00E946F29688179818A818E
S11355509B810E9498298CA990E00E9434290E9482
S1135560D4284CA92496BE0150E00E944335DF9113
S1135570CF91FF90EF900895CF93DF93EC0188EEE5
S113558091E0BE010E945524009729F028813981B9
S11355902E5F3F4F0CC080EF91E0BE010E94552466
S11355A0009719F02A813B8102C020E030E0C90154
S11355B0DF91CF910895DC01ED91FC9111978081E9
S11355C09181089570E06F5B7F4F660F771FFC0138
S11355D020813181260F371FC9010895DC01ED9127
S11355E0FC91119770E06F5B7F4F660F771FE60F9A
S11355F0F71F80819181089508951F920F920FB62D
S11356000F920BB60F9211242F933F934F935F93F6
S11356106F937F938F939F93AF93BF93EF93FF9376
S11356208CB1E091410EF091420E309709F009954A
S1135630FF91EF91BF91AF919F918F917F916F9166
S11356405F914F913F912F910F900BBE0F900FBE22
S11356500F901F9018951F920F920FB60F920BB6D2
S11356600F9211242F933F934F935F936F937F93E4
S11356708F939F93AF93BF93EF93FF9380919C007D
S1135680E0913F0EF091400E309709F00995FF919B
S1135690EF91BF91AF919F918F917F916F915F91A6
S11356A04F913F912F910F900BBE0F900FBE0F9013
S11356B01F901895882361F41092900069B988E9C5
S11356C08AB9409395001092420E1092410E0895AB
S11356D0813069F4109298006093990088E980936E
S11356E09A0040939D001092400E10923F0E089530
S11356F0882321F45D9BFECF6CB90895813031F489
S113570080919B0085FFFCCF60939C0008951F93BC
S1135710182F8A3031F48091DE0B6DE00E94782BD3
S113572002C08D3029F08091DE0B612F0E94782B0E
S113573080E090E01F910895882329F47093420E2D
S11357406093410E0895813021F47093400E60936C
S11357503F0E0895EF92FF921F93CF93DF93182F7C
S1135760E62EE7017E01F72EE7010CC08A3021F412
S1135770812F6DE00E94782B69916D3019F0812F93
S11357800E94782B8881882389F7DF91CF911F911C
S1135790FF90EF900895682F80E00E94782B089581
S11357A08093DE0B80E092E09093570E8093560E28
S11357B008958AB387608ABB8BB387608BBB0895D7
S11357C0DA9B02C090E001C094E081E0D99980E0C6
S11357D0892BD89B02C090E001C092E0892B0895E8
S11357E02BB3287F82FF02C040E001C044E080FF69
S11357F002C030E001C032E051E081FD50E0252BD1
S1135800242B232B2BBB0895C0988FB9779BFECFF5
S1135810C09A0895C0981FB8779BFECF8FB1C09AE5
S113582090E00895CF93DF9389B7806489BF83E0C4
S113583090E00E94042CC0918800D09189000E94BD
S11358400A2C86FD0AC080918800909189008854B2
S113585090408C1B9D0B97FDF2CF81E08093E00B71
S1135860DF91CF910895C09880648FB9779BFECF64
S11358708FB11FB8779BFECF2FB1922F80E01FB856
S1135880779BFECF2FB1C09A30E0282B392BC9016A
S11358900895C0988FB9779BFECF7FB9779BFECFD1
S11358A06FB9779BFECF1FB8779BFECFC09A089540
S11358B01F93182F85E190E00E94332CBC01607E79
S11358C0812F90E08F719070682B792B85E190E0A7
S11358D00E94492C1F91089521E030E0849902C070
S11358E020E030E0C901089521E030E00E9902C0C3
S11358F020E030E0C9010895C0988FE78FB9779B05
S1135900FECF8FB11FB8779BFECF8FB181E090E0BF
S11359100E945213C09AC09888E08FB9779BFECF3B
S1135920C09AC09888E08FB9779BFECFC09A08953B
S1135930CF93DF931092E00BC0918800D09189003F
S11359400E940A2C83FF0AC08091880090918900EC
S1135950805D92408C1B9D0B97FDF2CF86E090E01A
S11359600E94042C89B78F7B89BF0E9902C00E94C4
S11359707C2CDF91CF9108958091DF0B813081F4ED
S11359808091E10B882321F00E94122C1092E10BEC
S11359908091E20B882321F00E94982C1092E20B54
S11359A08091DF0B81508093DF0B08950F931F9339
S11359B0CF93DF93EC018B018091DF0B8F5F80939A
S11359C0DF0B8091FE0D9091FF0DA091000EB09120
S11359D0010E0196A11DB11D8093FE0D9093FF0D44
S11359E0A093000EB093010E89E090E00E94042C75
S11359F0802F8E5FC0989EE39FB9779BFECF8FB9AF
S1135A00779BFECFC09AC0988EE38FB9779BFECF69
S1135A1020E008C08C0F9D1FFC0180818FB9779B0B
S1135A20FECF2F5F822F90E08017910798F3C09AE2
S1135A300E94BC2C80E090E0DF91CF911F910F91E8
S1135A4008958091E00B882379F48091DF0B8823FB
S1135A5021F081E08093E10B07C081E08093DF0BAC
S1135A600E94122C0E94BC2C81E090E008951F93A8
S1135A708091E00B8823B1F08091DF0B882321F023
S1135A8081E08093E20B0EC011E01093DF0B0E94C3
S1135A900A2C83FF03C01093E20B02C00E94982CCF
S1135AA00E94BC2C81E090E01F910895EF92FF9238
S1135AB00F931F93CF93DF938091DF0B8823D1F54E
S1135AC081E08093DF0B8091E00B882329F40E940E
S1135AD0212D01E010E002C000E010E08091E00B15
S1135AE0882341F40E94BC2C0115110519F10E9470
S1135AF0372D20C0C0918800D09189000E940A2CC3
S1135B0081FD0AC08091880090918900885490405A
S1135B108C1B9D0B97FDF2CFC1E0D0E0869902C0AB
S1135B20C0E0D0E00115110511F00E94372D0E944C
S1135B30BC2C02C0C1E0D0E0CE01DF91CF911F9117
S1135B400F91FF90EF900895C0982FE72FB9779B9E
S1135B50FECF2FB140E009C01FB8779BFECF2FB115
S1135B60FC01E40FF11D20834F5F242F30E0261742
S1135B70370794F381E090E00E945213C09A08958D
S1135B80DF92EF92FF920F931F93DF93CF9300D096
S1135B90CDB7DEB78C017B010E9BC7C01092E30B1F
S1135BA08091DF0B8F5F8093DF0B8091440E909187
S1135BB0450E01969093450E8093440EC0988FE74E
S1135BC08FB9779BFECF8FB11FB8779BFECFDFB025
S1135BD081E090E00E945213C09AD7FE16C00E9442
S1135BE07C2C8091EE0D9091EF0DA091F00DB09171
S1135BF0F10D0196A11DB11D8093EE0D9093EF0D53
S1135C00A093F00DB093F10D35C08D2D8330B0F419
S1135C100E947C2C8091EA0D9091EB0DA091EC0DEB
S1135C20B091ED0D0196A11DB11D8093EA0D9093E5
S1135C30EB0DA093EC0DB093ED0D1CC06D2D70E039
S1135C4062507040E616F706C0F40E947C2C8091E6
S1135C50E60D9091E70DA091E80DB091E90D019644
S1135C60A11DB11D8093E60D9093E70DA093E80D5F
S1135C70B093E90D0E94BC2C58C0C8010E94A42D09
S1135C80CE01019662E070E00E94A42D2A8127FFD4
S1135C9025C089818093430E2F7720934E0E992738
S1135CA087FD90959093180E8093170E2093150EF0
S1135CB01092160E8091020E9091030EA091040E84
S1135CC0B091050E0196A11DB11D8093020E909313
S1135CD0030EA093040EB093050E15C08091F20D2F
S1135CE09091F30DA091F40DB091F50D0196A11DC5
