S013000064656D6F5F73656E736F722E7372656373
S11300000C948C000C94AB000C94AB000C94AB00DF
S11300100C94AB000C94AB000C94AB000C949B1FA1
S11300200C94AB000C94AB000C94AB000C94AB00A0
S11300300C94AB000C94AB000C94AB000C9498089B
S11300400C94AB000C94AB000C9428060C94AB00FD
S11300500C94AB000C94AB000C94AB000C94AB0070
S11300600C94AB000C94AB000C94C31F0C94AB0029
S11300700C94AB000C94AB000C9456060C94AB009F
S11300800C94AB000C94AB000C94AB0025732025AE
S1130090732C206368616E6E656C20636865636BA6
S11300A0207261746520256420487A2C2072616472
S11300B0696F206368616E6E656C20256420284D2D
S11300C06963617A290A004D414320253032783A28
S11300D0253032783A253032783A253032783A254C
S11300E03032783A253032783A253032783A253031
S11300F032780A0025640A0025642E0052696D6571
S11301002073746172746564207769746820616413
S1130110647265737320000011241FBECFEFD0E119
S1130120DEBFCDBF11E0A0E0B1E0E8EBFEE400E00B
S11301300BBF02C007900D92AA3FB107D9F71BE08D
S1130140AAEFB1E001C01D92A731B107E1F70E9407
S11301500D070C945A270C94000008950E94FF0484
S11301602091FA013091FB012115310521F4FC01A4
S1130170808180936C0A08950F931F93DF93CF932C
S113018000D0CDB7DEB78C01FC018081918100974E
S113019029F08F32910509F0B5C025C082E092E0C4
S11301A062E970E04EE051E00E94C10160E072EC4F
S11301B081E090E00E948C0A80E490E00E94662234
S11301C0FC0190936B0A80936A0A82E480838FE037
S11301D092E06CE070E00E94F0038FE290E0F8019E
S11301E09183808394C08FE092E00E941B04009767
S11301F009F48DC08091FA019091FB010097A1F45C
S113020080E00E94BA0A80916C0A833501F783E585
S113021090E00E94F60681E090E09093FB018093C9
S1130220FA0110926C0AD3CF82309105B1F482E0C6
S11302300E94BA0A80910C0190910D0181309105C0
S113024019F48EE490E004C0009721F482E590E074
S11302500E94F60683E090E01AC084309105E1F430
S113026084E00E94BA0A80916A0A90916B0A60E461
S113027070E00E94CB0584E089831A8282E092E0D8
S1130280BE016F5F7F4F0E94DF0185E090E0909395
S1130290FB018093FA019BCF8530910529F580916C
S11302A0FC019091FD0101969093FD018093FC0166
S11302B085E00E94BA0A8091FC019091FD01181614
S11302C019067CF481E090E09093FF018093FE0195
S11302D01092FB011092FA011092FD011092FC01A0
S11302E076CF82E090E0D3CF8130910511F481E0A4
S11302F006C08330910511F483E001C080E00E94C0
S1130300BA0A65CFF8011182108283E001C081E04E
S11303100F900F90CF91DF911F910F91089599271E
S113032087FD90950E94F60681E090E00895DC0137
S11303301B96ED91FC911C970280F381E02D309780
S113034009F0099508950F931F93CF93DF938C01C0
S1130350EB018FE69AE061EB7AE00E94F20A0097E3
S113036059F0D8011B96ED91FC911C970190F081F6
S1130370E02DC801BE010995DF91CF911F910F9126
S11303800895EF92FF920F931F93CF93DF93EC01A5
S11303908B017A0142E151E00E94D00DFC86EB868C
S11303A0C80166E171E00E941802DF91CF911F91AC
S11303B00F91FF90EF9008950E94EB0D0895CF9355
S11303C0DF93EC018FE69AE00E94E90ACE010E94D5
S11303D0EE0DDF91CF91089587E192E00E942D0206
S11303E00895FC017383628387E192E0BF010E9458
S11303F0B8020895BC0187E192E00E947F0208954B
S1130400CF93DF93EC0187E192E00E94310208C0B0
S1130410828193818C179D0739F0CF010E94F702E6
S1130420E82FF92F3097A1F7CF01DF91CF910895ED
S11304300F931F93CF93DF938B010E940002EC0173
S1130440009731F01D830C83C8010E945B0E8E83DC
S1130450DF91CF911F910F910895FC0111821082B9
S11304600895FC01808191810895FB0120813181EF
S1130470FC01318320830895FC0120813181211501
S1130480310511F407C09C01F90180819181009725
S1130490D1F702C020E030E0C9010895CF93DF9383
S11304A0DC012D913C91119721153105A9F0F90139
S11304B080819181009729F411961C921E920EC09E
S11304C0F90120813181D9018D919C911197009777
S11304D0B9F71182108202C020E030E0C901DF9137
S11304E0CF910895DC01ED91FC911197309729F09B
S11304F08081918111969C938E93CF010895CF931F
S1130500DF93FC01A081B1811097D9F0C0E0D0E065
S113051016C0A617B70771F48D919C911197209777
S113052019F49183808302C09983888311961C9265
S11305301E9207C0ED0198818981A92FB82F1097C9
S113054041F7DF91CF9108950F931F93CF93DF93DA
S11305508C01EB010E947F02F801808191819983D3
S11305608883D183C083DF91CF911F910F91089528
S1130570EF92FF920F931F93CF93DF93EC017B01D4
S11305800E947F02F70111821082CE010E943C0278
S1130590FC01009719F4E882F98202C0F182E0823A
S11305A0DF91CF911F910F91FF90EF900895DC019F
S11305B0ED91FC91119720E030E005C02F5F3F4F93
S11305C00190F081E02D3097C9F7C9010895FB012E
S11305D0309721F4BA010E94A4020895DA018081BF
S11305E0918111969C938E93518340830895009733
S11305F021F0FC012081318102C020E030E0C901FA
S113060008958091190290911A02009729F410928A
S11306101C0210921B0208950E941009E091190215
S1130620F0911A022281338140815181240F351FB8
S1130630281B390B0CC04281538160817181460FA4
S1130640571F481B590B4217530708F49A0104809B
S1130650F581E02D309779F7280F391F30931C026C
S113066020931B0208958CE191E00E9428160895BE
S1130670CF92DF92EF92FF920F931F93CF93DF936A
S11306807C01FC0180819181009729F08A359105D4
S113069009F06EC00BC010921A02109219028AE57A
S11306A090E0F7019183808381E066C0673849F563
S11306B0CA01E0911902F0911A0203C00480F58185
S11306C0E02D309741F32681378128173907B1F39C
S11306D0E0931902F0931A020FC016962D913C91E3
S11306E017972817390739F414962D913C911597CB
S11306F035832483DF01FD01A481B581109769F757
S1130700CECF623861F6C0911902D0911A0200E08E
S113071010E02BC0CE010E9412170097F1F08E81D9
S11307209F8168E8AE010E94CB150097A1F41F8257
S11307301E828C819D810115110521F0F80195839C
S1130740848304C090931A02809319021D821C8230
S11307500E940103D8CF0E9433038E019C818D81B6
S1130760C92EE6016E01D82EE601209799F697CF9F
S1130770F7011182108283E0DF91CF911F910F91D5
S1130780FF90EF90DF90CF900895CF93DF93EC012B
S11307900E9433038E819F81009769F0E0911902D2
S11307A0F0911A0206C0EC17FD07A9F00480F58148
S11307B0E02D3097C1F78091C9039091CA039F83BC
S11307C08E838091190290911A029D838C83D09319
S11307D01A02C09319020E940103DF91CF91089578
S11307E0CF93DF93EC010E94F216CE010E94C50361
S11307F0DF91CF910895CF93DF93EC010E94FE1611
S1130800CE010E94C503DF91CF910895CF93DF936A
S1130810EC010E940817CE010E94C503DF91CF911D
S11308200895FC0180819181860F971F91838083B5
S11308300E940103089521E030E0FC018681978144
S1130840009711F020E030E0C9010895FC012281F5
S1130850338180819181280F391FC9010895FC01DA
S113086080819181089521E030E080911902909176
S11308701A02009711F420E030E0C9010895809134
S1130880190290911A02009729F020911B023091CD
S11308901C0202C020E030E0C9010895CF93DF9329
S11308A0EC01E0911902F0911A028E179F0741F4AE
S11308B08C819D8190931A028093190214C0FC01CB
S11308C0309731F0848195818C179D07C1F707C05B
S11308D01D821C821F821E82DF91CF9108958C811C
S11308E09D81958384830E940103F2CF80E38093EA
S11308F01D020895EF92FF92CF93DF9320911D0282
S113090030E0C0E3D0E0C21BD30B2E5D3D4FB901F4
S1130910AE010E94F723CE01DF91CF91FF90EF90BB
S11309200895AF92BF92CF92DF92EF92FF920F930E
S11309301F93CF93DF937C01C0901E02D0901F02BF
S113094020911D0230E08601005D1F4F021B130B36
S113095001381105E0F4C0E3D0E0C21BD30B2E5DD7
S11309603D4FB901AE010E94F723CE0DDF1D20914A
S11309702002309121028091D4029091D502280F57
S1130980391FCE01B901A6010E94F72302C000E07D
S113099010E0C801DF91CF911F910F91FF90EF906C
S11309A0DF90CF90BF90AF90089590911D02980F63
S11309B090931D02089540911E0250911F029C01C4
S11309C04817590798F08091D4029091D502820F6C
S11309D0931F9093D5028093D402421B530B5093E0
S11309E01F0240931E0221E030E002C020E030E00C
S11309F0C901089590931F0280931E0208952091C7
S1130A00D4023091D5022E5A3D4FC9010895209148
S1130A101D0230E02E5D3D4FC901089521E030E014
S1130A20809120029091210242E08235940711F4D2
S1130A3020E030E0C90108950E940E05009771F08E
S1130A4022E532E0609120027091210240911E0261
S1130A5050911F02C9010E94F7230895A091D40266
S1130A60B091D5021097B9F020911E0230911F0267
S1130A70205D3F4FAE5ABD4FE2E5F2E080E390E0E7
S1130A8003C04D914193019682179307D4F31092BA
S1130A90D5021092D40208958091200290912102EF
S1130AA0089580911E0290911F02089590911D0255
S1130AB080E3891B089580E390911D02891B209196
S1130AC01E0230911F02280F311DC90108951F9382
S1130AD0CF93DF93EC0110911D02812F90E08C17CE
S1130AE09D076CF00E945B058C0F9D1F813891055A
S1130AF030F41C1B10931D0221E030E002C020E002
S1130B0030E0C901DF91CF911F910895CF93DF9316
S1130B10E5E7FAE0119211928AE0E53AF807D1F795
S1130B20C0E0D0E0CE01880F991F8359954F60E44F
S1130B3071E00E94E90A2196C430D10599F7DF914A
S1130B40CF9108951092D5021092D40210921F02F0
S1130B5010921E0280E380931D0282E592E090933E
S1130B602102809320020E94860508950F931F930B
S1130B70CF93DF93EC018B010E94A205D093210255
S1130B80C093200210931F0200931E02DF91CF91A5
S1130B901F910F910895CF92DF92EF92FF920F93DE
S1130BA01F93DF93CF9300D0CDB7DEB78C01698359
S1130BB07A830E94A20569817A81C62ED72E21E804
S1130BC0C216D10418F030E8C32ED12C8091200233
S1130BD090912102B801A6010E94F723D0921F022E
S1130BE0C0921E02C6010F900F90CF91DF911F910A
S1130BF00F91FF90EF90DF90CF900895282F392F19
S1130C00D901E5E7FAE080E301900D928150E1F724
S1130C10862F972FDC01EDE6FAE088E001900D9233
S1130C208150E1F70895E5E7FAE0282F392FD9013B
S1130C3080E30D9001928150E1F7ADE6BAE0862F92
S1130C40972FFC0188E001900D928150E1F70895FF
S1130C501F920F920FB60F920BB60F9211242F937F
S1130C603F934F935F936F937F938F939F93AF9330
S1130C70BF93EF93FF938CB1E091A70AF091A80A78
S1130C80309709F00995FF91EF91BF91AF919F9132
S1130C908F917F916F915F914F913F912F910F9021
S1130CA00BBE0F900FBE0F901F9018951F920F92BE
S1130CB00FB60F920BB60F9211242F933F934F93BD
S1130CC05F936F937F938F939F93AF93BF93EF93B0
S1130CD0FF9380919C00E091A50AF091A60A3097B9
S1130CE009F00995FF91EF91BF91AF919F918F9179
S1130CF07F916F915F914F913F912F910F900BBE18
S1130D000F900FBE0F901F901895882361F41092D6
S1130D10900069B988E98AB9409395001092A80AAD
S1130D201092A70A0895813069F410929800609394
S1130D30990088E980939A0040939D001092A60A36
S1130D401092A50A0895882321F45D9BFECF6CB907
S1130D500895813031F480919B0085FFFCCF60932E
S1130D609C0008951F93182F8A3031F48091D60285
S1130D706DE00E94A30602C08D3029F08091D60256
S1130D80612F0E94A30680E090E01F9108958823BC
S1130D9029F47093A80A6093A70A0895813021F476
S1130DA07093A60A6093A50A0895EF92FF921F9389
S1130DB0CF93DF93182FE62EE7017E01F72EE7018C
S1130DC00CC08A3021F4812F6DE00E94A306699142
S1130DD06D3019F0812F0E94A3068881882389F73A
S1130DE0DF91CF911F91FF90EF900895682F80E0DD
S1130DF00E94A30608958093D60284E291E0909322
S1130E00140B8093130B089580E063E046E00E9486
S1130E10850680E00E94FB0608950E94B00A84E0E3
S1130E200E94BA0A0E9404070E94F40881E00E940A
S1130E30BA0A0E948A090E9449082091A90A80914D
S1130E40D7029091D802820F911D0E94C0180E946F
S1130E5082180E9447158CE191E060E070E00E94E6
S1130E6005160E94B11782E00E94BA0A0E94420746
S1130E7087E00E94C20A88E091E00E943E160E9428
S1130E805915FDCFCF92DF92EF92FF920F931F93EC
S1130E90DF93CF93CDB7DEB728970FB6F894DEBFB4
S1130EA00FBECDBF8091D7029091D802009739F43C
S1130EB08091B00A89838091AF0A8A8302C08983B2
S1130EC09A838E010F5F1F4FC8010E94040B00D04C
S1130ED08CEF90E0ADB7BEB712969C938E931197AA
S1130EE00E94072400D0EDB7FEB7319688EF90E05A
S1130EF0ADB7BEB712969C938E9311978981828366
S1130F0013820E940724EDB7FEB7319684EF90E078
S1130F10ADB7BEB712969C938E9311978A81828344
S1130F2013820E9407240F900F900F900F900E943D
S1130F30A91D9091B10A80E02091B20A7C01E20ED1
S1130F40F11C88E0F80111928A95E9F7C80161EB78
S1130F507AE00E94E90A8DB79EB742970FB6F894DB
S1130F609EBF0FBE8DBFEDB7FEB7319687EC90E004
S1130F70ADB7BEB712969C938E93119789818283E5
S1130F8013828A81848315828B81868317828C8164
S1130F90808711868D81828713868E81848715864A
S1130FA08F81868717868885808B118A0E94072403
S1130FB0EDB7FEB772960FB6F894FEBF0FBEEDBF45
S1130FC08DEC9BEAB701A8010E941F1D8AE190E005
S1130FD00E94CF1CE0917401F09175010995E09194
S1130FE08D01F0918E010995E0914901F0914A013A
S1130FF0099500918B0110918C01C0907201D090E1
S11310007301E0908001F0908101F7010995009748
S113101041F0F7010995BC0180E890E00E9452225A
S113102002C060E870E08DB79EB70A970FB6F894D7
S11310309EBF0FBE8DBFEDB7FEB731968CE890E032
S1131040ADB7BEB712969C938E9311971383028308
S1131050D582C482778366838AE190E09187808712
S11310600E940724EDB7FEB73A960FB6F894FEBF78
S11310700FBEEDBF28960FB6F894DEBF0FBECDBFEE
S1131080CF91DF911F910F91FF90EF90DF90CF9060
S11310900895DF93CF9300D000D00F92CDB7DEB781
S11310A08FB78983F89480E090E0BE016E5F7F4F34
S11310B044E050E00E94A00A8A819B812EED8D3A83
S11310C0920719F48C819D8102C080E090E0909396
S11310D0D8028093D70289818FBF0F900F900F9011
S11310E00F900F90CF91DF910895DF93CF9300D0AD
S11310F000D00F92CDB7DEB72DEA3EED3B832A83B5
S11311009D838C838FB78983F89480E090E0BE013F
S11311106E5F7F4F44E050E00E94980A89818FBF40
S11311200F900F900F900F900F90CF91DF91089533
S11311301F920F920FB60F920BB60F9211242F939A
S11311403F934F935F936F937F938F939F93AF934B
S1131150BF93EF93FF938091DD029091DE0201969D
S11311609093DE028093DD028091DF029091E00291
S113117001969093E0028093DF028091DF029091C8
S1131180E00280389105B9F41092E0021092DF0277
S11311908091D9029091DA02A091DB02B091DC0235
S11311A00196A11DB11D8093D9029093DA02A093F8
S11311B0DB02B093DC020E943304009711F00E941A
S11311C03303FF91EF91BF91AF919F918F917F91E5
S11311D06F915F914F913F912F910F900BBE0F90A4
S11311E00FBE0F901F901895F89487B78C7F87BF18
S11311F080B7886080BF8BE083BF12BE88E081BF68
S113120016BE80B790E0877090700097D1F787B7CB
S1131210826087BF1092DE021092DD0278940895F6
S11312202091DD023091DE028091DD029091DE0298
S113123028173907A9F7C901089507C022E330E048
S1131240000021503040E1F701970097B9F7089565
S11312500F931F93CF93DF938C010E941009EC012D
S11312600E9410098C1B9D0B80179107C8F3DF9116
S1131270CF911F910F91089508952091D902309133
S1131280DA024091DB025091DC028091D902909104
S1131290DA02A091DB02B091DC02281739074A0771
S11312A05B0759F7B901CA01089587E090E020E08F
S11312B030E0AAE0B0E060E170E045E650E0D49AA6
S11312C0DC98FD013197F1F7D498DC9AFB01319752
S11312D0F1F7CC992068FA013197F1F7009711F4EE
S11312E0C9010895019736952795E9CF682779278D
S11312F088E090E04CE850E09B013695279560FF2C
S113130004C0B9016427752701C0B9010197A1F789
S1131310CB010895CF92DF92EF92FF920F931F9328
S1131320DF93CF930F92CDB7DEB7D498DC988FB705
S11313308983F894D49ADC9889E993E00197F1F7CA
S1131340D498DC9A80E890E00197F1F729B383EF11
S113135092E00197F1F724FD5AC0B8E0A3E3EEE66A
S1131360F0E062E170E04AE050E025E730E0A0FF01
S113137009C0D49ADC98CA010197F1F7D498DC9A91
S1131380C90108C0D49ADC98CF010197F1F7D49829
S1131390DC9ACB010197F1F7B15011F0A695E7CF94
S11313A00E9455096C0101EB1AE078010E9455096D
S11313B0D7018E937D01BBEAEB16BAE0FB06B1F7C9
S11313C00E9455097C0189818FBFE1E0CE16D104CA
S11313D001F580E090E061E070E00E947609D801B8
S11313E06E918D0170E00E947609BAE00B3A1B07FA
S11313F0B1F78E159F0569F41092A90A8AE18093CA
S1131400AA0A8CE48093AB0A21E030E00BC0898106
S11314108FBF88E0E9EAFAE0DF011D928A95E9F7D7
S113142020E030E0C9010F90CF91DF911F910F911F
S1131430FF90EF90DF90CF9008952091FA013091C2
S1131440FB012130310539F4833489F530930D01E2
S113145020930C0126C02330310549F52091000268
S1131460309101022F5F3F4F30930102209300021D
S1131470E0916A0AF0916B0AE20FF31F8083809176
S11314800002909101028F3391055CF084E090E0BA
S11314909093FB018093FA011092010210920002D2
S11314A006C082E090E09093FB018093FA0180E013
S11314B090E008951F93182F8091E102882349F446
S11314C080EC0E94F6068DE00E94F60681E080938F
S11314D0E102812F0E94F6061A3029F480EC0E9462
S11314E0F6061092E102212F332727FD3095812F34
S11314F0932F1F9108951F93182F87E090E00E9467
S1131500BA0A86E70E94F606812F805D0E94F606DD
S113151080E090E01F91089580E06DE17AE00E9400
S1131520C70682E391E09093140B8093130B089504
S11315309C01CB01E199FECFB9010E944726089591
S11315409C01CB01E199FECFB9010E943726089591
S11315509091E2028091E30289270E94E51908959F
S11315600E94CE191092E2021092E30208950E94A2
S1131570D51908959091E302982B9093E3020E9469
S1131580A80A089580959091E30298239093E3022A
S11315900E94A80A08959091E20298279093E2028B
S11315A00E94A80A08950E94CB0A08951F931091DF
S11315B0E2028091E30218271095812F0E94CB0A42
S11315C080E991E00E941D09812F0E94CB0A1F919E
S11315D00895FC01DB018C91808311968C91119705
S11315E081830895FC01DB0190818C91981741F46B
S11315F021E030E0918111968C911197981711F0A8
S113160020E030E0C9010895FC0180818093B10A93
S113161081818093B20A08950F931F93CF93DF9330
S11316208091B70A9091B80AA091B90AB091BA0A08
S11316300196A11DB11D8093B70A9093B80AA09397
S1131640B90AB093BA0A0E94330EEC0184EE92E018
S11316500E9431020BC0D8011296ED91FC911397B0
S1131660309709F00995C8010E94F702082F192F35
S11316700115110581F7209719F0CE010E941C0E67
S1131680DF91CF911F910F9108950E94C6180E9477
S1131690A2050E94C10B0E94300E82E090E060E03F
S11316A072E040E05EE12FEF31E00E945E0D0895AC
S11316B0CF92DF92EF92FF920F931F93CF93DF931A
S11316C06C01EB018A0184EE92E00E9431020CC0AD
S11316D0D7011496ED91FC911597309711F0CE0136
S11316E00995C7010E94F702E82EF92EE114F104CE
S11316F079F7C601BE01A8010E94240EDF91CF91A3
S11317001F910F91FF90EF90DF90CF900895BC014F
S113171084EE92E00E94B8020895BC0184EE92E047
S11317200E947F020895CF93DF93EC018091B30A66
S11317309091B40AA091B50AB091B60A0196A11D80
S1131740B11D8093B30A9093B40AA093B50AB093E1
S1131750B60ACE010E94430E009769F00E941C0550
S1131760E0918F01F091900188E59BE0BE0109951D
S113177021E030E002C020E030E0C901DF91CF91E8
S1131780089586EE92E00E942D0208950F93CF9360
S1131790DF93EC017B836A8318865F834E8386EE36
S11317A092E0BE010E94B802E091E802F091E902E1
S11317B0309749F04C815D818A819B81688520E066
S11317C030E001E00995DF91CF910F910895BC01BC
S11317D086EE92E00E947F0208950F93DC01189632
S11317E01C921897E091E802F091E902309759F0C1
S11317F012968D919C91139760E040E050E020E0B8
S113180030E000E009950F9108950F93DC01AB01DE
S113181014962D913C91159781E018968C93189706
S113182015967C936E931497E091E802F091E90287
S1131830309739F012968D919C91139761E000E0F6
S113184009950F9108950F93DC01E091E802F0915E
S1131850E902309769F014962D913C9115971296F0
S11318608D919C91139718966C91A90101E00995AB
S11318700F910895E091EA02F091EB02309709F09C
S1131880099508959093EB028093EA02089590934A
S1131890E9028093E802089586EE92E00E94310204
S11318A00895EF92FF920F931F93CF93DF938C01D0
S11318B0EB017A0186EE92E00E94310215C0DC0150
S11318C012962D913C9113972C173D0759F41696B7
S11318D0ED91FC911797309761F0B801AE01970133
S11318E0099507C00E94F702282F392FC9010097D4
S11318F031F7DF91CF911F910F91FF90EF900895F1
S11319000895AF92BF92CF92DF92EF92FF920F931E
S11319101F93DF93CF9300D0CDB7DEB75B010E9456
S1131920FF048C01FC01E080F180FA82E9820E94CC
S113193051059701220F331F220F331F2E5F3F4F94
S11319408217930798F0CC24DD240DC0F80162813E
S1131950738144815581C5010E94510C0894C11CB6
S1131960D11C0C5F1F4FCE14DF0480F30F900F9037
S1131970CF91DF911F910F91FF90EF90DF90CF9067
S1131980BF90AF900895CF93DF93C7E0D3E0609109
S11319901D0370911E03CE0145EF5CE020E030E0B2
S11319A00E94BE170E94C31860911D0370911E030C
S11319B00E945222BC01CE0140974AE05DE020E043
S11319C030E00E94BE17DF91CF9108950F9301304C
S11319D051F4809117039091180390931E03809300
S11319E01D030E94C30C0F91089580911D039091D3
S11319F01E0320911B0330911C03880F991F281785
S1131A00390708F4C90190931E0380931D030E94B3
S1131A10C30C0895EF92FF92CF93DF930E94A20527
S1131A200E94FF04E82EE7017E01F92EE7011982E6
S1131A3018820E944C0C26C028813981F901EE0FCE
S1131A40FF1FEE0FFF1FEC0FFD1FDC0112964D91DF
S1131A505C911397538342832F5F3F4FF901EE0F3D
S1131A60FF1FEE0FFF1FEC0FFD1F14964D915C91AD
S1131A70159751834083398328830E94F702282FC6
S1131A80392FC901009721F0FC0120852223A1F6FA
S1131A9088819981880F991F880F991F02960E9447
S1131AA0FA0488819981009721F08CEE92E00E94DB
S1131AB0EE0DDF91CF91FF90EF900895EF92FF929A
S1131AC00F931F93CF93DF93FC018B017A01E901FC
S1131AD08CEE92E0BF014DE451E00E94D00D1093D2
S1131AE0180300931703F0921A03E0921903D0939A
S1131AF01C03C0931B0386EE9CE00E94470CDF91FD
S1131B00CF911F910F91FF90EF900895CF93DF93A2
S1131B10C7E0D3E0CE010E944518CE0140970E9451
S1131B204518CE014B970E94EB0DDF91CF9108959C
S1131B3080911D0390911E030895DC011996ED9187
S1131B40FC911A970280F381E02D309709F00995F2
S1131B500895EF92FF920F931F93DF93CF9300D0DA
S1131B60CDB7DEB78C017E010894E11CF11CC701DE
S1131B706DE67AE00E94E90AD8011996ED91FC918C
S1131B801A970190F081E02DC801B70109950F90D3
S1131B900F90CF91DF911F910F91FF90EF900895D7
S1131BA0EF92FF920F931F93CF93DF93EC018B017E
S1131BB07A0141E551E00E94FD0DFA86E986C801EB
S1131BC065E571E00E941802DF91CF911F910F919A
S1131BD0FF90EF9008950E94160E0895CF93DF931F
S1131BE0EC018DE69AE061EB7AE00E94E90ACE010D
S1131BF00E94190EDF91CF910895EF92FF920F93F7
S1131C001F93CF93DF93EC018B017A010E94F101C2
S1131C10F886EF82C80169E571E00E941802DF913D
S1131C20CF911F910F91FF90EF9008950E94FA01B8
S1131C3008950E94930B0895FC01A781B0852D910E
S1131C403C91F90109950895DC011796ED91FC91F9
S1131C5018970280F381E02D309709F009950895D3
S1131C600E94EC010895E0915B01F0915C010995FB
S1131C70FC01009731F0828193819093780A8093DC
S1131C80770ACF010895CF93DF93EC01E0915D01D2
S1131C90F0915E0109952A813B813093780A209363
S1131CA0770A21E030E0009711F420E030E0C90128
S1131CB0DF91CF910895E0915F01F0916001099562
S1131CC00895FC0120E030E004C08181280F311D1B
S1131CD0329680818823C9F7C9010895FC01818166
S1131CE090E0308120E0822B932B02C0880F991F53
S1131CF06A95E2F7892F9927FA01EF59FE4F20815F
S1131D0030E08223932328E030E0241B350B02C00B
S1131D10969587952A95E2F708956F927F928F9210
S1131D209F92AF92BF92CF92DF92EF92FF920F9366
S1131D301F93CF93DF936C017B015A0189012830F3
S1131D40310544F4CB01BA01A9010E946E0EF601DB
S1131D50808341C0390133E0759467943A95E1F783
S1131D604115510521F04C01C0E0D0E016C0DB0163
S1131D70FC01C0E0D0E08D9181932196C615D70572
S1131D80D4F3A801477050704115510521F1C701E2
S1131D908C0F9D1F60E070E019C0C7018C0F9D1F60
S1131DA0B50148E050E00E946E0EF40181934F01AA
S1131DB02196C615D7058CF3A801477050704115BC
S1131DC0510549F0C7018C0F9D1FB5010E946E0E8D
S1131DD0CC0DDD1D8883DF91CF911F910F91FF9072
S1131DE0EF90DF90CF90BF90AF909F908F907F90B7
S1131DF06F9008954F925F926F927F928F929F920D
S1131E00AF92BF92CF92DF92EF92FF920F931F9304
S1131E10DF93CF9300D000D0CDB7DEB70E94FF048C
S1131E20E82E092F82E090E00E94DB04009709F479
S1131E3073C0EE2DF02F918180E02081820F911DDF
S1131E400E9400027C01009709F468C00E94FF040C
S1131E503C01D70116964C911697242F30E0277039
S1131E60307081E090E02115310511F480E090E0BC
S1131E70469546954695840F911D0E94DB04009774
S1131E8009F44AC0F70104811581CC24DD24F3E070
S1131E904F2E512C4C0E5D1E4E010894811C911C3A
S1131EA036C0D8011196AC901197BB24B601E3E07B
S1131EB075956795EA95E1F7660D771DA60147705C
S1131EC05070883178F0C40195010E948D0EF8019C
S1131ED0808190E0880F991F835C954FB4010E9424
S1131EE0E90A11C01C821B82C20195010E948D0E59
S1131EF0D801EC91F0E0EE0FFF1FEB58F54F8B810A
S1131F009C8191838083CA0CDB1C0E5F1F4FF801F8
S1131F108081882331F602C0EE24FF24C7010F908C
S1131F200F900F900F90CF91DF911F910F91FF9021
S1131F30EF90DF90CF90BF90AF909F908F907F9065
S1131F406F905F904F900895FC0150E080E190E025
S1131F50861B970B821B930B02C0440F551F8A9557
S1131F60E2F78081852B80838181842B818308958E
S1131F706F927F928F929F92AF92BF92CF92DF9295
S1131F80EF92FF920F931F93CF93DF938C015B012A
S1131F906A0179012830310524F4C801FA0140812D
S1131FA056C03901A3E075946794AA95E1F76115C9
S1131FB0710521F04A01C0E0D0E021C0DA01F80146
S1131FC080E090E02D912193019686159705D4F336
S1131FD097012770307021153105D9F1F601E80F0A
S1131FE0F91F408150E068E070E0621B730B02C08F
S1131FF0559547956A95E2F7800F911F26C0F40125
S113200041914F01C8018C0F9D1FB50128E030E0BC
S11320100E94A40F2196C615D7058CF3970127704B
S1132020307021153105A9F0F601EC0FFD1F408138
S113203050E0C5010896821B930B02C05595479545
S11320408A95E2F7C8018C0F9D1F60E070E00E9442
S1132050A40FDF91CF911F910F91FF90EF90DF902C
S1132060CF90BF90AF909F908F907F906F90089586
S11320708F929F92AF92BF92CF92DF92EF92FF9294
S11320800F931F93DF93CF9300D0CDB7DEB78C01AE
S1132090DC0116964C911697842F90E0877090700F
S11320A021E030E0009711F420E030E046954695B9
S11320B046957901E40EF11CC70102960E9467055A
S11320C0009709F455C00E940705FC01D801129637
S11320D08C911297808313968C9181830E940705BB
S11320E042E0A42EB12CA80EB91EC50160E070E038
S11320F0A7010E940024F801E480F58000E010E0CC
S11321004E010894811C911C2CC0D7011196CC90CF
S11321101197DD24C80133E0959587953A95E1F749
S11321208A0D9B1DB80167707070422F50E02831F2
S113213028F0440F551F435C554F0AC0FA01EE0FB7
S1132140FF1FEB58F54F208131813A832983A40185
S113215096010E94B80F0C0D1D1DE2E0F0E0EE0E9A
S1132160FF1ED7012C91222381F621E030E002C02A
S113217020E030E0C9010F900F90CF91DF911F91C3
S11321800F91FF90EF90DF90CF90BF90AF909F9012
S11321908F900895E091E901F091EA01099508957D
S11321A0009731F0E091E901F091EA010995089571
S11321B0E091EB01F091EC010995089580E090E045
S11321C008950E94CA100895E0918401F091850158
S11321D0099597FD15C08FE69AE061EB7AE00E94BD
S11321E0F20A009741F48FE69AE060E471E00E94FD
S11321F0F20A009729F0E0919101F091920109957A
S11322000895CF92DF92EF92FF920F931F93CF9393
S1132210DF93EC018B018DE69AE061EB7AE00E949A
S1132220E90AE0918201F0918301099597FD1EC0AE
S1132230C090DF01D090E0010E9407057C010E945C
S11322405B05BC01C701F60109958230910589F04F
S11322508330910529F0009731F440E050E00BC041
S113226042E050E008C044E050E005C045E050E0E2
S113227002C041E050E0CE01B80121E030E00E940C
S11322806111DF91CF911F910F91FF90EF90DF903B
S1132290CF9008950F931F93CF93DF938C01EB019D
S11322A04115510549F0FA01828193810E944F1929
S11322B0C801BE010E940111DF91CF911F910F91BE
S11322C00895FC01CB01309719F0BA01A9010995D1
S11322D008950F931F93DF93CF93CDB7DEB7E097A5
S11322E00FB6F894DEBF0FBECDBF0E9451058C011E
S11322F00E94FF04602FAE014F5F5F4F0E94802158
S1132300882309F447C088A99801281B3109C90109
S11323100E94DB040097F1F12E81222331F18A859A
S11323209B853BEA8D3C930721F03FEF8F3F93075A
S113233089F5223041F088E090E007C001972291AE
S11323402F3F41F00BC082E090E0FE01E80FF91F3F
S11323503C96F4CF181619068CF307C08FE69AE062
S1132360BE01645F7F4F0E94E90A8DE69AE0BE01D8
S11323706A5E7F4F0E94E90A8B818093990A1092CA
S11323809A0A898580938F0A1092900A88A9081B5B
S1132390110902C00FEF1FEFC801E0960FB6F894C1
S11323A0DEBF0FBECDBFCF91DF911F910F91089576
S11323B0DF92EF92FF920F931F93DF93CF93CDB7EA
S11323C0DEB7E0970FB6F894DEBF0FBECDBFFE01B7
S11323D0319680E3DF011D928A95E9F7809121030C
S11323E0882339F481E0809321030E94C3188093E9
S11323F0220381E089831A828091990A8B838FE674
S11324009AE060E471E00E94F20A009711F01C82E5
S113241003C080918B0A8C831D821F828091890A5C
S113242090918A0A009711F089870BC0809122034A
S11324308987982F9F5F909322038093890A109233
S11324408A0A02E008878DEC9BEA9B878A878FE6DD
S11324509AE060E471E00E94F20A009729F00E838A
S11324608FEF8C878D8707C0CE010C966FE67AE0DC
S11324700E94E90A0E838DEC9BEA9D8B8C8BCE0126
S1132480469661EB7AE00E94E90A0E94FF049FA746
S11324908EA70E94510588AB7E010894E11CF11CB3
S11324A0C7010E947720D82E082F10E0C8010E948F
S11324B06705009741F00E940705BC01C7014D2D37
S11324C00E94952002C00FEF1FEFC801E0960FB6DF
S11324D0F894DEBF0FBECDBFCF91DF911F910F9156
S11324E0FF90EF90DF900895E0918001F0918101D9
S11324F009959C01009711F420E130E0C901089589
S1132500E0914B01F0914C0109950895E0917C0113
S1132510F0917D0109950895E0917E01F0917F018C
S113252009950895E0918001F0918101309719F0A7
S113253009959C0102C020E030E0C9010895EF92A2
S1132540FF92CF93DF93E82EE7017E01F92EE70196
S1132550209779F0898D9A8D0E943102AC01009701
S113256041F0E0917801F09179018BEE93E1B701AC
S11325700995DF91CF91FF90EF900895AF92BF92AC
S1132580CF92DF92EF92FF920F931F93CF93DF933B
S11325906C017B0180912303909124039C012F5FA4
S11325A03F4F309324032093230390938A0A80930C
S11325B0890A8FE69AE060E471E00E94F20A0097CB
S11325C009F0A0C085E293E00E943102292FA82ED1
S11325D0E5010EC0CE0102966FE67AE00E94F20A8F
S11325E0009711F5CE010E94F702292FA82FED01C3
S11325F05E01B22EE501209769F78CC0CE010296E8
S11326006FE67AE00E94E90A1C8A1D8A1E8ACE01BE
S113261047969A8F898F188E1F8A0E942D0285E211
S113262093E0BE010E94B80281EA91E00E948A16FA
S11326308C01009709F44DC089EA91E00E948A1642
S1132640D80115969C938E9314970097E9F10E94F4
S1132650D318F801938382830480F581E02D0097D9
S113266071F18091870A9091880A009709F483E0B8
S11326708483D182C082F382E2822091910A3091D4
S1132680920A898D9A8D2130310521F4B8010E9476
S1132690A40203C0B8010E94B802898D9A8D0E94D9
S11326A031028017910709F042C0CE01049660E020
S11326B070E04FE952E19E010E94BE1738C089EADA
S11326C091E0BF010E94B01681EA91E0B8010E9436
S11326D0B016898D9A8D0E94D702009751F485E235
S11326E093E0BE010E947F0289E991E0BE010E944D
S11326F0B016C601B70144E050E021E030E00E948A
S1132700611115C0E0917601F0917701C601B7011E
S113271009950DC089E991E00E948A16A82EE50169
S11327205E01B92EE501209709F068CFE2CFDF9171
S1132730CF911F910F91FF90EF90DF90CF90BF90BA
S1132740AF9008950F931F93CF93DF93EC01898D7E
S11327509A8D0E9431028C010097C1F1FC018281A3
S113276093810E942D19898D9A8D0E947202F8011D
S11327706481758189EA91E00E94B01681EA91E052
S1132780B8010E94B016898D9A8D0E9431028E0183
S11327900C5F1F4F009769F01C8A1D8A1E8A0E94D5
S11327A07412BC01C8014FE952E19E010E94BE1798
S11327B00DC0C8010E94451885E293E0BE010E9445
S11327C07F0289E991E0BE010E94B016DF91CF91AA
S11327D01F910F9108954F925F926F927F928F9203
S11327E09F92AF92BF92CF92DF92EF92FF920F939C
S11327F01F93CF93DF938B01E82EE7017E01F92E1F
S1132800E701898D9A8D0E9431022C01FC01E4803C
S1132810F5800130110591F00230110524F4011501
S1132820110541F012C00230110521F003301105E9
S113283061F408C08C898F5F8C8B07C08D898F5F92
S11328408D8B03C08E898F5F8E8BF701C080D18002
S1132850A280B3807C88C80101978230910568F515
S11328600E9474124C016C880E94C3183C89F701C1
S11328702481321710F5262D30E02F5F3F4F24308E
S1132880310514F023E030E0829EB001839E700D88
S1132890929E700D11240E945222BC01680D791D74
S11328A0CE0104964FE952E19E010E94BE17F20147
S11328B0828193810E9422190AC0CE010E94A21330
S11328C0C601B501A801272D30E00E946111DF91F6
S11328D0CF911F910F91FF90EF90DF90CF90BF9019
S11328E0AF909F908F907F906F905F904F900895DE
S11328F081EA91E00E946A1689EA91E00E946A16D0
S113290089E991E00E946A1608951F93CF93DF939B
S1132910EC01162F8E8180FF1DC0EA81FB81309768
S1132920C9F0D093CA03C093C90382E08E83CE0159
S113293004960995992787FD909502978230910511
S113294010F0133829F4CE01BE010E94AE1402C067
S113295081E08E83DF91CF911F910895CF92DF9212
S1132960EF92FF920F931F93CF93DF93EC017B01C0
S1132970C090C903D090CA030091C7031091C80343
S1132980F80103C00190F081E02DEC17FD0719F068
S11329903097C1F746C0209709F443C08E8188233D
S11329A009F11E820BC0C017D10729F0C80167E8DE
S11329B0AE010E948514F8010081118101151105F1
S11329C091F7EA81FB81309769F0CE15DF0551F06C
S11329D0D093CA03C093C903CE01049663E840E0D0
S11329E050E00995E091C703F091C803CE17DF07C3
S11329F091F4888199819093C8038093C7030DC093
S1132A00808191818C179D0729F488819981918314
S1132A10808303C0FC01309799F7D092CA03C09217
S1132A20C903DF91CF911F910F91FF90EF90DF9039
S1132A30CF9008951F93CF93DF931092CB03C0914F
S1132A40C703D091C80311E00EC08F81882341F0E1
S1132A501E831F82CE0162E840E050E00E9485148C
S1132A600990D881C02D209781F7DF91CF911F91D4
S1132A7008958091FE03982F9F5F9093FE0308951D
S1132A806091C9037091CA030E94AE1408958AE844
S1132A908093FE031092CD031092CC031092FB0A94
S1132AA01092C8031092C7031092CA031092C9036C
S1132AB008958091CB03882311F00E941A15709118
S1132AC0CC03772309F455C02091CD0330E0F901FC
S1132AD0EE0FFF1FEE0FFF1FE20FF31FE253FC4F39
S1132AE060816093FD03418152815093FC034093C4
S1132AF0FB03838194819093FA038093F9032F5FFE
S1132B003F4F277030702093CD0371507093CC03E6
S1132B10009741F58091C7039091C80318C0809134
S1132B20CB03882311F00E941A154091FB035091A6
S1132B30FC038091F7039091F8036091FD030E94D8
S1132B408514E091F703F091F803808191819093CB
S1132B50F8038093F7038091F7039091F8030097AB
S1132B60F1F607C0613819F421E0FC0126830E94C4
S1132B7085148091CB032091CC0330E0280F311DC4
S1132B80C90108958091CB032091CC0330E0280F34
S1132B90311DC90108957091CC03783001F1209161
S1132BA0CD03270F27702093F60330E0F901EE0FD1
S1132BB0FF1FEE0FFF1FE20FF31FE253FC4F608372
S1132BC05283418394838383872F8F5F8093CC03C5
S1132BD09091FB0A981730F48093FB0A03C021E01C
S1132BE030E002C020E030E0C9010895CF93DF93C4
S1132BF0C091C903D091CA030E948514D093CA031B
S1132C00C093C903DF91CF910895FC01AB0190916A
S1132C10C7038091C8039C01A32FB22F03C00D905A
S1132C20BC91A02DAE17BF0791F01097C1F7309754
S1132C3071F090838183F093C803E093C70381E02C
S1132C40868315821482CF0161E80E94F6150895E7
S1132C50FC01009741F086818150823020F481E0AC
S1132C6087838093CB03089521E030E0FC018681C3
S1132C70882311F420E030E0C9010895EF92FF9217
S1132C80CF93DF93E82EE7017E01F92EE70104C01C
S1132C9060E070E00E940516899199910097C1F750
S1132CA0DF91CF91FF90EF900895EF92FF92CF9331
S1132CB0DF93E82EE7017E01F92EE70102C00E94AE
S1132CC04015899199910097D1F7DF91CF91FF90A9
S1132CD0EF900895CF93DF93EC014A815B818C815F
S1132CE09D8160E070E00E9400244A815B818881BC
S1132CF09981489F9001499F300D589F300D1124B0
S1132D008E819F8160E070E0A9010E940024DF9120
S1132D10CF910895FC018281938120E030E019C0B5
S1132D20A481B581A20FB31F4C91442381F481E0A7
S1132D308C9340815181249FC001259F900D349F25
S1132D40900D112426813781280F391F07C02F5F6A
S1132D503F4F2817390720F320E030E0C9010895D8
S1132D60FC01268137814281538180E090E018C0C4
S1132D702617370781F4A481B581A80FB91F2C91B8
S1132D80121614F421502C930480F581E02DE80FE1
S1132D90F91F80810895A081B1812A0F3B1F0196FC
S1132DA08417950728F38FEF0895FC01CB01268142
S1132DB037816217730790F0A081B18162817381BA
S1132DC0A69FA001A79F500DB69F500D1124420F3E
S1132DD0531F21E030E08417950710F020E030E025
S1132DE0C9010895CF93DF93EC017B836A830E942A
S1132DF0100999838883DF91CF910895FC01808124
S1132E00918122813381820F931F9183808308955E
S1132E10CF93DF93EC010E94100999838883DF919B
S1132E20CF910895CF93DF93EC010E94100928817C
S1132E303981821B930B019621E030E04A815B814A
S1132E404817590710F020E030E0C901DF91CF9115
S1132E500895EF92FF92CF93DF93FC01C281D38157
S1132E6080819181C80FD91F0E941009C81BD90BFA
S1132E70CE01DF91CF91FF90EF900895CF92DF9232
S1132E80EF92FF920F931F93CF93DF938C017A01FC
S1132E90FC0180819181009729F08B34910509F020
S1132EA051C01EC080E094E00E943102C82EE601A9
S1132EB07E01F92EE70109C06C817D81CE01029665
S1132EC00E94F0030990D881C02D2097A9F781E0D2
S1132ED08093FF038BE490E0F8019183808337C0F3
S1132EE06838A9F580E094E00E943102C82EE6011A
S1132EF06E01D92EE60123C0CE010296E816F9062A
S1132F00D9F480E094E0BE010E947F02E090C903FE
S1132F10F090CA038A859B859093CA038093C90362
S1132F20EC85FD85309719F08E859F850995F09283
S1132F30CA03E092C903CECF0990D881C02D20974F
S1132F40D9F6C8CFF8011182108283E001C081E074
S1132F50DF91CF911F910F91FF90EF90DF90CF9071
S1132F6008951092FF0380E094E00E942D0281EB0B
S1132F7091E060E070E00E94051608950F931F939E
S1132F80CF93DF93EC010091C9031091CA031B870F
S1132F900A875D874C873F872E878091FF038823AC
S1132FA079F081EB91E09093CA038093C903CE0139
S1132FB002960E94F0031093CA030093C90302C04F
S1132FC07D836C8380E094E0BE010E947F0280E0F8
S1132FD094E0BE010E94B802DF91CF911F910F913E
S1132FE008950F931F93CF93DF93EC018091FF0318
S1132FF0882391F00091C9031091CA0381EB91E0F9
S11330009093CA038093C903CE0102960E94FB03E6
S11330101093CA030093C90380E094E0BE010E94A8
S11330207F0280E094E0BE010E94B802DF91CF915C
S11330301F910F9108950F931F93CF93DF93EC018A
S11330408091FF03882391F00091C9031091CA0372
S113305081EB91E09093CA038093C903CE01029659
S11330600E9406041093CA030093C90380E094E00D
S1133070BE010E947F0280E094E0BE010E94B8027B
S1133080DF91CF911F910F910895CF93DF93EC01BE
S11330908091FF03882329F0CE0102960E944E04FA
S11330A004C01F821E821986188680E094E0BE0147
S11330B00E947F02DF91CF910895CF93DF93EC01BB
S11330C08091FF03882331F0CE0102960E941B04F5
S11330D09C0114C080E094E00E943102E82FF92F93
S11330E006C0EC17FD0741F00190F081E02D309708
S11330F0C1F721E030E002C020E030E0C901DF91F7
S1133100CF9108950E94F01F08950F931F93FC011F
S1133110CB0140910204509103043383228315832D
S1133120048371836083F0930304E09302044115E4
S1133130510511F40E940C2080E090E01F910F9142
S1133140089580910204909103040097C1F01092B5
S1133150030410920204DC0114966D917C9115977E
S11331601296ED91FC9113970995E0910204F09168
S11331700304309721F0808191810E940C200895EE
S11331800E94EC2308950E94E723089589EC91E0BE
S11331900E946A1689EB91E00E946A1681EC91E024
S11331A00E946A160895EF92FF920F931F93CF9394
S11331B0DF930E940E050097C9F081EC91E00E9414
S11331C08A16E82EE7017E01F92EE701209791F196
S11331D00E945105998388830E944C059B838A83AE
S11331E0C70104960E947A048CAB24C089EB91E059
S11331F00E948A16EC017E01F92EE7012097D1F096
S113320089EC91E00E948A168C0199838883009747
S113321079F002960E949104F80191838083B801A9
S11332206E547F4FC8018E579F4F0E94FE0502C007
S1133230C0E0D0E0CE01DF91CF911F910F91FF90BC
S1133240EF900895FC0180819181BC016E547F4F01
S11332508E579F4F0E94FE050895CF93DF93EC0194
S113326089EB91E0BE010E94D516009749F0688170
S1133270798189EC91E00E94B01689EB91E009C054
S113328081EC91E0BE010E94D516009729F081ECF3
S113329091E0BE010E94B016DF91CF910895EF92A4
S11332A0FF92CF93DF93EC0189EB91E0BE010E9482
S11332B0D516009791F00990D881C02D6881798145
S11332C0CE0102960E94CB05BE016E547F4FCE0103
S11332D08E579F4F0E9413061BC081EC91E0BE01E4
S11332E00E94D5160097A1F00E94A20568817981F9
S11332F08A819B810E94CB058CA990E00E9467057E
S11333000E9407054CA92496BE0150E00E94F723B1
S1133310DF91CF91FF90EF900895CF93DF93EC016D
S113332089EB91E0BE010E94D516009729F028810F
S113333039812E5F3F4F0CC081EC91E0BE010E94A9
S1133340D516009719F02A813B8102C020E030E0B5
S1133350C901DF91CF910895DC01ED91FC911197A2
S113336080819181089570E06F5B7F4F660F771FB6
S1133370FC0120813181260F371FC9010895DC012A
S1133380ED91FC91119770E06F5B7F4F660F771F93
S1133390E60FF71F80819181089508958AB38760AD
S11333A08ABB8BB387608BBB0895DA9B02C090E025
S11333B001C094E081E0D99980E0892BD89B02C0B8
S11333C090E001C092E0892B08952BB3287F82FFFF
S11333D002C040E001C044E080FF02C030E001C010
S11333E032E051E081FD50E0252B242B232B2BBB15
S11333F00895C0988FB9779BFECFC09A0895C0985E
S11334001FB8779BFECF8FB1C09A90E00895CF93F9
S1133410DF9389B7806489BF83E090E00E94F91943
S1133420C0918800D09189000E94FF1986FD0AC0CE
S11334308091880090918900885490408C1B9D0B4A
S113344097FDF2CF81E08093610ADF91CF910895D7
S1133450C09880648FB9779BFECF8FB11FB8779BDC
S1133460FECF2FB1922F80E01FB8779BFECF2FB1F4
S1133470C09A30E0282B392BC9010895C0988FB920
S1133480779BFECF7FB9779BFECF6FB9779BFECF3B
S11334901FB8779BFECFC09A08951F93182F85E11C
S11334A090E00E94281ABC01607E812F90E08F7109
S11334B09070682B792B85E190E00E943E1A1F9151
S11334C0089521E030E0849902C020E030E0C90191
S11334D0089521E030E00E9902C020E030E0C901F7
S11334E00895C0988FE78FB9779BFECF8FB11FB82F
S11334F0779BFECF8FB181E090E00E941D09C09AB6
S1133500C09888E08FB9779BFECFC09AC09888E0B6
S11335108FB9779BFECFC09A0895CF93DF93109213
S1133520610AC0918800D09189000E94FF1983FF2D
S11335300AC08091880090918900805D92408C1B24
S11335409D0B97FDF2CF86E090E00E94F91989B7B0
S11335508F7B89BF0E9902C00E94711ADF91CF91AF
S113356008958091600A813081F48091620A8823F1
S113357021F00E94071A1092620A8091630A88233C
S113358021F00E948D1A1092630A8091600A815082
S11335908093600A08950F931F93CF93DF93EC01F8
S11335A08B018091600A8F5F8093600A8091F30A97
S11335B09091F40AA091F50AB091F60A0196A11D22
S11335C0B11D8093F30A9093F40AA093F50AB09383
S11335D0F60A89E090E00E94F919802F8E5FC09866
S11335E09EE39FB9779BFECF8FB9779BFECFC09A9E
S11335F0C0988EE38FB9779BFECF20E008C08C0F74
S11336009D1FFC0180818FB9779BFECF2F5F822F96
S113361090E08017910798F3C09A0E94B11A80E055
S113362090E0DF91CF911F910F9108958091610AED
S1133630882379F48091600A882321F081E08093C3
S1133640620A07C081E08093600A0E94071A0E9400
S1133650B11A81E090E008951F938091610A882354
S1133660B1F08091600A882321F081E08093630A9D
S11336700EC011E01093600A0E94FF1983FF03C07B
S11336801093630A02C00E948D1A0E94B11A81E04D
S113369090E01F910895EF92FF920F931F93CF93A1
S11336A0DF938091600A8823D1F581E08093600ADA
S11336B08091610A882329F40E94161B01E010E01E
S11336C002C000E010E08091610A882341F40E9466
S11336D0B11A0115110519F10E942C1B20C0C091CB
S11336E08800D09189000E94FF1981FD0AC0809151
S11336F0880090918900885490408C1B9D0B97FD05
S1133700F2CFC1E0D0E0869902C0C0E0D0E001155C
S1133710110511F00E942C1B0E94B11A02C0C1E0D5
S1133720D0E0CE01DF91CF911F910F91FF90EF90E8
S11337300895C0982FE72FB9779BFECF2FB140E0B3
S113374009C01FB8779BFECF2FB1FC01E40FF11D18
S113375020834F5F242F30E02617370794F381E04E
S113376090E00E941D09C09A0895DF92EF92FF92A3
S11337700F931F93DF93CF9300D0CDB7DEB78C01A7
S11337807B010E9BC7C01092640A8091600A8F5F10
S11337908093600A8091FD0A9091FE0A01969093AD
S11337A0FE0A8093FD0AC0988FE78FB9779BFECFFE
S11337B08FB11FB8779BFECFDFB081E090E00E940D
S11337C01D09C09AD7FE16C00E94711A8091E30A9F
S11337D09091E40AA091E50AB091E60A0196A11D30
S11337E0B11D8093E30A9093E40AA093E50AB09391
S11337F0E60A35C08D2D8330B0F40E94711A809191
S1133800DF0A9091E00AA091E10AB091E20A0196E0
S1133810A11DB11D8093DF0A9093E00AA093E10AF1
S1133820B093E20A1CC06D2D70E062507040E61641
S1133830F706C0F40E94711A8091DB0A9091DC0AA9
S1133840A091DD0AB091DE0A0196A11DB11D8093FD
S1133850DB0A9093DC0AA093DD0AB093DE0A0E948F
S1133860B11A58C0C8010E94991BCE01019662E0AA
S113387070E00E94991B2A8127FF25C089818093CB
S1133880FC0A2F772093070B992787FD9095909337
S11338907E0A80937D0A20937B0A10927C0A809191
S11338A0F70A9091F80AA091F90AB091FA0A0196E0
S11338B0A11DB11D8093F70A9093F80AA093F90A09
S11338C0B093FA0A15C08091E70A9091E80AA09192
S11338D0E90AB091EA0A0196A11DB11D8093E70A95
S11338E09093E80AA093E90AB093EA0A82E0D82EFA
S11338F00E9B09C0B79903C00E94711A04C081EDE0
S113390091E00E9428160E94B11A2D2D30E0225019
S1133910304002C020E030E0C9010F900F90CF91F9
S1133920DF911F910F91FF90EF90DF900895CF9357
S1133930DF93EC0188819981009729F022E08E378A
S1133940920701F505C08EE792E0998388831EC033
S11339506238E1F40E94A2058091650A9091660A9A
S11339609093800A80937F0A0E94FF0460E870E0CD
S11339700E94B51B0E94FA04E0917A01F0917B0148
S11339800995E1CF1982188283E001C081E0DF91BB
S1133990CF9108958091670A9091680A08950F93D2
S11339A01F93CF93DF932091600A2F5F2093600AC7
S11339B09093680A8093670AEC01CC0FDD1FCC0F4B
S11339C0DD1FC80FD91FC25DDE4B00918800109126
S11339D089000E94FF1986FD0AC080918800909199
S11339E08900805D9240801B910B97FDF2CF00917E
S11339F08800109189000E94FF1983FF0AC08091FA
S1133A00880090918900805D9240801B910B97FD06
S1133A10F2CF88E190E0BE010E943E1A8091610AD3
S1133A20882321F083E090E00E94F9190E94B11AE2
S1133A3081E090E0DF91CF911F910F910895CF9293
S1133A40DF92EF92FF920F931F93DF93CF93CDB743
S1133A50DEB72C970FB6F894DEBF0FBECDBF6C0156
S1133A608A018091600A8F5F8093600AE0908800E9
S1133A70F09089006B877C870E94FF196B857C8599
S1133A8086FD0AC02091880030918900205D324073
S1133A902E193F0937FDEECFC982DA82C09888EE2D
S1133AA08FB9779BFECF80E88FB9779BFECFFE015D
S1133AB03196CE010396DF012D912FB9779BFECF6E
S1133AC0A817B907C9F7C09A69837A83C0982AEE00
S1133AD02FB9779BFECF20E82FB9779BFECF21919A
S1133AE02FB9779BFECFE817F907C9F7C09A0115DC
S1133AF01105F1F0D801CE010396FE013B962D91FC
S1133B002293E817F907D9F7C09820EE2FB9779BCD
S1133B10FECF20E82FB9779BFECFFE01339608969F
S1133B2021912FB9779BFECFE817F907C9F7C09AFF
S1133B300E94B11A2C960FB6F894DEBF0FBECDBF0B
S1133B40CF91DF911F910F91FF90EF90DF90CF9075
S1133B5008951F931FB7F8940E948C1F89B78F7B19
S1133B6089BF8AB780638ABF80E488BF1FBFDD9A9C
S1133B708AEF90E00E941D09DE988FE790E00E9492
S1133B801D09DE9A8DE790E00E941D0981E090E016
S1133B900E94F91981E190E00E94281ABC01606139
S1133BA0786081E190E00E943E1A82E190E060E05A
S1133BB075E00E943E1A87E190E00E94281ABC0139
S1133BC0706287E190E00E943E1A8CE190E06FE71A
S1133BD070E00E943E1A89E190E00E94281ABC011C
S1133BE07D7F89E190E00E943E1A8FEF9FEF60E0B5
S1133BF070E040E050E00E941F1D8AE190E00E94C6
S1133C00CF1C0E94711A81ED91E060E070E00E9487
S1133C10051681E090E01F91089580E488BF81ED4E
S1133C2091E00E9428168091010B9091020B9093D1
S1133C30660A8093650A8091640A8F5F8093640AA0
S1133C408091FF0A9091000B01969093000B809352
S1133C50FF0A81E090E008959091600A9F5F90933D
S1133C60600A0E944D1A0E94B11A0895EF92FF92C1
S1133C70CF93DF938091600A8F5F8093600A85E120
S1133C8090E00E94281AEC010E94B11ACF71D07002
S1133C90CE01DF91CF91FF90EF900895CF92DF9204
S1133CA0EF92FF920F931F93DF93CF9300D0CDB782
S1133CB0DEB77C018091600A8F5F8093600A8091F7
S1133CC0810A9091820A009749F00E94361E8C0165
S1133CD08091810A81500E944D1A02C000E010E0D8
S1133CE083E090E00E94F919C0908800D090890088
S1133CF00E94FF1981FD0AC080918800909189007B
S1133D00805D92408C199D0997FDF2CF85E090E08B
S1133D100E94F91984EF91E0849B54C08091010BB7
S1133D209091020B9A8389838091910A9091920ACF
S1133D3084309105E9F4C0988E2D815080688FB944
S1133D40779BFECF0894E108F108F694E79480ECA1
S1133D50E822EFB8779BFECFFE013196CE010396A1
S1133D6021912FB9779BFECFE817F907C9F7C09ABD
S1133D700E94FF1983FF45C0E0908800F0908900FD
S1133D800E94FF1983FF0AC08091880090918900E6
S1133D90805D92408E199F0997FDF2CF8091610A50
S1133DA0882311F40E948D1A8091810A9091820ACD
S1133DB0009719F0802F0E944D1A0E94B11A20E03A
S1133DC030E023C0019709F0A7CF8091EB0A9091CE
S1133DD0EC0AA091ED0AB091EE0A0196A11DB11D65
S1133DE08093EB0A9093EC0AA093ED0AB093EE0A49
S1133DF08091810A9091820A009719F0802F0E9485
S1133E004D1A0E94B11A22E030E0C9010F900F90C0
S1133E10CF91DF911F910F91FF90EF90DF90CF90A2
S1133E200895CF93DF93EB010E94CB1ACE010E9439
S1133E304E1EDF91CF910895EF92FF920F931F933F
S1133E40CF93DF938091600A882381F581E080938A
S1133E50600A8091610A882329F40E94161B01E0FC
S1133E6010E002C000E010E0C0918800D091890009
S1133E700E94FF1981FD0AC08091880090918900F9
S1133E80885490408C1B9D0B97FDF2CF83E190E00A
S1133E900E94281AC82FDD27C7FDD09501151105EA
S1133EA011F00E942C1B0E94B11A02C0C0E0D0E0A5
S1133EB0CE01DF91CF911F910F91FF90EF90089564
S1133EC0EF92FF92CF93DF938091600A882371F47D
S1133ED081E08093600A0E94FF19C1E0D0E081FD77
S1133EE002C0C0E0D0E00E94B11A02C0C1E0D0E03C
S1133EF0CE01DF91CF91FF90EF900895782F8091BC
S1133F00600A8F5F8093600A83E190E060E00E9422
S1133F103E1A0E94B11A089580B5846080BD0E9443
S1133F204722D69AD59ABF988E988C981698DE9A7E
S1133F30C09AC09A08951F920F920FB60F920BB6B3
S1133F400F9211242F933F934F935F936F937F931B
S1133F508F939F93AF93BF93EF93FF930E940D1E94
S1133F60FF91EF91BF91AF919F918F917F916F914D
S1133F705F914F913F912F910F900BBE0F900FBE09
S1133F800F901F9018951F920F920FB60F920BB6B9
S1133F900F9211242F933F934F935F936F937F93CB
S1133FA08F939F93AF93BF93EF93FF93EDE7F0E06D
S1133FB08081817C80830E94A118FF91EF91BF9141
S1133FC0AF919F918F917F916F915F914F913F91AD
S1133FD02F910F900BBE0F900FBE0F901F9018954E
S1133FE09FB7F894EDE7F0E08081817C8083ECE773
S1133FF0F0E080818E63808310928B00EAE8F0E029
S1134000108210928C001092890010928800808196
S1134010856080839FBF08952FB7F894909387009D
S113402080938600ECE7F0E080818E638083EDE787
S1134030F0E08081806180832FBF0895EF92FF922A
S1134040CF93DF93FC01DB0185E0EB0119928A95A4
S1134050E9F7858190E083709070009711F082E019
S11340608C93878190E083709070009721F082E0B8
S113407012968C931297858190E0837090700097CC
S113408099F0878190E083709070009769F023899C
S11340903489818592852817390731F481E0848336
S11340A012961C92129701C01482858183708250EB
S11340B0823030F4C82FD0E0C351DE4F888101C074
S11340C080E011968C931197E781E370E250E2301F
S11340D028F4F0E0E351FE4F808101C080E01396A4
S11340E08C931397DF91CF91FF90EF900895DF9316
S11340F0CF9300D000D00F92CDB7DEB7BE016F5F73
S11341007F4F0E941E2089819A81890F8D5F9B8138
S1134110890F9C81890F9D81890F0F900F900F90BB
S11341200F900F90CF91DF910895AF92BF92CF92ED
S1134130DF92EF92FF920F931F93DF93CF9300D000
S113414000D000D0CDB7DEB78C017B01BE016F5F1C
S11341507F4F4E830E941E20C9809A81A92EBB24C2
S1134160DB808C81682F70E095012C0D311D2D5F53
S11341703F4F2D0D311D260F371F5D81250F311D3A
S11341804E8150E0421753070CF4A8C0D801119691
S11341904C91119750E041705070E3E0440F551F6B
S11341A0EA95E1F712962C91129730E02170307065
S11341B054E0220F331F5A95E1F7242B3C913770BA
S11341C0232B13963C911397E32FF0E0E170F070EA
S11341D045E0EE0FFF1F4A95E1F72E2B14963C9114
S11341E01497E32FF0E0E170F07036E0EE0FFF1F5C
S11341F03A95E1F72E2BF701208315964C911597EC
S113420050E043705070440F551F440F551F1696CD
S11342102C91169730E02370307054E0220F331F36
S11342205A95E1F7242B17963C9117973295330F43
S1134230330F307C322B318318962C9118972283BC
S1134240FC2DF23069F419962C91D70113962C9316
S11342501397F801228514962C93149745E001C016
S113426043E0E92FF0E03B96E00FF11F542F0AC022
S11342709701250F311DC290D901CC925F5F08943C
S1134280A108B108A114B10499F7940FBD2DB2305F
S113429089F4F701E90FF11DD80153962C91539736
S11342A020839F5FF701E90FF11D54962C915497D9
S11342B020839F5FE82FF0E07596E00FF11F292F10
S11342C008C0D701A20FB11D32913C932F5F6150FA
S11342D0704061157105A9F7890F01C080E0269629
S11342E00FB6F894DEBF0FBECDBFCF91DF911F9103
S11342F00F91FF90EF90DF90CF90BF90AF90089513
S1134300BF92CF92DF92EF92FF920F931F93CF93BE
S1134310DF937C01D62EEA01633008F4ADC0FC01C2
S11343208081B82EB294B694B694B3E0BB22F1E087
S1134330BF22F7019181292F269526952370C92E36
S1134340C294C694C694A3E0CA22382F3770388327
S1134350382F36953695369531703983382F329506
S113436031703A838295869581708B83BC822D83CC
S1134370892F829583708E83CF828281888787017B
S11343800D5F1F4F222361F1F801918180E0F70155
S11343903381830F911D9A87898787010B5F1F4F94
S11343A0223081F4CA010B9660E471E00E94E90AAC
S11343B0F80181818B87F70185818C878701095FEB
S11343C01F4F16C02330A1F4F7013D96DA011B9666
S11343D082918D93E017F107D9F7085F1F4F08C04A
S11343E0CA010B9660E471E00E94E90A1A861986F4
S11343F0CC2089F1BB2059F4F801918180E020811F
S1134400820F911D9C8B8B8B0E5F1F4F04C089857F
S11344109A859C8B8B8BFC2DF23071F4CE014596E2
S113442060E471E00E94E90AF80181818D8B80814A
S11344308E8B0E5F1F4F17C0FC2DF330A1F4085F65
S11344401F4FD801FE01759680E09E9191938F5F76
S11344508830D9F708C0CE01459660E471E00E9427
S1134460E90A1C8A1B8A802F8E199D2D981B9FA7F1
S11344701EA70DA7D81608F480E0DF91CF911F91F5
S11344800F91FF90EF90DF90CF90BF90089587B386
S1134490876087BB88B3866088BB80E58DB981E07F
S11344A08EB90895AA1BBB1B51E107C0AA1FBB1FED
S11344B0A617B70710F0A61BB70B881F991F5A95AC
S11344C0A9F780959095BC01CD010895CF93DF9312
S11344D08230910510F482E090E0E0910F0BF091AE
S11344E0100B40E050E020E030E026C06081718194
S11344F068177907E0F06817790781F4828193815E
S11345002115310531F0D90113969C938E9312979E
S11345102BC09093100B80930F0B26C041155105AF
S113452019F06417750718F4AB01E901DF019F0165
S113453072816381E72FF62F3097C1F6411551053B
S113454001F1481B590B4430510580F412968D91AA
S11345509C911397209719F09B838A8304C09093AE
S1134560100B80930F0BFD01329646C0FD01E40F42
S1134570F51F819391934250504011965C934E9352
S11345803BC020910D0B30910E0B2115310541F4E8
S11345902091F1013091F20130930E0B20930D0B19
S11345A02091F3013091F4012115310541F42DB727
S11345B03EB74091EF015091F001241B350BE0917F
S11345C00D0BF0910E0BE217F307A0F42E1B3F0B1B
S11345D02817390778F0AC014E5F5F4F2417350771
S11345E048F04E0F5F1F50930E0B40930D0B8193B9
S11345F0919302C0E0E0F0E0CF01DF91CF91089504
S1134600CF93DF93009709F491C0FC013297138292
S1134610128260910F0B7091100B6115710581F47A
S113462020813181280F391F80910D0B90910E0B41
S11346308217930799F5F0930E0BE0930D0B76C058
S1134640DB0180E090E002C0CD01D901AE17BF07C5
S113465048F412962D913C91139721153105A1F739
S1134660CD0121C0B383A283EF01499159919E01E9
S1134670240F351FA217B30779F42D913C9111979C
S1134680240F351F2E5F3F4F3183208312962D91C7
S11346903C91139733832283009729F4F093100BF2
S11346A0E0930F0B43C0DC011396FC93EE93129737
S11346B04D915D91A40FB51FEA17FB0769F42081A2
S11346C03181240F351F2E5F3F4FEC01398328833E
S11346D0228133813B832A83E0E0F0E002C0FB01C6
S11346E0BC01DB0112968D919C9113970097B9F749
S11346F09B012E5F3F4F8D919C911197820F931FC9
S113470040910D0B50910E0B4817590779F43097CF
S113471029F41092100B10920F0B02C01382128214
S11347202250304030930E0B20930D0BDF91CF912C
S11347300895AF92BF92CF92DF92EF92FF920F93C0
S11347401F93CF93DF93EC01688179818A819B81E8
S1134750611571058105910521F464E279ED8BE51C
S113476097E02DE133EF41E050E00E941D277901ED
S11347708A0127EA31E440E050E00E94FE265B0112
S11347806C01C801B7012CEE34EF4FEF5FEF0E94CC
S1134790FE266A0D7B1D8C1D9D1D97FF04C0615074
S11347A0704080409048688379838A839B837F77B5
S11347B0CB01DF91CF911F910F91FF90EF90DF908C
S11347C0CF90BF90AF9008950E949923089585EFEC
S11347D091E00E9499230895A0E0B0E08093F50150
S11347E09093F601A093F701B093F8010895FB01AB
S11347F0DC0102C001900D9241505040D8F7089559
S1134800DC0101C06D9341505040E0F70895DF93FF
S1134810CF93CDB7DEB7FE0135966191719180914A
S1134820130B9091140BDC0113962C9113972860B1
S113483013962C93AF010E942724E091130BF0915F
S1134840140B2381277F2383CF91DF9108952F9227
S11348503F924F925F926F927F928F929F92AF920C
S1134860BF92CF92DF92EF92FF920F931F93DF9349
S1134870CF93CDB7DEB72C970FB6F894DEBF0FBE3B
S1134880CDBF6C011B018A01FC0117821682838152
S113489081FFD1C12E010894411C511CF601938162
S11348A0F10193FD859193FF81911F01882309F400
S11348B0BEC1853239F493FD859193FF81911F0127
S11348C0853229F490E0B6010E947426E7CFEE24E5
S11348D0FF2420E02032B0F48B3269F08C3228F4CB
S11348E0803251F0833271F40BC08D3239F0803351
S11348F049F421602CC02260246029C0286027C0AC
S1134900206125C027FD2CC0382F30533A3098F44D
S113491026FF08C08E2D880FE82EEE0CEE0CE80E54
S1134920E30E15C08F2D880FF82EFF0CFF0CF80E28
S1134930F30E20620CC08E3221F426FD78C120646F
S113494006C08C3611F4206802C0883649F4F1019F
S113495093FD859193FF81911F01882309F0BACFBC
S1134960982F9554933018F09052933028F40C5F9C
S11349701F4FFFE3F9830DC0833631F0833771F0A5
S1134980833509F060C022C0F801808189830E5FFD
S11349901F4F420171E0A72EB12C16C062E0662EB3
S11349A0712C600E711EF8018080918026FF03C077
S11349B06E2D70E002C06FEF7FEFC4012C870E9460
S11349C069265C0183012C852F7717C052E0652E80
S11349D0712C600E711EF8018080918026FF03C047
S11349E06E2D70E002C06FEF7FEFC4012C870E9430
S11349F05E265C012C852068830123FD20C008C04D
S1134A0080E290E0B6012C870E947426FA942C85EB
S1134A108F2D90E0A816B90698F311C0F40127FD74
S1134A20859127FF81914F0190E0B6012C870E9468
S1134A3074262C85F110FA940894A108B108A114E5
S1134A40B10461F7F1C0843611F0893649F527FFC6
S1134A5008C0F80160817181828193810C5F1F4FCE
S1134A6009C0F80160817181882777FD8095982FAE
S1134A700E5F1F4F4FE6B42EB22297FF09C09095E8
S1134A808095709561957F4F8F4F9F4FF0E8BF2AB7
S1134A90A2012AE030E00E94A026782E741845C0B6
S1134AA0853731F43FEEB32EB2222AE030E025C040
S1134AB099EFB92EB2228F36C1F0803720F48835B1
S1134AC009F0B5C00DC0803721F0883709F0AFC0B8
S1134AD002C020E1B22AB4FE0BC084E0B82A08C0A8
S1134AE0B4FE09C0E6E0BE2A06C028E030E005C0F6
S1134AF020E130E002C020E132E0B7FE08C0F80156
S1134B0060817181828193810C5F1F4F07C0F8011E
S1134B106081718180E090E00E5F1F4FA2010E94CE
S1134B20A026782E7418FFE7BF22B6FE0BC02EEF26
S1134B30B2227E1438F4B4FE07C0B2FC05C08FEE76
S1134B40B82202C0A72C01C0AE2C8B2D90E0B4FE7D
S1134B500DC0FE01E70DF11D2081203319F4E9EEAB
S1134B60BE2209C0A394B2FE06C004C08678907029
S1134B70009709F0A3948B2C9924B3FC14C0B0FEC5
S1134B800FC0AF1428F4E72CEF0CEA18AF2C08C0C0
S1134B90E72C06C080E290E0B6010E947426A3943C
S1134BA0AF14C0F304C0AF1410F4FA1801C0FF240A
S1134BB084FE0FC080E390E0B6010E94742682FE5A
S1134BC01FC081FE03C088E590E010C088E790E034
S1134BD00DC0C40186789070009791F081FC02C0EA
S1134BE080E201C08BE2B7FC8DE290E0B6010E9446
S1134BF0742606C080E390E0B6010E947426EA940D
S1134C007E14C0F37A94F201E70DF11D808190E0E7
S1134C10B6010E9474267720A9F706C080E290E0CE
S1134C20B6010E947426FA94FF20C1F737CEF6012C
S1134C302681378102C02FEF3FEFC9012C960FB6B2
S1134C40F894DEBF0FBECDBFCF91DF911F910F91BE
S1134C50FF90EF90DF90CF90BF90AF909F908F9098
S1134C607F906F905F904F903F902F900895DC015C
S1134C70CB01FC01E199FECF06C0FFBBEEBBE09A7D
S1134C8031960DB20D9241505040B8F70895DC01B1
S1134C90CB0103C02D910E94522641505040D0F7C1
S1134CA00895262FE199FECF9FBB8EBB2DBB0FB677
S1134CB0F894E29AE19A0FBE01960895FC010590DA
S1134CC0615070400110D8F7809590958E0F9F1F0A
S1134CD00895FC016150704001900110D8F780954F
S1134CE090958E0F9F1F08950F931F93CF93DF937B
S1134CF08C01EB018B8181FF1BC082FF0DC02E81D3
S1134D003F818C819D812817390764F4E881F981FA
S1134D100193F983E88306C0E885F985802F099516
S1134D20009731F48E819F8101969F838E8302C008
S1134D300FEF1FEFC801DF91CF911F910F910895DD
S1134D40FA01AA27283051F1203181F1E8946F93B8
S1134D506E7F6E5F7F4F8F4F9F4FAF4FB1E03ED05E
S1134D60B4E03CD0670F781F891F9A1FA11D680FFC
S1134D70791F8A1F911DA11D6A0F711D811D911D2F
S1134D80A11D20D009F468943F912AE0269F1124A4
S1134D903019305D3193DEF6CF010895462F477008
S1134DA0405D4193B3E00FD0C9F7F6CF462F4F7063
S1134DB0405D4A3318F0495D31FD4052419302D0C1
S1134DC0A9F7EACFB4E0A695979587957795679567
S1134DD0BA95C9F700976105710508959B01AC0167
S1134DE00A2E06945795479537952795BA95C9F78E
S1134DF0620F731F841F951FA01D0895629FD00129
S1134E00739FF001829FE00DF11D649FE00DF11D81
S1134E10929FF00D839FF00D749FF00D659FF00D30
S1134E209927729FB00DE11DF91F639FB00DE11D1D
S1134E30F91FBD01CF011124089597FB092E052602
S1134E400ED057FD04D014D00AD0001C38F450956D
S1134E504095309521953F4F4F4F5F4F0895F6F79A
S1134E6090958095709561957F4F8F4F9F4F0895D2
S1134E70A1E21A2EAA1BBB1BFD010DC0AA1FBB1F5A
S1134E80EE1FFF1FA217B307E407F50720F0A21BCC
S1134E90B30BE40BF50B661F771F881F991F1A9439
S1134EA069F760957095809590959B01AC01BD0163
S10B4EB0CF010895F894FFCF2F
S1134EB80000BC0000000000000100000100AE007A
S1134EC8AD00A30197011910181000000000380361
S1134ED8000000000000000200000000B20600000C
S1134EE8000000000002000000005A0A0000000050
S1134EF8000052696D65004201450B0C0B810C8062
S1134F080CA90D9D0D181000000000FA0E38106150
S1134F180E0080C0E0F0F8FCFEFF6E756C6C7264E5
S1134F2863006A01E11001114A11E410CA10D0109B
S1134F38DE10D811691143534D410086017814BE1F
S1134F4812801286128C1292121B00020027032967
S1134F5803060008005F0367030500080097039F22
S1134F680300003E17000000000200080004040CBF
S1134F7804350002001C041E04BA000800880490CA
S1134F88040000971C00000000A91DCB1A4E1E1136
S1134F981FB51B4B1B611A691A161B2C1B02082010
S10D4FA800170B00000100000000D8
S9030000FC
