S013000068656C6C6F2D776F726C642E73726563A8
S11300000C948C000C94AB000C94AB000C94AB00DF
S11300100C94AB000C94AB000C94AB000C9419330F
S11300200C94AB000C94AB000C94AB000C94AB00A0
S11300300C94AB000C94AB000C94AB000C94F10446
S11300400C94AB000C94AB000C9481020C94AB00A8
S11300500C94AB000C94AB000C94AB000C94AB0070
S11300600C94AB000C94AB000C9441330C94AB0097
S11300700C94AB000C94AB000C94AF020C94AB004A
S11300800C94AB000C94AB000C94AB0025732025AE
S1130090732C206368616E6E656C20636865636BA6
S11300A0207261746520256420487A2C2072616472
S11300B0696F206368616E6E656C20256420284D2D
S11300C06963617A290A004D414320253032783A28
S11300D0253032783A253032783A253032783A254C
S11300E03032783A253032783A253032783A253031
S11300F032780A0025640A0025642E0052696D6571
S11301002073746172746564207769746820616413
S1130110647265737320000011241FBECFEFD0E119
S1130120DEBFCDBF12E0A0E0B1E0E2E4F4E700E01E
S11301300BBF02C007900D92A034B107D9F71FE09E
S1130140A0E4B2E001C01D92AC30B107E1F70E9417
S113015066030C941F3A0C94000080E091E00E9426
S1130160B5368FE690E00E944F038BE690E00E9444
S11301704F0381E690E00E944F0389E790E00E94DC
S11301804F0387E00E9428090895CF93DF93EC0181
S113019088819981009721F08F349105A9F524C0B5
S11301A00E941E0960E072EC81E090E00E94FA086F
S11301B08DEA90E00E94860689E091E00E94B536BF
S11301C084E00E9428090E94AD0081E690E00E942C
S11301D04F0381E492E060E270E00E94FB018FE44F
S11301E090E09983888314C0683891F48FEF0E945B
S11301F030098091400281700E9428098091400258
S11302008F5F80934002E1CF1982188283E001C09E
S113021081E0DF91CF9108958091490290914A0243
S1130220009729F410924C0210924B0208950E94F8
S11302306905E0914902F0914A02228133814081AB
S11302405181240F351F281B390B0CC04281538167
S113025060817181460F571F481B590B4217530782
S113026008F49A010480F581E02D309779F7280F7E
S1130270391F30934C0220934B02089588E291E099
S11302800E945C180895CF92DF92EF92FF920F9331
S11302901F93CF93DF937C01FC01808191810097B0
S11302A029F08A35910509F06EC00BC010924A02FC
S11302B0109249028AE590E0F7019183808381E0FE
S11302C066C0673849F5CA01E0914902F0914A02D3
S11302D003C00480F581E02D309741F326813781F6
S11302E028173907B1F3E0934902F0934A020FC08B
S11302F016962D913C9117972817390739F41496BF
S11303002D913C91159735832483DF01FD01A48150
S1130310B581109769F7CECF623861F6C091490272
S1130320D0914A0200E010E02BC0CE010E94461991
S11303300097F1F08E819F8168E8AE010E94FF175B
S11303400097A1F41F821E828C819D8101151105E5
S113035021F0F8019583848304C090934A0280932A
S113036049021D821C820E940C01D8CF0E943E01CA
S11303708E019C818D81C92EE6016E01D82EE60185
S1130380209799F697CFF7011182108283E0DF91CD
S1130390CF911F910F91FF90EF90DF90CF90089530
S11303A0CF93DF93EC010E943E018E819F810097E1
S11303B069F0E0914902F0914A0206C0EC17FD078A
S11303C0A9F00480F581E02D3097C1F780912704CE
S11303D0909128049F838E838091490290914A02D0
S11303E09D838C83D0934A02C09349020E940C01DE
S11303F0DF91CF910895CF93DF93EC010E942619EA
S1130400CE010E94D001DF91CF910895CF93DF9365
S1130410EC010E943219CE010E94D001DF91CF91EC
S11304200895CF93DF93EC010E943C19CE010E9402
S1130430D001DF91CF910895FC0180819181860FD5
S1130440971F918380830E940C01089521E030E07E
S1130450FC0186819781009711F020E030E0C9010A
S11304600895FC012281338180819181280F391FF5
S1130470C9010895FC0180819181089521E030E053
S11304808091490290914A02009711F420E030E0F3
S1130490C90108958091490290914A02009729F078
S11304A020914B0230914C0202C020E030E0C9019F
S11304B00895CF93DF93EC01E0914902F0914A0251
S11304C08E179F0741F48C819D8190934A028093FB
S11304D0490214C0FC01309731F0848195818C1756
S11304E09D07C1F707C01D821C821F821E82DF91F7
S11304F0CF9108958C819D81958384830E940C0102
S1130500F2CF1F920F920FB60F920BB60F921124D7
S11305102F933F934F935F936F937F938F939F9307
S1130520AF93BF93EF93FF938CB1E0919C0CF09148
S11305309D0C309709F00995FF91EF91BF91AF9110
S11305409F918F917F916F915F914F913F912F91E7
S11305500F900BBE0F900FBE0F901F9018951F9217
S11305600F920FB60F920BB60F9211242F933F9355
S11305704F935F936F937F938F939F93AF93BF93A7
S1130580EF93FF9380919C00E0919A0CF0919B0C67
S1130590309709F00995FF91EF91BF91AF919F9129
S11305A08F917F916F915F914F913F912F910F9018
S11305B00BBE0F900FBE0F901F901895882361F407
S11305C01092900069B988E98AB940939500109215
S11305D09D0C10929C0C0895813069F4109298003F
S11305E06093990088E980939A0040939D0010924B
S11305F09B0C10929A0C0895882321F45D9BFECFE6
S11306006CB90895813031F480919B0085FFFCCF53
S113061060939C0008951F93182F8A3031F48091C1
S11306204D026DE00E94FC0202C08D3029F08091E1
S11306304D02612F0E94FC0280E090E01F9108951A
S1130640882329F470939D0C60939C0C0895813049
S113065021F470939B0C60939A0C0895EF92FF928F
S11306601F93CF93DF93182FE62EE7017E01F72E19
S1130670E7010CC08A3021F4812F6DE00E94FC0256
S113068069916D3019F0812F0E94FC0288818823C2
S113069089F7DF91CF911F91FF90EF900895682F14
S11306A080E00E94FC02089580934D0280E391E073
S11306B09093090F8093080F089580E063E046E06B
S11306C00E94DE0280E00E94540308950E941E09E5
S11306D084E00E9428090E945D030E944D0581E088
S11306E00E9428090E94E3050E94A20420919E0C06
S11306F080914E0290914F02820F911D0E94C81B5F
S11307000E948A1B0E947B1788E291E060E070E0FF
S11307100E9439180E94B91A82E00E9428090E9496
S11307209B0387E00E94300984E291E00E947218E2
S11307300E948D17FDCFCF92DF92EF92FF920F931D
S11307401F93DF93CF93CDB7DEB728970FB6F894F6
S1130750DEBF0FBECDBF80914E0290914F02009735
S113076039F48091A50C89838091A40C8A8302C0FA
S113077089839A838E010F5F1F4FC8010E947209FB
S113078000D08CEF90E0ADB7BEB712969C938E93D9
S113079011970E94953600D0EDB7FEB7319688EFD9
S11307A090E0ADB7BEB712969C938E931197898152
S11307B0828313820E949536EDB7FEB7319684EF9B
S11307C090E0ADB7BEB712969C938E9311978A8131
S11307D0828313820E9495360F900F900F900F9092
S11307E00E9427319091A70C80E02091A80C7C01F5
S11307F0E20EF11C88E0F80111928A95E9F7C8012C
S113080067EA7CE00E9457098DB79EB742970FB6FE
S1130810F8949EBF0FBE8DBFEDB7FEB7319687EC3F
S113082090E0ADB7BEB712969C938E9311978981D1
S1130830828313828A81848315828B8186831782C3
S11308408C81808711868D81828713868E8184872F
S113085015868F81868717868885808B118A0E94EA
S11308609536EDB7FEB772960FB6F894FEBF0FBE7D
S1130870EDBF8DEC9BEAB701A8010E949D308AE18F
S113088090E00E944D30E091A801F091A9010995F2
S1130890E091C901F091CA010995E0917701F091C5
S11308A0780109950091C7011091C801C090A60173
S11308B0D090A701E090B401F090B501F70109953B
S11308C0009741F0F7010995BC0180E890E00E948F
S11308D0F83502C060E870E08DB79EB70A970FB68E
S11308E0F8949EBF0FBE8DBFEDB7FEB731968CE86E
S11308F090E0ADB7BEB712969C938E931197138375
S11309000283D582C482778366838AE190E09187EB
S113091080870E949536EDB7FEB73A960FB6F894E5
S1130920FEBF0FBEEDBF28960FB6F894DEBF0FBE14
S1130930CDBFCF91DF911F910F91FF90EF90DF908A
S1130940CF900895DF93CF9300D000D00F92CDB70E
S1130950DEB78FB78983F89480E090E0BE016E5FC4
S11309607F4F44E050E00E940E098A819B812EED66
S11309708D3A920719F48C819D8102C080E090E049
S113098090934F0280934E0289818FBF0F900F90F6
S11309900F900F900F90CF91DF910895DF93CF9335
S11309A000D000D00F92CDB7DEB72DEA3EED3B83E9
S11309B02A839D838C838FB78983F89480E090E0A9
S11309C0BE016E5F7F4F44E050E00E9406098981BA
S11309D08FBF0F900F900F900F900F90CF91DF91DA
S11309E008951F920F920FB60F920BB60F92112417
S11309F02F933F934F935F936F937F938F939F9323
S1130A00AF93BF93EF93FF9380915402909155025B
S1130A1001969093550280935402809156029091CE
S1130A205702019690935702809356028091560282
S1130A309091570280389105B9F4109257021092A0
S1130A4056028091500290915102A0915202B091AD
S1130A5053020196A11DB11D80935002909351023F
S1130A60A0935202B09353020E943E02009711F0E9
S1130A700E943E01FF91EF91BF91AF919F918F91A1
S1130A807F916F915F914F913F912F910F900BBE8A
S1130A900F900FBE0F901F901895F89487B78C7F16
S1130AA087BF80B7886080BF8BE083BF12BE88E0B9
S1130AB081BF16BE80B790E0877090700097D1F721
S1130AC087B7826087BF10925502109254027894BF
S1130AD008952091540230915502809154029091CE
S1130AE0550228173907A9F7C901089507C022E359
S1130AF030E0000021503040E1F701970097B9F74A
S1130B0008950F931F93CF93DF938C010E9469057F
S1130B10EC010E9469058C1B9D0B80179107C8F39B
S1130B20DF91CF911F910F91089508952091500264
S1130B3030915102409152025091530280915002DF
S1130B4090915102A0915202B09153022817390793
S1130B504A075B0759F7B901CA01089587E090E095
S1130B6020E030E0AAE0B0E060E170E045E650E06B
S1130B70D49ADC98FD013197F1F7D498DC9AFB0103
S1130B803197F1F7CC992068FA013197F1F7009782
S1130B9011F4C9010895019736952795E9CF68277F
S1130BA0792788E090E04CE850E09B013695279542
S1130BB060FF04C0B9016427752701C0B90101971A
S1130BC0A1F7CB010895CF92DF92EF92FF920F939A
S1130BD01F93DF93CF930F92CDB7DEB7D498DC98F1
S1130BE08FB78983F894D49ADC9889E993E00197C4
S1130BF0F1F7D498DC9A80E890E00197F1F729B3F3
S1130C0083EF92E00197F1F724FD5AC0B8E0A3E323
S1130C10EEE6F0E062E170E04AE050E025E730E023
S1130C20A0FF09C0D49ADC98CA010197F1F7D498BF
S1130C30DC9AC90108C0D49ADC98CF010197F1F776
S1130C40D498DC9ACB010197F1F7B15011F0A69535
S1130C50E7CF0E94AE056C0106EA1CE078010E9411
S1130C60AE05D7018E937D01B0EAEB16BCE0FB061E
S1130C70B1F70E94AE057C0189818FBFE1E0CE16F9
S1130C80D10401F580E090E061E070E00E94CF05BE
S1130C90D8016E918D0170E00E94CF05BCE0003A4E
S1130CA01B07B1F78E159F0569F410929E0C8AE11B
S1130CB080939F0C8CE48093A00C21E030E00BC067
S1130CC089818FBF88E0EEE9FCE0DF011D928A95FF
S1130CD0E9F720E030E0C9010F90CF91DF911F9137
S1130CE00F91FF90EF90DF90CF90089510925D02E6
S1130CF010925C0210925F0210925E0210926102E6
S1130D001092600281E080936202089590935902E8
S1130D108093580208950F931F93CF93DF9380EC31
S1130D200E944F0302E31DE0C0E0D0E019C0C832C6
S1130D30D10521F40091B50D1091B60DF801819102
S1130D408F01803C29F48BED0E944F038CED05C08C
S1130D508B3D19F40E944F038DED0E944F032196A1
S1130D6080912A0D90912B0DC817D90700F380ECC0
S1130D700E944F0380E0DF91CF911F910F9108955E
S1130D80EF92FF920F931F93CF93DF938B01E82E83
S1130D90F92E80EC0E944F03C0E0D0E012C0F701AE
S1130DA081917F01803C29F48BED0E944F038CEDEF
S1130DB005C08B3D19F40E944F038DED0E944F0333
S1130DC02196C017D10758F380EC0E944F03802F5F
S1130DD0DF91CF911F910F91FF90EF900895AF9203
S1130DE0BF92CF92DF92EF92FF920F931F93DF9304
S1130DF0CF93CDB7DEB728970FB6F894DEBF0FBEFA
S1130E00CDBF5C01DC018D919C911197009731F06D
S1130E10B1E085309B0709F027C108C00E9476061F
S1130E2085E091E0F5019183808323C1623809F064
S1130E3020C187E090E00E94280982E60E944F03C7
S1130E4081E08093A60CE0906002F090610287013B
S1130E500D591D4FD8018C91833451F580915E0258
S1130E6090915F02E816F90618F58E199F098630ED
S1130E709105F0F0C8016EE371E046E050E00E9495
S1130E806A360097A9F41092620286E0D8011D9296
S1130E908A95E9F70E94760605E411E0F80181914C
S1130EA08F010E944F03F1E002351F07B9F759C0C3
S1130EB0C0905C02D0905D02EC14FD0409F451C0B2
S1130EC0EC14FD0488F486010E191F09013811057C
S1130ED070F542E35DE097012D593D4FCA01B90118
S1130EE0A8010E94773625C0860100571F4F0E19AE
S1130EF01F0901381105D8F4D701AD59BD4FE2E3FC
S1130F00FDE005C08D9181930894E11CF11C20E95A
S1130F10E216F104B8F3A3E6B2E0C6018A0F9B1F00
S1130F2002C02D912193A817B907D9F702C000E098
S1130F3010E0D0926102C092600280916202882324
S1130F4091F480915E0290915F0290935D02809390
S1130F505C0281E08093620288E591E00E945C1863
S1130F6002C000E010E010932B0D00932A0D043012
S1130F70110561F582E39DE063E571E044E050E032
S1130F800E948736009731F58DE399E4A0E5B1E43A
S1130F9089839A83AB83BC838091510E9091520EC6
S1130FA0A091530EB091540E8D839E83AF83B88766
S1130FB0E0915802F0915902309709F00995CE0159
S1130FC0019668E070E00E94C0062ACF0115110561
S1130FD009F445C09091340D80E02091350D820FC5
S1130FE0911D08171907D9F50E94371FAFEF8F3FDE
S1130FF09A07A9F58091360D882371F58091370DF4
S1131000882351F58091380D86FF26C080915A02BD
S113101090915B029C012F5F3F4F30935B022093C2
S11310205A029093360D8093370D0E949D289C019F
S11310302095309580913C0D90913D0D820F931F2A
S113104090933D0D80933C0D8217930728F40196ED
S113105090933D0D80933C0D0E94A42AE1CE109202
S11310602B0D10922A0DDCCEF5011182108283E043
S113107001C081E028960FB6F894DEBF0FBECDBF45
S1131080CF91DF911F910F91FF90EF90DF90CF9060
S1131090BF90AF9008951F93182F87E090E00E94AF
S11310A0280986E70E944F03812F805D0E944F0329
S11310B0809162028130C1F0813008F46EC08230C8
S11310C039F08330A1F5103C09F067C081E00FC00E
S11310D01C3D19F01D3DF1F502C010EC01C01BEDE3
S11310E081E08093620223C01B3D21F482E080935F
S11310F0620253C0103CD9F480915E0290915F0269
S113110020915C0230915D028217930709F445C077
S113111040916002509161024217530729F4909361
S11311205D0280935C0232C0109262022FC0609113
S11311305E0270915F029B012F5F3F4F20393105A2
S113114011F420E030E040916002509161022417D4
S1131150350761F483E08093620280915C02909190
S11311605D0290935F0280935E0217C06D597D4FBC
S1131170FB01108330935F0220935E02143569F4FF
S11311804D595D4FFA018081833439F488E591E04B
S11311900E945C1821E030E002C020E030E0C90188
S11311A01F9108951F93182F8091F302882349F407
S11311B080EC0E944F038DE00E944F0381E08093F6
S11311C0F302812F0E944F031A3029F480EC0E940D
S11311D04F031092F302212F332727FD3095812FDF
S11311E0932F1F91089587E090E00E94280980E0E2
S11311F090E0089580E06BE478E00E94200380E6AC
S113120091E09093090F8093080F08959C01CB01FE
S1131210E199FECFB9010E940C3908959C01CB01DC
S1131220E199FECFB9010E94FC3808959091F4022F
S11312308091F50289270E94632D08950E944C2D08
S11312401092F4021092F50208950E94532D08950D
S11312509091F502982B9093F5020E941609089537
S113126080959091F50298239093F5020E941609B7
S113127008959091F40298279093F4020E9416091D
S113128008950E94390908951F931091F4028091E2
S1131290F50218271095812F0E94390980E991E001
S11312A00E947605812F0E9439091F910895FC013F
S11312B0DB018C91808311968C9111978183089521
S11312C0FC01DB0190818C91981741F421E030E01E
S11312D0918111968C911197981711F020E030E0CC
S11312E0C9010895FC0180818093A70C81818093BA
S11312F0A80C08950F931F93CF93DF938091AD0CA7
S11313009091AE0CA091AF0CB091B00C0196A11DC0
S1131310B11D8093AD0C9093AE0CA093AF0CB09321
S1131320B00C0E94A10CEC0186EF92E00E947619A9
S11313300BC0D8011296ED91FC911397309709F0E8
S11313400995C8010E943C1A082F192F011511058F
S113135081F7209719F0CE010E948A0CDF91CF917A
S11313601F910F9108950E94801D0E94FA1C0E94F3
S11313702F0A0E949E0C82E090E060E072E040E060
S11313805EE12FEF31E00E94CC0B0895CF92DF9203
S1131390EF92FF920F931F93CF93DF936C01EB01B6
S11313A08A0186EF92E00E9476190CC0D701149648
S11313B0ED91FC911597309711F0CE010995C70175
S11313C00E943C1AE82EF92EE114F10479F7C601C3
S11313D0BE01A8010E94920CDF91CF911F910F9141
S11313E0FF90EF90DF90CF900895BC0186EF92E0DC
S11313F00E94FD190895BC0186EF92E00E94C41971
S11314000895CF93DF93EC018091A90C9091AA0CDD
S1131410A091AB0CB091AC0C0196A11DB11D8093B1
S1131420A90C9093AA0CA093AB0CB093AC0CCE0176
S11314300E94B10C009769F00E94741CE091CB01EA
S1131440F091CC0186EC99E0BE01099521E030E0F1
S113145002C020E030E0C901DF91CF91089588EF08
S113146092E00E94721908950F93CF93DF93EC01D9
S11314707B836A8318865F834E8388EF92E0BE0184
S11314800E94FD19E091FA02F091FB02309749F0B5
S11314904C815D818A819B81688520E030E001E098
S11314A00995DF91CF910F910895BC0188EF92E0E7
S11314B00E94C41908950F93DC0118961C92189782
S11314C0E091FA02F091FB02309759F012968D9157
S11314D09C91139760E040E050E020E030E000E0B1
S11314E009950F9108950F93DC01AB0114962D918A
S11314F03C91159781E018968C93189715967C93D8
S11315006E931497E091FA02F091FB02309739F050
S113151012968D919C91139761E000E009950F91CB
S113152008950F93DC01E091FA02F091FB023097E9
S113153069F014962D913C91159712968D919C917A
S1131540139718966C91A90101E009950F910895DC
S1131550E091FC02F091FD02309709F0099508959D
S11315609093FD028093FC0208959093FB02809374
S1131570FA02089588EF92E00E9476190895EF9296
S1131580FF920F931F93CF93DF938C01EB017A01AA
S113159088EF92E00E94761915C0DC0112962D9115
S11315A03C9113972C173D0759F41696ED91FC9135
S11315B01797309761F0B801AE019701099507C0FC
S11315C00E943C1A282F392FC901009731F7DF9167
S11315D0CF911F910F91FF90EF9008950895AF92CE
S11315E0BF92CF92DF92EF92FF920F931F93DF93FC
S11315F0CF9300D0CDB7DEB75B010E94571C8C019E
S1131600FC01E080F180FA82E9820E94A91C970122
S1131610220F331F220F331F2E5F3F4F8217930772
S113162098F0CC24DD240DC0F801628173814481DB
S11316305581C5010E94BF0A0894C11CD11C0C5FCE
S11316401F4FCE14DF0480F30F900F90CF91DF91E2
S11316501F910F91FF90EF90DF90CF90BF90AF90CC
S11316600895CF93DF93C9E1D3E060912F03709184
S11316703003CE0143E65BE020E030E00E94C61A6E
S11316800E94CB1B60912F03709130030E94F835A8
S1131690BC01CE01409748E75BE020E030E00E94C7
S11316A0C61ADF91CF9108950F93013051F48091C0
S11316B0290390912A039093300380932F030E946F
S11316C0310B0F91089580912F0390913003209155
S11316D02D0330912E03880F991F2817390708F41A
S11316E0C9019093300380932F030E94310B089516
S11316F0EF92FF92CF93DF930E94FA1C0E94571C33
S1131700E82EE7017E01F92EE701198218820E9472
S1131710BA0A26C028813981F901EE0FFF1FEE0FA6
S1131720FF1FEC0FFD1FDC0112964D915C91139786
S1131730538342832F5F3F4FF901EE0FFF1FEE0FDC
S1131740FF1FEC0FFD1F14964D915C91159751836B
S11317504083398328830E943C1A282F392FC901DA
S1131760009721F0FC0120852223A1F6888199812C
S1131770880F991F880F991F02960E94521C888116
S11317809981009721F08EEF92E00E945C0CDF912A
S1131790CF91FF90EF900895EF92FF920F931F93D4
S11317A0CF93DF93FC018B017A01E9018EEF92E084
S11317B0BF014BE751E00E943E0C10932A030093B3
S11317C02903F0922C03E0922B03D0932E03C093B1
S11317D02D0384E59BE00E94B50ADF91CF911F9110
S11317E00F91FF90EF900895CF93DF93C9E1D3E079
S11317F0CE010E944D1BCE0140970E944D1BCE018D
S11318004B970E94590CDF91CF91089580912F033B
S1131810909130030895DC011996ED91FC911A978B
S11318200280F381E02D309709F009950895EF9235
S1131830FF920F931F93DF93CF9300D0CDB7DEB702
S11318408C017E010894E11CF11CC70162EF7CE06D
S11318500E945709D8011996ED91FC911A970190AD
S1131860F081E02DC801B70109950F900F90CF9139
S1131870DF911F910F91FF90EF900895EF92FF92E7
S11318800F931F93CF93DF93EC018B017A014FE702
S113189051E00E946B0CFA86E986C80163E871E0A6
S11318A00E94FB0CDF91CF911F910F91FF90EF905D
S11318B008950E94840C0895CF93DF93EC0182EF86
S11318C09CE067EA7CE00E945709CE010E94870CE5
S11318D0DF91CF910895EF92FF920F931F93CF93CF
S11318E0DF93EC018B017A010E94D40CF886EF821D
S11318F0C80167E871E00E94FB0CDF91CF911F9152
S11319000F91FF90EF9008950E94DD0C08950E94BE
S1131910010A0895FC01A781B0852D913C91F9013C
S113192009950895DC011796ED91FC9118970280B2
S1131930F381E02D309709F0099508950E94CF0CAA
S11319400895E0918901F0918A010995FC010097BD
S113195031F0828193819093FD0C8093FC0CCF0134
S11319600895CF93DF93EC01E0918B01F0918C010A
S113197009952A813B813093FD0C2093FC0C21E0D6
S113198030E0009711F420E030E0C901DF91CF91FD
S11319900895E0918D01F0918E010995089583E3F6
S11319A093E00E9472190895FC017383628383E3B8
S11319B093E0BF010E94FD190895BC0183E393E005
S11319C00E94C4190895CF93DF93EC0183E393E05D
S11319D00E94761908C0828193818C179D0739F083
S11319E0CF010E943C1AE82FF92F3097A1F7CF01BD
S11319F0DF91CF9108950F931F93CF93DF938B01C2
S1131A000E94E30CEC01009731F01D830C83C801A4
S1131A100E94C90C8E83DF91CF911F910F9108957D
S1131A20FC0120E030E004C08181280F311D329692
S1131A3080818823C9F7C9010895FC01818190E060
S1131A40308120E0822B932B02C0880F991F6A9566
S1131A50E2F7892F9927FA01E157FE4F208130E000
S1131A608223932328E030E0241B350B02C0969593
S1131A7087952A95E2F708956F927F928F929F92AD
S1131A80AF92BF92CF92DF92EF92FF920F931F9388
S1131A90CF93DF936C017B015A0189012830310512
S1131AA044F4CB01BA01A9010E941D0DF601808303
S1131AB041C0390133E0759467943A95E1F74115D3
S1131AC0510521F04C01C0E0D0E016C0DB01FC015F
S1131AD0C0E0D0E08D9181932196C615D705D4F34B
S1131AE0A801477050704115510521F1C7018C0FB1
S1131AF09D1F60E070E019C0C7018C0F9D1FB501E8
S1131B0048E050E00E941D0DF40181934F0121969D
S1131B10C615D7058CF3A8014770507041155105BF
S1131B2049F0C7018C0F9D1FB5010E941D0DCC0DFE
S1131B30DD1D8883DF91CF911F910F91FF90EF906E
S1131B40DF90CF90BF90AF909F908F907F906F90D9
S1131B5008954F925F926F927F928F929F92AF926D
S1131B60BF92CF92DF92EF92FF920F931F93DF9376
S1131B70CF9300D000D0CDB7DEB70E94571CE82E1B
S1131B80092F82E090E00E94331C009709F473C08F
S1131B90EE2DF02F918180E02081820F911D0E9413
S1131BA0E30C7C01009709F468C00E94571C3C01B7
S1131BB0D70116964C911697242F30E02770307079
S1131BC081E090E02115310511F480E090E0469524
S1131BD046954695840F911D0E94331C009709F485
S1131BE04AC0F70104811581CC24DD24F3E04F2E93
S1131BF0512C4C0E5D1E4E010894811C911C36C064
S1131C00D8011196AC901197BB24B601E3E0759509
S1131C106795EA95E1F7660D771DA6014770507048
S1131C20883178F0C40195010E943C0DF80180814F
S1131C3090E0880F991F8E53934FB4010E94570967
S1131C4011C01C821B82C20195010E943C0DD80167
S1131C50EC91F0E0EE0FFF1FE650F34F8B819C8177
S1131C6091838083CA0CDB1C0E5F1F4FF8018081B7
S1131C70882331F602C0EE24FF24C7010F900F9091
S1131C800F900F90CF91DF911F910F91FF90EF90E4
S1131C90DF90CF90BF90AF909F908F907F906F9088
S1131CA05F904F900895FC0150E080E190E0861B26
S1131CB0970B821B930B02C0440F551F8A95E2F7C2
S1131CC08081852B80838181842B818308956F9209
S1131CD07F928F929F92AF92BF92CF92DF92EF92B8
S1131CE0FF920F931F93CF93DF938C015B016A01E3
S1131CF079012830310524F4C801FA01408156C025
S1131D003901A3E075946794AA95E1F7611571050B
S1131D1021F04A01C0E0D0E021C0DA01F80180E0FE
S1131D2090E02D912193019686159705D4F39701A0
S1131D302770307021153105D9F1F601E80FF91F2C
S1131D40408150E068E070E0621B730B02C055955F
S1131D5047956A95E2F7800F911F26C0F4014191DF
S1131D604F01C8018C0F9D1FB50128E030E00E948F
S1131D70530E2196C615D7058CF397012770307042
S1131D8021153105A9F0F601EC0FFD1F408150E04B
S1131D90C5010896821B930B02C0559547958A95F9
S1131DA0E2F7C8018C0F9D1F60E070E00E94530EA3
S1131DB0DF91CF911F910F91FF90EF90DF90CF9023
S1131DC0BF90AF909F908F907F906F9008958F9267
S1131DD09F92AF92BF92CF92DF92EF92FF920F93B6
S1131DE01F93DF93CF9300D0CDB7DEB78C01DC0116
S1131DF016964C911697842F90E08770907021E08E
S1131E0030E0009711F420E030E046954695469581
S1131E107901E40EF11CC70102960E94BF1C0097D1
S1131E2009F455C00E945F1CFC01D80112968C91E4
S1131E301297808313968C9181830E945F1C42E0E9
S1131E40A42EB12CA80EB91EC50160E070E0A70154
S1131E500E948036F801E480F58000E010E04E0135
S1131E600894811C911C2CC0D7011196CC90119719
S1131E70DD24C80133E0959587953A95E1F78A0DFD
S1131E809B1DB80167707070422F50E0283128F014
S1131E90440F551F4E53534F0AC0FA01EE0FFF1F54
S1131EA0E650F34F208131813A832983A4019601BE
S1131EB00E94670E0C0D1D1DE2E0F0E0EE0EFF1E09
S1131EC0D7012C91222381F621E030E002C020E0EA
S1131ED030E0C9010F900F90CF91DF911F910F91C6
S1131EE0FF90EF90DF90CF90BF90AF909F908F9036
S1131EF0089580913503882361F0809148038823F5
S1131F0041F481E080934803E0913502F091360278
S1131F100995089580913503882379F080914803C9
S1131F20882359F080913C03882339F410924803A4
S1131F30E0913702F09138020995089580914703A2
S1131F40882331F480914603882311F40E948A0F78
S1131F50089510923503009731F0E0913502F09125
S1131F60360209950895E0913702F09138020995F7
S1131F70089580E190E008950F931F9381E080938A
S1131F803503609188007091890080919A01909145
S1131F909B01680F791F86E393E041E050E021EF55
S1131FA03FE000E010E00E948D1B81E090E01F9173
S1131FB00F9108950F931F939B0140913503442380
S1131FC069F0FC0160817181620F731F41E050E090
S1131FD021EF3FE000E010E00E948D1B1F910F9164
S1131FE00895CF93DF93EC0180913C038823D1F0D3
S1131FF0809188009091890020913D0330913E03A7
S1132000821B930B97FD0EC010923C038FE393E069
S11320106EE671E00E94570981E493E06EE671E098
S11320200E945709809143039091440321E0853332
S1132030920721F121E08434920719F0009709F006
S11320404CC080914503882329F080914503815039
S11320508093450380914703882331F4809146039C
S1132060882311F40E94790F60919801709199016D
S1132070CE010E94DA0F85E391E029C080919A0194
S113208090919B010097E9F2E0913102F0913202C4
S113209009950097B1F60E949E0F8091460388230C
S11320A069F0809146038F5F8093460380914603D5
S11320B0833020F0109246030E949E0F60919A0193
S11320C070919B01CE010E94DA0F84E491E0909319
S11320D044038093430381E005C0109244031092AB
S11320E0430383E0DF91CF9108950F931F93CF9320
S11320F0DF93E091C001F091C101099597FD7CC087
S11321000E94571CFC018081882309F456C0109258
S1132110450384EF9CE067EA7CE00E946009009735
S113212049F484EF9CE06EE671E00E946009009738
S113213009F462C00E948A0F0BE413E0C0E0D0E00F
S1132140F801808190E02091140D3091150D28172D
S1132150390771F4BE01660F771F6C0F7D1F675B33
S11321607C4F82EF9CE00E946009009709F044C014
S113217021960D5F1F4FC830D10511F78EE593E00E
S1132180DC01FC01339723E001900D922150E1F72B
S11321900397F3E089349F0799F72091140D209356
S11321A04B0362EF7CE00E94570910924603E091D2
S11321B0CD01F091CE0109951FC081818031E1F4F8
S11321C082E08093450384EF9CE067EA7CE00E9410
S11321D06009009721F081E0809346030DC084EFED
S11321E09CE06EE671E00E946009009729F081E0AE
S11321F0809346030E94790FDF91CF911F910F9135
S113220008950F931F93DF93CF9300D000D00F92C4
S1132210CDB7DEB7009188001091890081E00E945B
S11322202809009510958091880090918900800F6D
S1132230911F97FDF8CF81E00E943009E0913102AF
S1132240F09132020995009771F4E0913302F09114
S113225034020995009739F4E0912F02F09130028D
S113226009950097C9F420918800309189008091E4
S11322708800909189000797821B930B97FDF7CFF5
S1132280E0912D02F0912E02CE01019663E070E000
S113229009958330910561F080E090E00F900F90F4
S11322A00F900F900F90CF91DF911F910F91089590
S11322B084E00E94410981E0F0CF2F923F924F9237
S11322C05F926F927F928F929F92AF92BF92CF92C2
S11322D0DF92EF92FF920F931F93DF93CF93CDB7CB
S11322E0DEB7E6970FB6F894DEBF0FBECDBF9CAB4A
S11322F08BAB7EAB6DAB809145038823B1F08091AD
S1132300E50C9091E60CA091E70CB091E80C0196D5
S1132310A11DB11D8093E50C9093E60CA093E70CEE
S1132320B093E80C41E050E092C182EF9CE067EA90
S11323307CE00E94570984EF9CE06EE671E00E9405
S113234060094C0181E090E09093110D8093100D91
S1132350E091BE01F091BF0109957C0197FD6CC12C
S113236042E0442E512C480E591E83E34816510472
S11323700CF062C10E945F1CBC018E010F5F1F4FF5
S1132380C801A7010E947736F801EE0DFF1D1082E7
S1132390FE01EE0DFF1D80E182830E94741C0E94E9
S11323A08D1D5C01009709F44AC180913C03813082
S11323B081F484EF9CE06FE373E00E94600900976E
S11323C059F484EF9CE061E473E00E946009009793
S11323D019F4CC24DD2403C031E0C32ED12C809128
S11323E0160D9091170D8230910531F581E080939F
S11323F03C038FE393E06EE671E00E94600900976E
S113240019F08FE393E00AC08FE393E064EF7CE07C
S11324100E946009009731F481E493E064EF7CE06A
S11324200E9457098091880090918900805E934EA4
S113243090933E0380933D030E948A0F81E693E0CC
S11324400E947619082F192F24E8E22E23E0F22E99
S11324502BC0B8016E5F7F4F84EF9CE00E9460093F
S11324600097E9F02091880030918900F801848177
S11324709581821B930BB7010E94F8358A3591052B
S113248010F484E893E02A553040280F391F8091D6
S1132490880090918900821B930B97FDF8CFC801A7
S11324A00E943C1A082F192F0115110591F691E08D
S11324B0E92EF12C8114910411F4EE24FF2481E01F
S11324C0809347032090880030908900C114D10480
S11324D009F04FC00E94B233009188001091890026
S11324E060902B0270902C026E010894C11CD11CC8
S11324F02AC08091880090918900821B930B801BD5
S1132500910B97FDF6CF0091880010918900E1149A
S1132510F10469F0C5010E94091E0E945F1C4C0170
S11325200E94B31CBC01C401F30109950AC00E94B6
S1132530790FC601B201F30109950E9401110097B8
S1132540A9F40E948A0F80918800909189002091BB
S11325509C0130919D0182199309821B930B97FF73
S113256008C020919E0130919F01C3CF8824839499
S113257001C08824C5010E94091EC5010E94E71DEF
S1132580E114F10431F4882021F480913C03882380
S1132590A1F0C0902B02D0902C020E945F1C8C01F1
S11325A00E94B31CBC01C801F6010995E114F104B1
S11325B021F40E940111009711F4CC2402C0CC2410
S11325C0C3940E948A0F882069F180913C03882378
S11325D049F581E693E00E94761910C0B8016E5F58
S11325E07F4F84EF9CE00E946009009721F0F8017E
S11325F01582148217C0C8010E943C1A082F192F93
S11326000115110559F744C0C801029664EF7CE036
S11326100E945709F8011582148281E693E0B801FB
S11326200E94FD190E94A63310924703E114F1049D
S113263049F4CC2039F409C045E050E008C044E036
S113264050E005C040E050E002C042E050E08BA9F9
S11326509CA96DA97EA921E030E00E949513E6961D
S11326600FB6F894DEBF0FBECDBFCF91DF911F919F
S11326700F91FF90EF90DF90CF90BF90AF909F901D
S11326808F907F906F905F904F903F902F90089520
S113269086EB91E00E94BE188C01009709F0B4CF3C
S11326A0C1CF0F931F93CF93DF938C01EB0141159F
S11326B0510549F0FA01828193810E94091EC801E3
S11326C0BE010E945D11DF91CF911F910F9108957A
S11326D00F931F93109248031092460310924403E1
S11326E010924303609188007091890080919A014F
S11326F090919B01680F791F86E393E041E050E0DD
S113270021EF3FE000E010E00E948D1B81E0809308
S1132710350381E693E00E94721986EB91E00E94F2
S11327209E181F910F9108950895FC01CB013097D5
S113273019F0BA01A901099508950F931F93DF9326
S1132740CF93CDB7DEB7E0970FB6F894DEBF0FBED8
S1132750CDBF0E94A91C8C010E94571C602FAE01A2
S11327604F5F5F4F0E942635882309F447C088A92C
S11327709801281B3109C9010E94331C0097F1F10B
S11327802E81222331F18A859B853BEA8D3C930778
S113279021F03FEF8F3F930789F5223041F088E025
S11327A090E007C0019722912F3F41F00BC082E0D7
S11327B090E0FE01E80FF91F3C96F4CF18161906B5
S11327C08CF307C084EF9CE0BE01645F7F4F0E94DE
S11327D0570982EF9CE0BE016A5E7F4F0E94570951
S11327E08B8180931E0D10921F0D89858093140D8B
S11327F01092150D88A9081B110902C00FEF1FEFD5
S1132800C801E0960FB6F894DEBF0FBECDBFCF91DE
S1132810DF911F910F910895DF92EF92FF920F9332
S11328201F93DF93CF93CDB7DEB7E0970FB6F8943D
S1132830DEBF0FBECDBFFE01319680E3DF011D92E6
S11328408A95E9F780917F03882339F481E08093A6
S11328507F030E94CB1B8093800381E089831A82CB
S113286080911E0D8B8384EF9CE06EE671E00E94E4
S11328706009009711F01C8203C08091100D8C83B5
S11328801D821F8280910E0D90910F0D009711F003
S113289089870BC0809180038987982F9F5F9093CD
S11328A0800380930E0D10920F0D02E008878DECCB
S11328B09BEA9B878A8784EF9CE06EE671E00E9426
S11328C06009009729F00E838FEF8C878D8707C0EE
S11328D0CE010C9664EF7CE00E9457090E838DECC8
S11328E09BEA9D8B8C8BCE01469667EA7CE00E9426
S11328F057090E94571C9FA78EA70E94A91C88AB4A
S11329007E010894E11CF11CC7010E941D34D82EDD
S1132910082F10E0C8010E94BF1C009741F00E94DC
S11329205F1CBC01C7014D2D0E943B3402C00FEF58
S11329301FEFC801E0960FB6F894DEBF0FBECDBFFF
S1132940CF91DF911F910F91FF90EF90DF90089549
S1132950E091B401F091B50109959C01009711F43F
S113296020E130E0C9010895E0917901F0917A0104
S113297009950895E091B001F091B1010995089588
S1132980E091B201F091B30109950895E091B40189
S1132990F091B501309719F009959C0102C020E02F
S11329A030E0C9010895EF92FF92CF93DF93E82EB0
S11329B0E7017E01F92EE701209779F0898D9A8D40
S11329C00E947619AC01009741F0E091AC01F091BE
S11329D0AD018FE196E1B7010995DF91CF91FF90A9
S11329E0EF900895AF92BF92CF92DF92EF92FF9251
S11329F00F931F93CF93DF936C017B01809181032D
S1132A00909182039C012F5F3F4F30938203209368
S1132A10810390930F0D80930E0D84EF9CE06EE67E
S1132A2071E00E946009009709F0A0C083E893E078
S1132A300E947619292FA82EE5010EC0CE01029618
S1132A4064EF7CE00E946009009711F5CE010E94BA
S1132A503C1A292FA82FED015E01B22EE501209723
S1132A6069F78CC0CE01029664EF7CE00E9457099E
S1132A701C8A1D8A1E8ACE0147969A8F898F188ECA
S1132A801F8A0E94721983E893E0BE010E94FD1917
S1132A908DED91E00E94BE188C01009709F44DC0A1
S1132AA085EE91E00E94BE18D80115969C938E93F2
S1132AB014970097E9F10E948D1DF8019383828396
S1132AC00480F581E02D009771F180910C0D9091B7
S1132AD00D0D009709F483E08483D182C082F382D0
S1132AE0E2822091160D3091170D898D9A8D213037
S1132AF0310521F4B8010E94E91903C0B8010E940C
S1132B00FD19898D9A8D0E9476198017910709F015
S1132B1042C0CE01049660E070E043ED54E19E01B2
S1132B200E94C61A38C085EE91E0BF010E94E418E5
S1132B308DED91E0B8010E94E418898D9A8D0E9470
S1132B401C1A009751F483E893E0BE010E94C41953
S1132B5085ED91E0BE010E94E418C601B70144E08E
S1132B6050E021E030E00E94951315C0E091AA01E5
S1132B70F091AB01C601B70109950DC085ED91E057
S1132B800E94BE18A82EE5015E01B92EE50120972A
S1132B9009F068CFE2CFDF91CF911F910F91FF90A1
S1132BA0EF90DF90CF90BF90AF9008950F931F9355
S1132BB0CF93DF93EC01898D9A8D0E9476198C0155
S1132BC00097C1F1FC01828193810E94E71D898DE8
S1132BD09A8D0E94B719F8016481758185EE91E0A0
S1132BE00E94E4188DED91E0B8010E94E418898DEB
S1132BF09A8D0E9476198E010C5F1F4F009769F021
S1132C001C8A1D8A1E8A0E94A814BC01C80143EDB7
S1132C1054E19E010E94C61A0DC0C8010E944D1BBA
S1132C2083E893E0BE010E94C41985ED91E0BE01E2
S1132C300E94E418DF91CF911F910F9108954F9254
S1132C405F926F927F928F929F92AF92BF92CF9238
S1132C50DF92EF92FF920F931F93CF93DF938B0139
S1132C60E82EE7017E01F92EE701898D9A8D0E94F5
S1132C7076192C01FC01E480F5800130110591F0F6
S1132C800230110524F40115110541F012C002307F
S1132C90110521F00330110561F408C08C898F5FA0
S1132CA08C8B07C08D898F5F8D8B03C08E898F5F5E
S1132CB08E8BF701C080D180A280B3807C88C8014C
S1132CC001978230910568F50E94A8144C016C8824
S1132CD00E94CB1B3C89F7012481321710F5262D65
S1132CE030E02F5F3F4F2430310514F023E030E013
S1132CF0829EB001839E700D929E700D11240E94DD
S1132D00F835BC01680D791DCE01049643ED54E1FC
S1132D109E010E94C61AF201828193810E94DC1DE9
S1132D200AC0CE010E94D615C601B501A801272DFF
S1132D3030E00E949513DF91CF911F910F91FF9086
S1132D40EF90DF90CF90BF90AF909F908F907F9047
S1132D506F905F904F9008958DED91E00E949E18C2
S1132D6085EE91E00E949E1885ED91E00E949E18E8
S1132D7008951F93CF93DF93EC01162F8E8180FF6C
S1132D801DC0EA81FB813097C9F0D0932804C09319
S1132D90270482E08E83CE0104960995992787FD46
S1132DA0909502978230910510F0133829F4CE01E2
S1132DB0BE010E94E21602C081E08E83DF91CF91B2
S1132DC01F910895CF92DF92EF92FF920F931F937A
S1132DD0CF93DF93EC017B01C0902704D0902804AB
S1132DE00091250410912604F80103C00190F0819C
S1132DF0E02DEC17FD0719F03097C1F746C0209776
S1132E0009F443C08E81882309F11E820BC0C017C8
S1132E10D10729F0C80167E8AE010E94B916F8018C
S1132E20008111810115110591F7EA81FB81309729
S1132E3069F0CE15DF0551F0D0932804C093270420
S1132E40CE01049663E840E050E00995E091250442
S1132E50F0912604CE17DF0791F48881998190932D
S1132E602604809325040DC0808191818C179D07D1
S1132E7029F4888199819183808303C0FC01309770
S1132E8099F7D0922804C0922704DF91CF911F9123
S1132E900F91FF90EF90DF90CF9008951F93CF9301
S1132EA0DF9310922904C0912504D091260411E0E7
S1132EB00EC08F81882341F01E831F82CE0162E8F9
S1132EC040E050E00E94B9160990D881C02D2097A7
S1132ED081F7DF91CF911F91089580915C04982F21
S1132EE09F5F90935C040895609127047091280477
S1132EF00E94E21608958AE880935C0410922B04E1
S1132F0010922A041092F10C1092260410922504B7
S1132F10109228041092270408958091290488238C
S1132F2011F00E944E1770912A04772309F455C0BA
S1132F3020912B0430E0F901EE0FFF1FEE0FFF1F6D
S1132F40E20FF31FE45DFB4F608160935B044181FA
S1132F50528150935A0440935904838194819093ED
S1132F605804809357042F5F3F4F2770307020938D
S1132F702B04715070932A04009741F58091250425
S1132F809091260418C080912904882311F00E948E
S1132F904E174091590450915A04809155049091D0
S1132FA0560460915B040E94B916E0915504F091B7
S1132FB056048081918190935604809355048091A6
S1132FC05504909156040097F1F607C0613819F43E
S1132FD021E0FC0126830E94B916809129042091E6
S1132FE02A0430E0280F311DC90108958091290475
S1132FF020912A0430E0280F311DC90108957091F1
S11330002A04783001F120912B04270F2770209394
S1133010540430E0F901EE0FFF1FEE0FFF1FE20F23
S1133020F31FE45DFB4F6083528341839483838366
S1133030872F8F5F80932A049091F10C981730F4B6
S11330408093F10C03C021E030E002C020E030E0C6
S1133050C9010895CF93DF93C0912704D091280428
S11330600E94B916D0932804C0932704DF91CF910E
S11330700895FC01AB0190912504809126049C01E4
S1133080A32FB22F03C00D90BC91A02DAE17BF0784
S113309091F01097C1F7309771F090838183F0938A
S11330A02604E093250481E0868315821482CF01EF
S11330B061E80E942A180895FC01009741F0868176
S11330C08150823020F481E087838093290408951D
S11330D021E030E0FC018681882311F420E030E017
S11330E0C9010895EF92FF92CF93DF93E82EE70191
S11330F07E01F92EE70104C060E070E00E943918F7
S1133100899199910097C1F7DF91CF91FF90EF904A
S11331100895EF92FF92CF93DF93E82EE7017E01AB
S1133120F92EE70102C00E947417899199910097C2
S1133130D1F7DF91CF91FF90EF900895CF93DF9374
S1133140EC014A815B818C819D8160E070E00E948A
S113315080364A815B8188819981489F9001499F8B
S1133160300D589F300D11248E819F8160E070E0F6
S1133170A9010E948036DF91CF910895FC018281DC
S1133180938120E030E019C0A481B581A20FB31F60
S11331904C91442381F481E08C9340815181249F9C
S11331A0C001259F900D349F900D112426813781F5
S11331B0280F391F07C02F5F3F4F2817390720F307
S11331C020E030E0C9010895FC0126813781428165
S11331D0538180E090E018C02617370781F4A4815A
S11331E0B581A80FB91F2C91121614F421502C93F9
S11331F00480F581E02DE80FF91F80810895A081F6
S1133200B1812A0F3B1F01968417950728F38FEF8E
S11332100895FC01CB01268137816217730790F072
S1133220A081B18162817381A69FA001A79F500DE7
S1133230B69F500D1124420F531F21E030E0841734
S1133240950710F020E030E0C9010895CF93DF9393
S1133250EC017B836A830E94690599838883DF91EB
S1133260CF910895FC018081918122813381820F65
S1133270931F918380830895CF93DF93EC010E9481
S1133280690599838883DF91CF910895CF93DF9364
S1133290EC010E94690528813981821B930B0196F8
S11332A021E030E04A815B814817590710F020E0A3
S11332B030E0C901DF91CF910895EF92FF92CF934F
S11332C0DF93FC01C281D38180819181C80FD91F12
S11332D00E946905C81BD90BCE01DF91CF91FF90E5
S11332E0EF900895FC01118210820895FC01808101
S11332F091810895FB0120813181FC013183208378
S11333000895FC01208131812115310511F407C094
S11333109C01F901808191810097D1F702C020E0DE
S113332030E0C9010895CF93DF93DC012D913C91E6
S1133330119721153105A9F0F90180819181009738
S113334029F411961C921E920EC0F901208131813C
S1133350D9018D919C9111970097B9F71182108230
S113336002C020E030E0C901DF91CF910895DC0173
S1133370ED91FC911197309729F0808191811196FC
S11333809C938E93CF010895CF93DF93FC01A0818A
S1133390B1811097D9F0C0E0D0E016C0A617B707E6
S11333A071F48D919C911197209719F491838083E6
S11333B002C09983888311961C921E9207C0ED0166
S11333C098818981A92FB82F109741F7DF91CF9168
S11333D008950F931F93CF93DF938C01EB010E9409
S11333E0C419F8018081918199838883D183C08332
S11333F0DF91CF911F910F910895EF92FF920F9358
S11334001F93CF93DF93EC017B010E94C419F70152
S113341011821082CE010E948119FC01009719F4D7
S1133420E882F98202C0F182E082DF91CF911F919C
S11334300F91FF90EF900895DC01ED91FC911197AD
S113344020E030E005C02F5F3F4F0190F081E02D78
S11334503097C9F7C9010895FB01309721F4BA01E7
S11334600E94E9190895DA018081918111969C9353
S11334708E93518340830895009721F0FC012081AD
S1133480318102C020E030E0C9010895CF92DF927B
S1133490EF92FF920F931F93CF93DF938C017A01E6
S11334A0FC0180819181009729F08B34910509F00A
S11334B051C01EC08EE594E00E947619C82EE60124
S11334C07E01F92EE70109C06C817D81CE0102964F
S11334D00E94FB010990D881C02D2097A9F781E0B3
S11334E080935D048BE490E0F8019183808337C07E
S11334F06838A9F58EE594E00E947619C82EE60195
S11335006E01D92EE60123C0CE010296E816F90613
S1133510D9F48EE594E0BE010E94C419E09027041A
S1133520F09028048A859B8590932804809327042F
S1133530EC85FD85309719F08E859F850995F0926D
S11335402804E0922704CECF0990D881C02D20977B
S1133550D9F6C8CFF8011182108283E001C081E05E
S1133560DF91CF911F910F91FF90EF90DF90CF905B
S1133570089510925D048EE594E00E9472198DEE18
S113358091E060E070E00E94391808950F931F9352
S1133590CF93DF93EC0100912704109128041B873B
S11335A00A875D874C873F872E8780915D04882337
S11335B079F08DEE91E09093280480932704CE0156
S11335C002960E94FB01109328040093270402C072
S11335D07D836C838EE594E0BE010E94C4198EE560
S11335E094E0BE010E94FD19DF91CF911F910F91CC
S11335F008950F931F93CF93DF93EC0180915D04A3
S1133600882391F000912704109128048DEE91E015
S11336109093280480932704CE0102960E94060208
S113362010932804009327048EE594E0BE010E94C1
S1133630C4198EE594E0BE010E94FD19DF91CF917B
S11336401F910F9108950F931F93CF93DF93EC0174
S113365080915D04882391F000912704109128043F
S11336608DEE91E09093280480932704CE01029676
S11336700E94110210932804009327048EE594E01D
S1133680BE010E94C4198EE594E0BE010E94FD199A
S1133690DF91CF911F910F910895CF93DF93EC01A8
S11336A080915D04882329F0CE0102960E9459027C
S11336B004C01F821E82198618868EE594E0BE011E
S11336C00E94C419DF91CF910895CF93DF93EC0149
S11336D080915D04882331F0CE0102960E94260277
S11336E09C0114C08EE594E00E947619E82FF92F0E
S11336F006C0EC17FD0741F00190F081E02D3097F2
S1133700C1F721E030E002C020E030E0C901DF91E0
S1133710CF9108950E946E3308950F931F93FC0177
S1133720CB0140916004509161043383228315835B
S1133730048371836083F0936104E0936004411512
S1133740510511F40E948A3380E090E01F910F919B
S1133750089580916004909161040097C1F01092E3
S1133760610410926004DC0114966D917C911597AC
S11337701296ED91FC9113970995E0916004F091F4
S11337806104309721F0808191810E948A330895E9
S11337900E945F3608950E945A36089580E380930C
S11337A062040895EF92FF92CF93DF932091620415
S11337B030E0C0E3D0E0C21BD30B29593B4FB90121
S11337C0AE010E947736CE01DF91CF91FF90EF904A
S11337D00895AF92BF92CF92DF92EF92FF920F9330
S11337E01F93CF93DF937C01C0906304D090640453
S11337F02091620430E08601005D1F4F021B130B11
S113380001381105E0F4C0E3D0E0C21BD30B295901
S11338103B4FB901AE010E947736CE0DDF1D2091DA
S11338206504309166048091190590911A05280F5A
S1133830391FCE01B901A6010E94773602C000E00B
S113384010E0C801DF91CF911F910F91FF90EF908D
S1133850DF90CF90BF90AF90089590916204980F3D
S113386090936204089540916304509164049C0110
S11338704817590798F08091190590911A05820FFD
S1133880931F90931A0580931905421B530B509371
S113389064044093630421E030E002C020E030E09F
S11338A0C90108959093640480936304089520915A
S11338B0190530911A0529563B4FC90108952091E5
S11338C0620430E029593B4FC901089521E030E0FA
S11338D0809165049091660444E08739940711F45B
S11338E020E030E0C90108950E94661C009771F041
S11338F027E934E0609165047091660440916304A3
S113390050916404C9010E9477360895A091190565
S1133910B0911A051097B9F02091630430916404B2
S1133920205D3F4FA956BB4FE7E9F4E080E390E008
S113393003C04D914193019682179307D4F31092DB
S11339401A051092190508958091650490916604F2
S113395008958091630490916404089590916204A1
S113396080E3891B089580E390916204891B209170
S1133970630430916404280F311DC90108951F9315
S1133980CF93DF93EC0110916204812F90E08C17A8
S11339909D076CF00E94B31C8C0F9D1F813891050C
S11339A030F41C1B1093620421E030E002C020E0DC
S11339B030E0C901DF91CF911F910895CF93DF9338
S11339C0EAEFFCE0119211928DE0EA32F807D1F7A8
S11339D0C0E0D0E0CE01880F991F8E50934F6EE661
S11339E071E00E9457092196C430D10599F7DF91FF
S11339F0CF91089510921A0510921905109264043B
S1133A001092630480E38093620487E994E09093C6
S1133A106604809365040E94DE1C08950F931F932F
S1133A20CF93DF93EC018B010E94FA1CD0936604C0
S1133A30C09365041093640400936304DF91CF91F1
S1133A401F910F910895CF92DF92EF92FF920F93FF
S1133A501F93DF93CF9300D0CDB7DEB78C0169837A
S1133A607A830E94FA1C69817A81C62ED72E21E8B6
S1133A70C216D10418F030E8C32ED12C809165040D
S1133A8090916604B801A6010E947736D09264042E
S1133A90C0926304C6010F900F90CF91DF911F91E4
S1133AA00F91FF90EF90DF90CF900895282F392F3A
S1133AB0D901EAEFFCE080E301900D928150E1F737
S1133AC0862F972FDC01E2EFFCE088E001900D9255
S1133AD08150E1F70895EAEFFCE0282F392FD9014E
S1133AE080E30D9001928150E1F7A2EFBCE0862FB4
S1133AF0972FFC0188E001900D928150E1F7089521
S1133B0085E092E00E949E1885EF91E00E949E1845
S1133B108DEF91E00E949E180895EF92FF920F930B
S1133B201F93CF93DF930E94661C0097C9F08DEF1B
S1133B3091E00E94BE18E82EE7017E01F92EE7010C
S1133B40209791F10E94A91C998388830E94A41C48
S1133B509B838A83C70104960E94D21B8CAB24C02A
S1133B6085EF91E00E94BE18EC017E01F92EE70179
S1133B702097D1F085E092E00E94BE188C019983D1
S1133B808883009779F002960E94E91BF8019183DB
S1133B908083B8016E547F4FC8018E579F4F0E9497
S1133BA0561D02C0C0E0D0E0CE01DF91CF911F913D
S1133BB00F91FF90EF900895FC0180819181BC01E9
S1133BC06E547F4F8E579F4F0E94561D0895CF937A
S1133BD0DF93EC0185EF91E0BE010E940919009783
S1133BE049F06881798185E092E00E94E41885EFCC
S1133BF091E009C08DEF91E0BE010E940919009780
S1133C0029F08DEF91E0BE010E94E418DF91CF917D
S1133C100895EF92FF92CF93DF93EC0185EF91E04B
S1133C20BE010E940919009791F00990D881C02D16
S1133C3068817981CE0102960E94231DBE016E54D3
S1133C407F4FCE018E579F4F0E946B1D1BC08DEF7F
S1133C5091E0BE010E9409190097A1F00E94FA1C8C
S1133C60688179818A819B810E94231D8CA990E0BF
S1133C700E94BF1C0E945F1C4CA92496BE0150E008
S1133C800E947736DF91CF91FF90EF900895CF9304
S1133C90DF93EC0185EF91E0BE010E9409190097C2
S1133CA029F0288139812E5F3F4F0CC08DEF91E0C0
S1133CB0BE010E940919009719F02A813B8102C0B4
S1133CC020E030E0C901DF91CF910895DC01ED914E
S1133CD0FC91119780819181089570E06F5B7F4F13
S1133CE0660F771FFC0120813181260F371FC90120
S1133CF00895DC01ED91FC91119770E06F5B7F4FAB
S1133D00660F771FE60FF71F80819181089508954C
S1133D109C0141505040460F571FDB0110C0FC91DD
S1133D20E0E011968C911197BF01680F711D260F69
S1133D30371F2617370710F42F5F3F4F1296A4172B
S1133D40B50768F3A417B50749F49C9180E0280FE0
S1133D50391F2817390710F42F5F3F4FC901089501
S1133D60CF93DF939091350DC92FD0E064973091B4
S1133D70340D20E0C20FD31F9E01280F311DC9014D
S1133D806EE37DE048E050E00E94881E66E47DE03A
S1133D90AE010E94881E009719F0382F292F02C007
S1133DA02FEF3FEFC901DF91CF9108959093860BD8
S1133DB08093850B0895FC014381460F4093310D98
S1133DC0872F99272281280F2093300DA181A0935A
S1133DD02F0D508150932E0D30E02817390748F4E9
S1133DE08A2F8F5F80932F0D882319F45F5F509380
S1133DF02E0D842F90E070708617970798F48091A9
S1133E00300D8F5F8093300D882361F480912F0DE6
S1133E108F5F80932F0D882329F480912E0D8F5F5F
S1133E2080932E0D0895BC018091B70D9091B80D2B
S1133E3008960E94DB1EE091B70DF091B80D8091B9
S1133E402E0D808780912F0D81878091300D828780
S1133E508091310D838708959C01AB0180E090E04F
S1133E60B9010E94881E382F292FC901089580E0C6
S1133E7090E062E37DE044E150E00E94881E0097F8
S1133E8019F0382F292F02C02FEF3FEFC9010895F1
S1133E9086E00E94B01E089581E10E94B01E08953C
S1133EA080E009C0E82FF0E0EE0FFF1FE75CF14F60
S1133EB0118210828F5F8830A8F380E00BC0E82F56
S1133EC0F0E095E0EE0FFF1F9A95E1F7E754F24F0B
S1133ED0118E8F5F843098F380E094E09093880B88
S1133EE08093870B40E08DE090E00EC0242F30E0FB
S1133EF0289FF001299FF00D389FF00D1124E95AF5
S1133F00F14F158214824F5F4C3080F34093830B42
S1133F1008952091870B3091880B2F5F3F4F4DE719
S1133F202030340710F020E030E1522F432FA0E07E
S1133F3013C0EA2FF0E0B5E0EE0FFF1FBA95E1F7EA
S1133F40E754F24FB18DBB2331F00480F581E02DAD
S1133F50E417F50711F3AF5FA43059F73093880BDA
S1133F602093870B1092830B20E0E0E0F0E01EC06A
S1133F70A22FB0E035E0AA0FBB1F3A95E1F7A75492
S1133F80B24F59963C915997332321F42093830BD4
S1133F90FD0110C0373049F4309731F05A964C91F6
S1133FA05A97328D341708F4FD012F5F243000F343
S1133FB02093830B3097A9F122E0218F20917D0B70
S1133FC0248720917E0B258720917F0B26872091C3
S1133FD0800B278720E330E0338B228B358B248BB7
S1133FE021E030E0318B208B138E21E0228F23E0FF
S1133FF0208F168A20E1278B2091870B3091880B24
S11340003227232732273583248377836683DC0191
S11340102D913D914D915C9113972083318342837F
S11340205383CF0108950F931F93CF93DF93209170
S1134030870B3091880B4DE050E02F5F3F4FADE789
S113404020303A0710F020E030E1B22FA32F10E027
S113405012C0C12FD0E0C49FF001C59FF00DD49FC2
S1134060F00D1124E95AF14F0480F581E02DEA178F
S1134070FB0719F31F5F1C3061F73093880B209303
S1134080870B10E02DE030E01AC0012F0F5FC12F25
S1134090D0E0C29FF001C39FF00DD29FF00D112418
S11340A0E95AF14FDF0114964481558141155105B8
S11340B029F41093830B309749F433C0102F1C302C
S11340C020F31093830BE0E0F0E02BC02091870BEA
S11340D03091880B32272327322711963C932E9355
S11340E077836683009729F41082118212821382E7
S11340F009C0DC012D913D914D915C912083318368
S1134100428353838DE090E0C89FD001C99FB00DD6
S1134110D89FB00D1124A95AB14F80E418968C93FE
S11341201897CF01DF91CF911F910F91089540E02F
S113413013C0E42FF0E0542F5F5FEE0FFF1FE75C26
S1134140F14F208131812817390729F44093830BDB
S1134150118210820895452F483058F34093830B01
S1134160089540E013C0E42FF0E0542F5F5FEE0F9A
S1134170FF1FE75CF14F208131812115310529F4BE
S11341804093830B918380830895452F483058F3DF
S11341904093830B0895EF92FF920F931F93CF9355
S11341A0DF93C091B70DD091B80D843009F46AC281
S11341B00AE51DE01093B60D0093B50D10932D0D77
S11341C000932C0D833071F4898D90E08F70907082
S11341D08330910509F074C088899989009709F0A2
S11341E09FC78DC0823009F08EC08091800B8F5F95
S11341F08093800B882399F480917F0B8F5F809349
S11342007F0B882361F480917E0B8F5F80937E0BFC
S1134210882329F480917D0B8F5F80937D0B10920E
S11342202B0D10922A0D1092560E1092550E898D58
S1134230873011F0853041F48A8D8F5F8A8F8837FB
S113424009F06EC7198E6CC7882309F469C72889D9
S113425039892115310509F44EC09A8D292F215031
S11342602A8F992309F05CC79B8D983031F0282F51
S11342702150223048F4953039F4198E80E8809327
S1134280B20D0E94DA2A06C6953048F423E030E0E5
S1134290092E02C0220F331F0A94E2F701C020E363
S11342A02A8F9F5F9B8F90E08F7090708330910571
S11342B0E1F0843091054CF48130910509F4D3C3C5
S11342C08230910509F02CC70DC08630910509F4A0
S11342D07DC58830910509F479C58430910509F0CC
S11342E01FC774C51092530DC1C384E08093B20DEF
S11342F00E94DA2A01C68F70833009F011C788E062
S11343008093B20DBCC5853019F5E091B30DF091E1
S1134310B40D84819581009709F402C71092B80DF9
S11343201092B70D0C5010401093B60D0093B50DBC
S113433010932D0D00932C0D1092560E1092550EC5
S113434010922B0D10922A0D88E08093B20D98C123
S1134350085210408091320D853409F0E1C69091E5
S1134360340D80E02091350D7C01E20EF11C80912A
S11343702A0D90912B0D8E159F0508F4D1C6F0924D
S11343802B0DE0922A0D8091380D90E08F73907080
S1134390009709F0C5C68091390D882309F0C0C67D
S11343A08091510E9091520EC0911102D09112023F
S11343B08C179D0759F44091530E5091540E20913F
S11343C013023091140242175307A9F120913B0DB7
S11343D02131E9F44091420D5091430D20910D0299
S11343E030910E024217530761F44091440D5091ED
S11343F0450D20910F02309110024217530709F422
S113440065C02091420D207E203E09F45FC02091BA
S1134410420D3091430D2817390709F081C62091C8
S1134420440D3091450D8091530E9091540E2817F0
S1134430390709F075C60E94371F2FEF8F3F920787
S113444009F06EC680913B0D863009F483C1813139
S1134450E9F1813009F064C68091460D883009F095
S11344605FC61092460D8091480D9091490D4FEF13
S1134470873F940710F0099601C008969093490D60
S11344808093480D80913E0D90913F0DA091400D79
S1134490B091410D8093420D9093430DA093440D30
S11344A0B093450D8091510E9091520EA091530EF0
S11344B0B091540E80933E0D90933F0DA093400D08
S11344C0B093410D80E4F801808707C6C7014C977B
S11344D090932B0D80932A0D8EE49DE09093B60D5E
S11344E08093B50D80914C0D90914D0D009739F04E
S11344F00E944C1FFFEF8F3F9F0709F011C62091C8
S1134500480D3091490D2115310509F409C687E597
S11345109EE09093B40D8093B30D6091130270915B
S1134520140240910D0250910E0200910F0210915D
S113453010023CC084819581009799F128173907AE
S113454081F586819781009739F0A091460DB0914D
S1134550470DA817B90729F5808191818C179D070C
S113456031F4A281B381A617B70709F478C0841780
S1134570950731F4A281B381A017B10709F46FC084
S1134580A0913E0DB0913F0DA817B90751F4A09129
S1134590400DB091410D82819381A817B90709F4A8
S11345A05EC03D96F093B40DE093B30DE091B30D6E
S11345B0F091B40D8EE0E33FF80708F4BBCFEEE4CE
S11345C0FDE0DF015C978CE10D9001928150E1F7F1
S11345D083E08093460D8093470D1092490D10920D
S11345E0480D86E49DE064E270E00E942C1F8095F3
S11345F090959093490D8093480D80913E0D909134
S11346003F0DA091400DB091410D8093420D9093C8
S1134610430DA093440DB093450D8091510E90919C
S1134620520EA091530EB091540E80933E0D909370
S11346303F0DA093400DB093410D88E390E090931B
S11346402B0D80932A0D1092340D88E38093350D41
S113465080E480933A0D81E080933B0D3EC5109237
S1134660B80D1092B70D82E08093B20D8EE49DE0F8
S113467090932D0D80932C0D1092560E1092550E82
S11346800E94DA2A8091550E9091560E009709F4F3
S113469047C59C01245E3F4F30932B0D20932A0D78
S11346A03093340D2093350DE091B30DF091B40D9A
S11346B0208520933A0D21E120933B0D08969827FD
S11346C08927982790934B0D80934A0D10924D0D96
S11346D010924C0D848195819093470D8093460DE3
S11346E0868197819093490D8093480D8091510E56
S11346F09091520EA091530EB091540E80933E0DA2
S113470090933F0DA093400DB093410D8081918112
S1134710A281B3818093420D9093430DA093440DE5
S1134720B093450D8AE59DE09093B60D8093B50D49
S11347300E944C1F8095909590934D0D80934C0D45
S1134740009709F0CAC48FEF9FEF90934D0D8093AB
S11347504C0DC3C40E94481FEFEF8F3F9E0709F022
S1134760DFC48091480D9091490D009709F4D8C495
S11347702091460D3091470D2115310509F4D0C41F
S1134780C9EBDDE0498D4423E9F06C817D81861716
S11347909707C1F46E817F812617370799F4E0915A
S11347A03E0DF0913F0D68817981E617F70751F4CA
S11347B0E091400DF091410D6A817B81E617F70786
S11347C009F46CC1A096FEE0C933DF07D9F6209145
S11347D0530D2F732230B9F49093820B8093810B85
S11347E040E00DC0E42FF0E0EE0FFF1FE75CF14F57
S11347F0208131814F5F8217930709F46EC04830DE
S113480088F34093830B8091530D82FD89C484E126
S1134810F80181A388E290E090932B0D80932A0DF8
S113482080E580A380914D0D9091510D938F30912F
S11348304C0D9091500D928F368F20914B0D90918D
S11348404F0D918F258F90914A0D9093830B40913A
S11348504E0D408F948F8F5F878F882361F4832F51
S11348608F5F868F882339F4822F8F5F858F88230B
S113487011F49F5F948F8091460D9091470D909312
S1134880820B8093810B2091480D3091490DF801E2
S1134890358B248B978B868B80913E0D90913F0DA9
S11348A0A091400DB091410D8093420D9093430D22
S11348B0A093440DB093450D8091510E9091520EEA
S11348C0A091530EB091540E80933E0D90933F0DE2
S11348D0A093400DB093410DE5C31092830B80E08B
S11348E0C0E0D0E022C0E82FF0E075E0EE0FFF1F3B
S11348F07A95E1F7E754F24F918D992321F480934F
S1134900830BEF0116C0973079F4209721F0228DA4
S11349109A8D921748F4C82FD0E065E0CC0FDD1FC4
S11349206A95E1F7C754D24F8F5F8430E0F28093E9
S1134930830B209709F4F4C3D093B80DC093B70D3B
S113494083E08A8F888F1E8A84E08F8B1B8E8091F0
S1134950480D9091490D9D838C838091460D9091D3
S1134960470D9F838E8380913E0D90913F0DA091C2
S1134970400DB091410D88839983AA83BB8381E064
S1134980898F80917D0B8C8780917E0B8D878091A0
S11349907F0B8E878091800B8F8781E090E0998BCD
S11349A0888B80914D0D8B8780914C0D8A878091E7
S11349B04B0D898780914A0D888781E090E00E94A1
S11349C0131F8091520D282F30E0207F3070213545
S11349D031050CF448C082958F7090E00597880FDC
S11349E0991F880F991F5091840B40E033C0F9013F
S11349F0EE5CF24F50A5552329F44093830B10929B
S1134A00840B31C0513011F44F5F24C05230D9F4BB
S1134A1061A56430C1F44093830B5093840B32A599
S1134A2020E083A590E0822B932B9093820B8093BC
S1134A30810B8133910510F080E390E09B8B8A8B8E
S1134A409D8B8C8B10C02E5C324FF90121A5222343
S1134A5031F0420F242F30E02817390744F24093F5
S1134A60830B5093840B80E18093530D8091530DFD
S1134A7082608093530D82E080935A0D84E080938A
S1134A805B0D10925C0D80E380935D0D8CE290E0F1
S1134A9090932B0D80932A0D80E6B2C2D093B80D6B
S1134AA0C093B70D1092B20D8091530D90E082FF28
S1134AB003C0198E80E24DC22091520D22952F70B1
S1134AC0220F220F2093830BB701621B71099B01F4
S1134AD02451304030932B0D20932A0D50E04F7019
S1134AE050704230510539F4AC014F73507042316B
S1134AF0510551F42AC04130510531F4AC014F73D2
S1134B0050704230510509F12115310531F49C01F1
S1134B102370307021153105C1F030914A0D28857C
S1134B20321709F063C230914B0D2985321709F011
S1134B305DC230914C0D2A85321709F057C230916D
S1134B404D0D2B85321709F051C284FF4AC0688984
S1134B5079896115710509F444C0CE010C960E944F
S1134B60DB1E30914E0D80912E0D3817D1F520911A
S1134B704F0D80912F0D2817A1F59091500D809124
S1134B80300D981771F58091510D4091310D8417B6
S1134B9041F53C872D879E878F878B8D8823D1F4A1
S1134BA02E89888D9A8D891B922F96959695969528
S1134BB0891B280F2E8B87FD81959F89392F369568
S1134BC03695931B980F9F8B822F86958695869595
S1134BD0890F888F81E08093B20D888D8A8F198A1E
S1134BE0188A298D30E0C9018F7090708430910546
S1134BF009F4B4C18530910564F482309105C9F19A
S1134C00833091050CF0B8C08130910509F088C259
S1134C1011C08630910509F4E1C1863091050CF488
S1134C20BDC18730910509F4E1C18830910509F0CF
S1134C3077C289C18091B20D80FF14C083E0898F4F
S1134C4080E48093B20D198A188A80912A0D90917C
S1134C502B0D009709F40FC122E42093B20D0E949A
S1134C60131F09C18091530D8F73823009F058C20C
S1134C70FACE8091B20D80FF74C08091530D8F7372
S1134C80823109F06EC08091520D282F30E0207FD0
S1134C903070213531050CF448C082958F7090E056
S1134CA00597880F991F880F991F5091840B40E036
S1134CB033C0F901EE5CF24F50A5552329F440931B
S1134CC0830B1092840B31C0513011F44F5F24C018
S1134CD05230D9F461A56430C1F44093830B5093EE
S1134CE0840B32A520E083A590E0822B932B909334
S1134CF0820B8093810B8133910510F080E390E067
S1134D009B8B8A8B9D8B8C8B10C02E5C324FF90150
S1134D1021A5222331F0420F242F30E02817390730
S1134D2044F24093830B5093840B83E0898F8091EA
S1134D304A0D888780914B0D898780914C0D8A8715
S1134D4080914D0D8B8781E090E00E94131F82E4D7
S1134D508093B20D198A188A10922B0D10922A0D85
S1134D608AC080E28093B20D0E94DA2AE091B70DE6
S1134D70F091B80D118E47CD8091530D80FF2AC05C
S1134D8024FD28C088899989009709F0C9C18091B8
S1134D902A0D90912B0D01960E94131F2091B20DA4
S1134DA0822F80618093B20D80912A0D90912B0DFA
S1134DB0009719F022612093B20D0E94DA2A81E053
S1134DC090E0998B888B88E0898F1B8E81E180939A
S1134DD0530D0FC185FF1CC05091580D40E08091C8
S1134DE0590D90E0842B952B4091B50D5091B60D43
S1134DF0480F591F5093B60D4093B50D40912A0D9D
S1134E0050912B0D481B590B50932B0D40932A0D99
S1134E1080912A0D90912B0D009749F024FD07C035
S1134E202091B20D22602093B20D0E94131F909125
S1134E30540D80E02091550D820F911D9093820BAB
S1134E408093810B2C893D892817390710F000972E
S1134E5021F43093820B2093810B8091810B9091EC
S1134E60820B9B8B8A8B8091B20D90E08370907043
S1134E70009709F455C11092560E1092550E0E94D7
S1134E80DA2A8091B20D85FF07C01092560E109257
S1134E90550E198E84E19BCF84FF0AC01092560EE2
S1134EA01092550E81E090E0998B888B84E08CCF32
S1134EB02091550E3091560E21153105E1F080FFF9
S1134EC002C0198A188A88899989009781F48A8985
S1134ED09B898217930720F49093560E8093550E66
S1134EE08091550E9091560E998B888B04C09093A7
S1134EF0560E8093550E1B8E80912C0D90912D0D86
S1134F009093B60D8093B50D8091550E9091560EE9
S1134F10009759F088899989009739F08896909379
S1134F202B0D80932A0D88E10BC08091B20D81FF77
S1134F30F7C088E290E090932B0D80932A0D80E1D6
S1134F408093530D5CC08091B20D80FFE9C0198E2F
S1134F5080E18093B20D0E94DA2AE2C080912A0D8A
S1134F6090912B0D009711F00E94131F9091530DF7
S1134F708091B20D90FF0BC080FF06C087E0898F3F
S1134F801A8E198A188A19C086E0898F16C080FF84
S1134F901EC085E0898F198A188AC2C080912A0DA3
S1134FA090912B0D009711F00E94131F8091530DC7
S1134FB080FF0DC087E0898F1A8E81E090E00E9407
S1134FC0131F80E18093B20D0E94DA2A0FC08091F2
S1134FD02A0D90912B0D009749F4A2C08091B20D37
S1134FE080FF9EC087E0898F1A8E9AC080E1F80105
S1134FF081A388E290E090932B0D80932A0D80E5A5
S11350008093520D888580934E0D898580934F0D32
S11350108A858093500D8B858093510D8C85809368
S11350204A0D8D8580934B0D8E8580934C0D8F8515
S113503080934D0D86E080933B0D8C819D819093F0
S1135040470D8093460D8E819F819093490D8093E7
S1135050480D8091510E9091520EA091530EB09133
S1135060540E80933E0D90933F0DA093400DB0934A
S1135070410D88819981AA81BB818093420D9093CF
S1135080430DA093440DB093450D898D84FF05C055
S11350901092550D1092540D05C01092540D80E3DA
S11350A08093550D80E480933A0D80912A0D909160
S11350B02B0D9093340D8093350D1092590D109251
S11350C0580D1092570D1092560D0E94481F80954E
S11350D090959093570D8093560D85E48093320DEF
S11350E01092330D1092390D1092380D8091850B6A
S11350F09091860B01969093860B8093850B9093E9
S1135100360D8093370D10923D0D10923C0D0E9488
S1135110371F8095909590933D0D80933C0D04C06E
S113512010922B0D10922A0D1092B20DDF91CF9197
S11351301F910F91FF90EF900895382F292FC901E7
S11351400895382F292F40E050E0762767277627E7
S113515080E090E0CB0177276627262B372B482B5E
S1135160592BB901CA010895AC01E0912C0DF091BD
S11351702D0D222733272E1B3F0B2E54324F62173F
S113518073070CF49B011216130664F42093550E56
S11351903093560E4E175F0729F0CF01BA01A901CB
S11351A00E94773608958BEA9BE00E9426020097BE
S11351B021F08BEA9BE00E9411020895E091B80B64
S11351C0F091B90B309711F00995089580E0089596
S11351D0EF92FF920F931F93CF93DF93EC018A0119
S11351E088819981009731F023E08030920709F09B
S11351F012C12BC080E00BC0E82FF0E0EE0FFF1FC0
S1135200EE0FFF1FE757F44F118210828F5F883033
S113521098F38093B30B8091270490912804909382
S1135220AA0B8093A90B0E946D178093F40E8BEA4E
S11352309BE060E470E00E94FB010E94501F80E04C
S113524093E09983888381E0E9C0623009F4BBC0AC
S1135250633030F4662309F48BC0613081F79EC05B
S1135260673819F0683859F741C01092B40B49E80F
S1135270E42E4BE0F42E18C0F7018281938180174D
S1135280910749F4808191810E949720F70111824E
S113529010821382128284E090E0E80EF91E80915D
S11352A0B40B8F5F8093B40B8091B40B883020F3E0
S11352B0E9EBFDE0848D958D8017910719F4158E27
S11352C0148E118EB0969EE0E933F90799F7E7E55D
S11352D0FEE0818592858017910711F4158214826E
S11352E03D962EE0E33FF207A1F7A9CF8BE04B3ABE
S11352F0580709F0A4CFCA010E942602009709F4B6
S11353009ECF1092B40B2DC0F0E035E0EE0FFF1FDE
S11353103A95E1F7E754F24F818D8823E9F08BEA5F
S11353209BE00E9411028091B40B90E025E0880F6D
S1135330991F2A95E1F78754924F9093B80D809363
S1135340B70D82E00E94CB2080912A0D90912B0D05
S1135350009711F00E94DE288091B40B8F5F809338
S1135360B40BE091B40BE43078F20E943D2D67CF8A
S11353704115510509F463CF5093B80D4093B70D0F
S113538083E00E94CB2080912A0D90912B0D0097F1
S113539011F00E94DE280E94D32851CF41155105F7
S11353A009F44DCF5093B40D4093B30D85E00E94A2
S11353B0CB2080912A0D90912B0D009709F43FCFBB
S11353C00E94DE283CCF80912A0D90912B0D0097EE
S11353D009F435CF81E08093F30E0E94032C8823D7
S11353E0B9F41092F30E80913B0D863031F4809124
S11353F0530D81FF02C00E94D32881E00E94CB207C
S113540080912A0D90912B0D009711F00E94DE28B7
S11354101092F30E14CF1982188283E0DF91CF919A
S11354201F910F91FF90EF9008959093B90B809383
S1135430B80B0895209127043091280460E0E9E82E
S1135440FBE013C0408151814817590761F4428140
S113545053814217530739F46093B70B11821082BA
S11354600E949720089534966F5F683058F36093D4
S1135470B70B089540E0E9E8FBE016C0542F5F5FE6
S1135480208131812115310569F44093B60B918354
S113549080832091270430912804338322830E943F
S11354A0B12008953496452F483040F34093B60B0D
S11354B00895FC018091270490912804958F848F8E
S11354C0778F668F0895FC018091270490912804BA
S11354D092878187748763870895CF93DF93EA0166
S11354E00E941320FC01009741F0809127049091C1
S11354F0280492878187D487C387CF01DF91CF9116
S113550008950F931F93DF93CF9300D000D0CDB7AE
S1135510DEB78C01AB018FEF89838A838B838C8305
S1135520CE010196B8010E946D2AFC01009711F08A
S113553015830483CF010F900F900F900F90CF919C
S1135540DF911F910F91089585E192E062E040E0C0
S113555050E00E942A1810922B0D10922A0D0895E3
S1135560AC0185E192E061E00E94FF170895AC016F
S113557085E192E060E00E94FF1708950F931F9366
S1135580CF93DF93EA010E94891F8C01009761F099
S11355908091270490912804F801958F848FD78FE8
S11355A0C68FC8010E94B72AC801DF91CF911F910D
S11355B00F910895CF93DF93A091B70DB091B80DDB
S11355C0109719F0ED016C9605C0C091B30DD09100
S11355D0B40D29968091B20D86FF22C01092B50BAE
S11355E040E0E9E8FBE016C02081318114968D91FA
S11355F09C9115972817390759F482819381009754
S113560039F04093B50B998388831B821A8206C0B4
S113561034964F5F483040F34093B50B0E94D32833
S113562088819981009731F04A815B816091F40E01
S11356300E942A18DF91CF91089510928D0C109238
S11356408C0CE0918E0CF0918F0C07C0308121817D
S113565011821082C901E92FF82F3097B9F71092FF
S11356608F0C10928E0C0895CF93DF9380912A0DA6
S113567090912B0D009709F4C0C0AAEBBBE0E0E0C9
S1135680F0E044E150E080E090E02D913C911197EE
S11356902115310569F4880F991FFC01A3E0EE0F71
S11356A0FF1FAA95E1F7E81BF90BE654F44F16C067
S11356B04217530770F0AC01440F551FFA0163E021
S11356C0EE0FFF1F6A95E1F7E41BF50BE654F44F68
S11356D0A90101961E968F309105B9F684E190E0F8
S11356E0918380838091360D9091370D93878287C3
S11356F080913E0D90913F0DA091400DB091410DD0
S113570082839383A483B5838091420D9091430D4A
S1135710A091440DB091450D86839783A087B187EE
S113572080913B0D84872091420D3091430D8091EF
S11357300D0290910E022817390721F52091440D8E
S11357403091450D80910F0290911002281739076E
S1135750C9F4E0918C0CF0918D0C309721F0028407
S1135760F385E02D0995C0918E0CD0918F0C06C065
S1135770EA85FB8509950990D881C02D2097C1F74A
S113578080E03EC0E0918E0CF0918F0C29C08281A4
S113579093812091420D3091430D822793272681D6
S11357A03781822393230097A1F4848195812091EA
S11357B0440D3091450D822793272085318582231E
S11357C0932321E030E0009711F020E030E0C9019C
S11357D002C080E090E0882359F40190F081E02D2C
S11357E03097A9F6E0918C0CF0918D0C309739F03C
S11357F00284F385E02D099503C082E001C084E0B2
S1135800DF91CF9108958091420D9091430D2091A5
S1135810510E3091520E8217930761F44091440D5A
S11358205091450D2091530E3091540E4217530759
S113583009F40EC120913B0D213119F0EAEBFBE094
S113584009C02091480D3091490D4EE822303407AB
S1135850A9F7FEC0208131812115310579F14285F6
S113586053852091360D3091370D4217530731F58A
S11358704281538120913E0D30913F0D42175307D1
S1135880E9F4448155812091400D3091410D421736
S11358905307A1F4268137812817390779F4408505
S11358A051852091440D3091450D4217530731F431
S11358B0348520913B0D321709F4C8C03E962CE084
S11358C0EC38F20739F620913A0D223008F084C002
S11358D020910D0230910E028217930761F42091FA
S11358E0440D3091450D80910F02909110022817BC
S11358F0390709F4ADC080913B0D813049F48091A2
S1135900460D883029F010922B0D10922A0D64C098
S1135910EEE4FDE0DF015C978CE10D900192815093
S1135920E1F78BE08093460D1092470D1092490DDC
S11359301092480D86E49DE064E270E00E942C1F02
S1135940809590959093490D8093480D80913E0DDC
S113595090913F0DA091400DB091410D8093420D67
S11359609093430DA093440DB093450D8091510E37
S11359709091520EA091530EB091540E80933E0D0F
S113598090933F0DA093400DB093410D88E390E0B8
S113599090932B0D80932A0D1092340D88E38093FD
S11359A0350D85E48093320D1092330D1092390D2C
S11359B01092380D80E480933A0D81E080933B0D82
S11359C010923D0D10923C0D0E94371F80959095CA
S11359D090933D0D80933C0D80913A0D81508093BE
S11359E03A0D80913C0D90913D0D4FEF8E3F940701
S11359F010F0029601C0019690933D0D80933C0DEA
S1135A0080912A0D90912B0D009741F08AE59DE03D
S1135A109093B60D8093B50D0E94342B2091420DC6
S1135A203091430D80910D0290910E022817390791
S1135A3089F481E04091440D5091450D20910F026D
S1135A40309110024217530731F402C081E00895E7
S1135A5080E0089581E0089520918E0C30918F0CA0
S1135A60FC013183208390938F0C80938E0C0895D6
S1135A7090938D0C80938C0C0895EAEBFBE080816D
S1135A809181009719F00197918380833E968CE071
S1135A90EC38F807A1F708958AB387608ABB8BB303
S1135AA087608BBB0895DA9B02C090E001C094E04C
S1135AB081E0D99980E0892BD89B02C090E001C095
S1135AC092E0892B08952BB3287F82FF02C040E027
S1135AD001C044E080FF02C030E001C032E051E088
S1135AE081FD50E0252B242B232B2BBB0895C0983C
S1135AF08FB9779BFECFC09A0895C0981FB8779B43
S1135B00FECF8FB1C09A90E00895CF93DF9389B709
S1135B10806489BF83E090E00E94772DC091880063
S1135B20D09189000E947D2D86FD0AC08091880055
S1135B3090918900885490408C1B9D0B97FDF2CF67
S1135B4081E08093910CDF91CF910895C098806497
S1135B508FB9779BFECF8FB11FB8779BFECF2FB144
S1135B60922F80E01FB8779BFECF2FB1C09A30E010
S1135B70282B392BC9010895C0988FB9779BFECF84
S1135B807FB9779BFECF6FB9779BFECF1FB8779B0A
S1135B90FECFC09A08951F93182F85E190E00E94CC
S1135BA0A62DBC01607E812F90E08F719070682BD0
S1135BB0792B85E190E00E94BC2D1F91089521E08E
S1135BC030E0849902C020E030E0C901089521E06A
S1135BD030E00E9902C020E030E0C9010895C09879
S1135BE08FE78FB9779BFECF8FB11FB8779BFECF1E
S1135BF08FB181E090E00E947605C09AC09888E059
S1135C008FB9779BFECFC09AC09888E08FB9779BF5
S1135C10FECFC09A0895CF93DF931092910CC09158
S1135C208800D09189000E947D2D83FF0AC0809155
S1135C30880090918900805D92408C1B9D0B97FD9C
S1135C40F2CF86E090E00E94772D89B78F7B89BFE1
S1135C500E9902C00E94EF2DDF91CF91089580919B
S1135C60900C813081F48091920C882321F00E9461
S1135C70852D1092920C8091930C882321F00E9420
S1135C800B2E1092930C8091900C81508093900C69
S1135C9008950F931F93CF93DF93EC018B018091B1
S1135CA0900C8F5F8093900C8091E90C9091EA0C9A
S1135CB0A091EB0CB091EC0C0196A11DB11D809349
S1135CC0E90C9093EA0CA093EB0CB093EC0C89E0F4
S1135CD090E00E94772D802F8E5FC0989EE39FB93D
S1135CE0779BFECF8FB9779BFECFC09AC0988EE387
